{
  "_format": "hh-sol-artifact-1",
  "contractName": "Anyrand",
  "sourceName": "contracts/Anyrand.sol",
  "abi": [
    {
      "inputs": [],
      "stateMutability": "nonpayable",
      "type": "constructor"
    },
    {
      "inputs": [
        {
          "internalType": "address",
          "name": "target",
          "type": "address"
        }
      ],
      "name": "AddressEmptyCode",
      "type": "error"
    },
    {
      "inputs": [],
      "name": "AlreadyInitialized",
      "type": "error"
    },
    {
      "inputs": [
        {
          "internalType": "address",
          "name": "implementation",
          "type": "address"
        }
      ],
      "name": "ERC1967InvalidImplementation",
      "type": "error"
    },
    {
      "inputs": [],
      "name": "ERC1967NonPayable",
      "type": "error"
    },
    {
      "inputs": [],
      "name": "FailedInnerCall",
      "type": "error"
    },
    {
      "inputs": [
        {
          "internalType": "uint256",
          "name": "got",
          "type": "uint256"
        },
        {
          "internalType": "uint256",
          "name": "want",
          "type": "uint256"
        }
      ],
      "name": "IncorrectPayment",
      "type": "error"
    },
    {
      "inputs": [],
      "name": "InsufficientGas",
      "type": "error"
    },
    {
      "inputs": [
        {
          "internalType": "address",
          "name": "beacon",
          "type": "address"
        }
      ],
      "name": "InvalidBeacon",
      "type": "error"
    },
    {
      "inputs": [
        {
          "internalType": "uint256",
          "name": "deadline",
          "type": "uint256"
        }
      ],
      "name": "InvalidDeadline",
      "type": "error"
    },
    {
      "inputs": [],
      "name": "InvalidInitialization",
      "type": "error"
    },
    {
      "inputs": [
        {
          "internalType": "bytes32",
          "name": "requestHash",
          "type": "bytes32"
        }
      ],
      "name": "InvalidRequestHash",
      "type": "error"
    },
    {
      "inputs": [],
      "name": "NewOwnerIsZeroAddress",
      "type": "error"
    },
    {
      "inputs": [],
      "name": "NoHandoverRequest",
      "type": "error"
    },
    {
      "inputs": [],
      "name": "NotInitializing",
      "type": "error"
    },
    {
      "inputs": [
        {
          "internalType": "uint256",
          "name": "callbackGasLimit",
          "type": "uint256"
        }
      ],
      "name": "OverGasLimit",
      "type": "error"
    },
    {
      "inputs": [],
      "name": "ReentrancyGuardReentrantCall",
      "type": "error"
    },
    {
      "inputs": [
        {
          "internalType": "address",
          "name": "to",
          "type": "address"
        },
        {
          "internalType": "uint256",
          "name": "value",
          "type": "uint256"
        }
      ],
      "name": "TransferFailed",
      "type": "error"
    },
    {
      "inputs": [],
      "name": "UUPSUnauthorizedCallContext",
      "type": "error"
    },
    {
      "inputs": [
        {
          "internalType": "bytes32",
          "name": "slot",
          "type": "bytes32"
        }
      ],
      "name": "UUPSUnsupportedProxiableUUID",
      "type": "error"
    },
    {
      "inputs": [],
      "name": "Unauthorized",
      "type": "error"
    },
    {
      "anonymous": false,
      "inputs": [
        {
          "indexed": true,
          "internalType": "address",
          "name": "newBeacon",
          "type": "address"
        }
      ],
      "name": "BeaconUpdated",
      "type": "event"
    },
    {
      "anonymous": false,
      "inputs": [
        {
          "indexed": false,
          "internalType": "uint256",
          "name": "amount",
          "type": "uint256"
        }
      ],
      "name": "ETHWithdrawn",
      "type": "event"
    },
    {
      "anonymous": false,
      "inputs": [
        {
          "indexed": true,
          "internalType": "address",
          "name": "newGasStation",
          "type": "address"
        }
      ],
      "name": "GasStationUpdated",
      "type": "event"
    },
    {
      "anonymous": false,
      "inputs": [
        {
          "indexed": false,
          "internalType": "uint64",
          "name": "version",
          "type": "uint64"
        }
      ],
      "name": "Initialized",
      "type": "event"
    },
    {
      "anonymous": false,
      "inputs": [
        {
          "indexed": false,
          "internalType": "uint256",
          "name": "newMaxCallbackGasLimit",
          "type": "uint256"
        }
      ],
      "name": "MaxCallbackGasLimitUpdated",
      "type": "event"
    },
    {
      "anonymous": false,
      "inputs": [
        {
          "indexed": false,
          "internalType": "uint256",
          "name": "maxDeadlineDelta",
          "type": "uint256"
        }
      ],
      "name": "MaxDeadlineDeltaUpdated",
      "type": "event"
    },
    {
      "anonymous": false,
      "inputs": [
        {
          "indexed": false,
          "internalType": "uint256",
          "name": "maxFeePerGas",
          "type": "uint256"
        }
      ],
      "name": "MaxFeePerGasUpdated",
      "type": "event"
    },
    {
      "anonymous": false,
      "inputs": [
        {
          "indexed": true,
          "internalType": "address",
          "name": "pendingOwner",
          "type": "address"
        }
      ],
      "name": "OwnershipHandoverCanceled",
      "type": "event"
    },
    {
      "anonymous": false,
      "inputs": [
        {
          "indexed": true,
          "internalType": "address",
          "name": "pendingOwner",
          "type": "address"
        }
      ],
      "name": "OwnershipHandoverRequested",
      "type": "event"
    },
    {
      "anonymous": false,
      "inputs": [
        {
          "indexed": true,
          "internalType": "address",
          "name": "oldOwner",
          "type": "address"
        },
        {
          "indexed": true,
          "internalType": "address",
          "name": "newOwner",
          "type": "address"
        }
      ],
      "name": "OwnershipTransferred",
      "type": "event"
    },
    {
      "anonymous": false,
      "inputs": [
        {
          "indexed": true,
          "internalType": "uint256",
          "name": "requestId",
          "type": "uint256"
        },
        {
          "indexed": false,
          "internalType": "bytes32",
          "name": "retdata",
          "type": "bytes32"
        },
        {
          "indexed": false,
          "internalType": "uint256",
          "name": "gasLimit",
          "type": "uint256"
        },
        {
          "indexed": false,
          "internalType": "uint256",
          "name": "actualGasUsed",
          "type": "uint256"
        }
      ],
      "name": "RandomnessCallbackFailed",
      "type": "event"
    },
    {
      "anonymous": false,
      "inputs": [
        {
          "indexed": true,
          "internalType": "uint256",
          "name": "requestId",
          "type": "uint256"
        },
        {
          "indexed": false,
          "internalType": "uint256[]",
          "name": "randomWords",
          "type": "uint256[]"
        },
        {
          "indexed": false,
          "internalType": "bool",
          "name": "callbackSuccess",
          "type": "bool"
        },
        {
          "indexed": false,
          "internalType": "uint256",
          "name": "actualGasUsed",
          "type": "uint256"
        }
      ],
      "name": "RandomnessFulfilled",
      "type": "event"
    },
    {
      "anonymous": false,
      "inputs": [
        {
          "indexed": true,
          "internalType": "uint256",
          "name": "requestId",
          "type": "uint256"
        },
        {
          "indexed": true,
          "internalType": "address",
          "name": "requester",
          "type": "address"
        },
        {
          "indexed": true,
          "internalType": "bytes32",
          "name": "pubKeyHash",
          "type": "bytes32"
        },
        {
          "indexed": false,
          "internalType": "uint256",
          "name": "round",
          "type": "uint256"
        },
        {
          "indexed": false,
          "internalType": "uint256",
          "name": "callbackGasLimit",
          "type": "uint256"
        },
        {
          "indexed": false,
          "internalType": "uint256",
          "name": "feePaid",
          "type": "uint256"
        },
        {
          "indexed": false,
          "internalType": "uint256",
          "name": "effectiveFeePerGas",
          "type": "uint256"
        }
      ],
      "name": "RandomnessRequested",
      "type": "event"
    },
    {
      "anonymous": false,
      "inputs": [
        {
          "indexed": false,
          "internalType": "uint256",
          "name": "newPrice",
          "type": "uint256"
        }
      ],
      "name": "RequestPremiumMultiplierUpdated",
      "type": "event"
    },
    {
      "anonymous": false,
      "inputs": [
        {
          "indexed": true,
          "internalType": "address",
          "name": "user",
          "type": "address"
        },
        {
          "indexed": true,
          "internalType": "uint256",
          "name": "roles",
          "type": "uint256"
        }
      ],
      "name": "RolesUpdated",
      "type": "event"
    },
    {
      "anonymous": false,
      "inputs": [
        {
          "indexed": true,
          "internalType": "address",
          "name": "implementation",
          "type": "address"
        }
      ],
      "name": "Upgraded",
      "type": "event"
    },
    {
      "inputs": [],
      "name": "ACCOUNTING_ROLE",
      "outputs": [
        {
          "internalType": "uint256",
          "name": "",
          "type": "uint256"
        }
      ],
      "stateMutability": "view",
      "type": "function"
    },
    {
      "inputs": [],
      "name": "BEACON_ADMIN_ROLE",
      "outputs": [
        {
          "internalType": "uint256",
          "name": "",
          "type": "uint256"
        }
      ],
      "stateMutability": "view",
      "type": "function"
    },
    {
      "inputs": [],
      "name": "CONFIGURATOR_ROLE",
      "outputs": [
        {
          "internalType": "uint256",
          "name": "",
          "type": "uint256"
        }
      ],
      "stateMutability": "view",
      "type": "function"
    },
    {
      "inputs": [],
      "name": "UPGRADER_ROLE",
      "outputs": [
        {
          "internalType": "uint256",
          "name": "",
          "type": "uint256"
        }
      ],
      "stateMutability": "view",
      "type": "function"
    },
    {
      "inputs": [],
      "name": "UPGRADE_INTERFACE_VERSION",
      "outputs": [
        {
          "internalType": "string",
          "name": "",
          "type": "string"
        }
      ],
      "stateMutability": "view",
      "type": "function"
    },
    {
      "inputs": [],
      "name": "beacon",
      "outputs": [
        {
          "internalType": "address",
          "name": "",
          "type": "address"
        }
      ],
      "stateMutability": "view",
      "type": "function"
    },
    {
      "inputs": [],
      "name": "cancelOwnershipHandover",
      "outputs": [],
      "stateMutability": "payable",
      "type": "function"
    },
    {
      "inputs": [
        {
          "internalType": "address",
          "name": "pendingOwner",
          "type": "address"
        }
      ],
      "name": "completeOwnershipHandover",
      "outputs": [],
      "stateMutability": "payable",
      "type": "function"
    },
    {
      "inputs": [
        {
          "internalType": "uint256",
          "name": "requestId",
          "type": "uint256"
        },
        {
          "internalType": "address",
          "name": "requester",
          "type": "address"
        },
        {
          "internalType": "bytes32",
          "name": "pubKeyHash",
          "type": "bytes32"
        },
        {
          "internalType": "uint256",
          "name": "round",
          "type": "uint256"
        },
        {
          "internalType": "uint256",
          "name": "callbackGasLimit",
          "type": "uint256"
        },
        {
          "internalType": "uint256[2]",
          "name": "signature",
          "type": "uint256[2]"
        }
      ],
      "name": "fulfillRandomness",
      "outputs": [],
      "stateMutability": "nonpayable",
      "type": "function"
    },
    {
      "inputs": [],
      "name": "gasStation",
      "outputs": [
        {
          "internalType": "address",
          "name": "",
          "type": "address"
        }
      ],
      "stateMutability": "view",
      "type": "function"
    },
    {
      "inputs": [
        {
          "internalType": "uint256",
          "name": "callbackGasLimit",
          "type": "uint256"
        }
      ],
      "name": "getRequestPrice",
      "outputs": [
        {
          "internalType": "uint256",
          "name": "",
          "type": "uint256"
        },
        {
          "internalType": "uint256",
          "name": "",
          "type": "uint256"
        }
      ],
      "stateMutability": "view",
      "type": "function"
    },
    {
      "inputs": [
        {
          "internalType": "address",
          "name": "user",
          "type": "address"
        },
        {
          "internalType": "uint256",
          "name": "roles",
          "type": "uint256"
        }
      ],
      "name": "grantRoles",
      "outputs": [],
      "stateMutability": "payable",
      "type": "function"
    },
    {
      "inputs": [
        {
          "internalType": "address",
          "name": "user",
          "type": "address"
        },
        {
          "internalType": "uint256",
          "name": "roles",
          "type": "uint256"
        }
      ],
      "name": "hasAllRoles",
      "outputs": [
        {
          "internalType": "bool",
          "name": "",
          "type": "bool"
        }
      ],
      "stateMutability": "view",
      "type": "function"
    },
    {
      "inputs": [
        {
          "internalType": "address",
          "name": "user",
          "type": "address"
        },
        {
          "internalType": "uint256",
          "name": "roles",
          "type": "uint256"
        }
      ],
      "name": "hasAnyRole",
      "outputs": [
        {
          "internalType": "bool",
          "name": "",
          "type": "bool"
        }
      ],
      "stateMutability": "view",
      "type": "function"
    },
    {
      "inputs": [
        {
          "internalType": "address",
          "name": "beacon_",
          "type": "address"
        },
        {
          "internalType": "uint256",
          "name": "requestPremiumMultiplierBps_",
          "type": "uint256"
        },
        {
          "internalType": "uint256",
          "name": "maxCallbackGasLimit_",
          "type": "uint256"
        },
        {
          "internalType": "uint256",
          "name": "maxDeadlineDelta_",
          "type": "uint256"
        },
        {
          "internalType": "address",
          "name": "gasStation_",
          "type": "address"
        },
        {
          "internalType": "uint256",
          "name": "maxFeePerGas_",
          "type": "uint256"
        }
      ],
      "name": "init",
      "outputs": [],
      "stateMutability": "nonpayable",
      "type": "function"
    },
    {
      "inputs": [],
      "name": "maxCallbackGasLimit",
      "outputs": [
        {
          "internalType": "uint256",
          "name": "",
          "type": "uint256"
        }
      ],
      "stateMutability": "view",
      "type": "function"
    },
    {
      "inputs": [],
      "name": "maxDeadlineDelta",
      "outputs": [
        {
          "internalType": "uint256",
          "name": "",
          "type": "uint256"
        }
      ],
      "stateMutability": "view",
      "type": "function"
    },
    {
      "inputs": [],
      "name": "maxFeePerGas",
      "outputs": [
        {
          "internalType": "uint256",
          "name": "",
          "type": "uint256"
        }
      ],
      "stateMutability": "view",
      "type": "function"
    },
    {
      "inputs": [],
      "name": "nextRequestId",
      "outputs": [
        {
          "internalType": "uint256",
          "name": "",
          "type": "uint256"
        }
      ],
      "stateMutability": "view",
      "type": "function"
    },
    {
      "inputs": [],
      "name": "owner",
      "outputs": [
        {
          "internalType": "address",
          "name": "result",
          "type": "address"
        }
      ],
      "stateMutability": "view",
      "type": "function"
    },
    {
      "inputs": [
        {
          "internalType": "address",
          "name": "pendingOwner",
          "type": "address"
        }
      ],
      "name": "ownershipHandoverExpiresAt",
      "outputs": [
        {
          "internalType": "uint256",
          "name": "result",
          "type": "uint256"
        }
      ],
      "stateMutability": "view",
      "type": "function"
    },
    {
      "inputs": [],
      "name": "proxiableUUID",
      "outputs": [
        {
          "internalType": "bytes32",
          "name": "",
          "type": "bytes32"
        }
      ],
      "stateMutability": "view",
      "type": "function"
    },
    {
      "inputs": [],
      "name": "renounceOwnership",
      "outputs": [],
      "stateMutability": "payable",
      "type": "function"
    },
    {
      "inputs": [
        {
          "internalType": "uint256",
          "name": "roles",
          "type": "uint256"
        }
      ],
      "name": "renounceRoles",
      "outputs": [],
      "stateMutability": "payable",
      "type": "function"
    },
    {
      "inputs": [],
      "name": "requestOwnershipHandover",
      "outputs": [],
      "stateMutability": "payable",
      "type": "function"
    },
    {
      "inputs": [],
      "name": "requestPremiumMultiplierBps",
      "outputs": [
        {
          "internalType": "uint256",
          "name": "",
          "type": "uint256"
        }
      ],
      "stateMutability": "view",
      "type": "function"
    },
    {
      "inputs": [
        {
          "internalType": "uint256",
          "name": "deadline",
          "type": "uint256"
        },
        {
          "internalType": "uint256",
          "name": "callbackGasLimit",
          "type": "uint256"
        }
      ],
      "name": "requestRandomness",
      "outputs": [
        {
          "internalType": "uint256",
          "name": "",
          "type": "uint256"
        }
      ],
      "stateMutability": "payable",
      "type": "function"
    },
    {
      "inputs": [
        {
          "internalType": "uint256",
          "name": "requestId",
          "type": "uint256"
        }
      ],
      "name": "requests",
      "outputs": [
        {
          "internalType": "bytes32",
          "name": "",
          "type": "bytes32"
        }
      ],
      "stateMutability": "view",
      "type": "function"
    },
    {
      "inputs": [
        {
          "internalType": "address",
          "name": "user",
          "type": "address"
        },
        {
          "internalType": "uint256",
          "name": "roles",
          "type": "uint256"
        }
      ],
      "name": "revokeRoles",
      "outputs": [],
      "stateMutability": "payable",
      "type": "function"
    },
    {
      "inputs": [
        {
          "internalType": "address",
          "name": "user",
          "type": "address"
        }
      ],
      "name": "rolesOf",
      "outputs": [
        {
          "internalType": "uint256",
          "name": "roles",
          "type": "uint256"
        }
      ],
      "stateMutability": "view",
      "type": "function"
    },
    {
      "inputs": [
        {
          "internalType": "address",
          "name": "newBeacon",
          "type": "address"
        }
      ],
      "name": "setBeacon",
      "outputs": [],
      "stateMutability": "nonpayable",
      "type": "function"
    },
    {
      "inputs": [
        {
          "internalType": "address",
          "name": "newGasStation",
          "type": "address"
        }
      ],
      "name": "setGasStation",
      "outputs": [],
      "stateMutability": "nonpayable",
      "type": "function"
    },
    {
      "inputs": [
        {
          "internalType": "uint256",
          "name": "newMaxCallbackGasLimit",
          "type": "uint256"
        }
      ],
      "name": "setMaxCallbackGasLimit",
      "outputs": [],
      "stateMutability": "nonpayable",
      "type": "function"
    },
    {
      "inputs": [
        {
          "internalType": "uint256",
          "name": "newMaxDeadlineDelta",
          "type": "uint256"
        }
      ],
      "name": "setMaxDeadlineDelta",
      "outputs": [],
      "stateMutability": "nonpayable",
      "type": "function"
    },
    {
      "inputs": [
        {
          "internalType": "uint256",
          "name": "newRequestPremiumMultiplierBps",
          "type": "uint256"
        }
      ],
      "name": "setRequestPremiumMultiplierBps",
      "outputs": [],
      "stateMutability": "nonpayable",
      "type": "function"
    },
    {
      "inputs": [
        {
          "internalType": "address",
          "name": "newOwner",
          "type": "address"
        }
      ],
      "name": "transferOwnership",
      "outputs": [],
      "stateMutability": "payable",
      "type": "function"
    },
    {
      "inputs": [],
      "name": "typeAndVersion",
      "outputs": [
        {
          "internalType": "string",
          "name": "",
          "type": "string"
        }
      ],
      "stateMutability": "pure",
      "type": "function"
    },
    {
      "inputs": [
        {
          "internalType": "address",
          "name": "newImplementation",
          "type": "address"
        },
        {
          "internalType": "bytes",
          "name": "data",
          "type": "bytes"
        }
      ],
      "name": "upgradeToAndCall",
      "outputs": [],
      "stateMutability": "payable",
      "type": "function"
    },
    {
      "inputs": [
        {
          "internalType": "uint256",
          "name": "amount",
          "type": "uint256"
        }
      ],
      "name": "withdrawETH",
      "outputs": [],
      "stateMutability": "nonpayable",
      "type": "function"
    }
  ],
  "bytecode": "0x60a0604052306080523480156200001557600080fd5b506200002062000026565b620000da565b7ff0c57e16840df040f15088dc2f81fe391c3923bec73e23a9662efc9c229c6a00805468010000000000000000900460ff1615620000775760405163f92ee8a960e01b815260040160405180910390fd5b80546001600160401b0390811614620000d75780546001600160401b0319166001600160401b0390811782556040519081527fc7f505b2f371ae2175ee4913f4499e1f2633a7b5936321eed1cdaeb6115181d29060200160405180910390a15b50565b608051612572620001046000396000818161191c015281816119450152611aa201526125726000f3fe6080604052600436106102a05760003560e01c80636a84a9851161016e578063d42afb56116100cb578063f04e283e1161007f578063f2fde38b11610064578063f2fde38b146107d2578063f72c0d8b146107e5578063fee81cf4146107fa57600080fd5b8063f04e283e1461079f578063f14210a6146107b257600080fd5b8063dbb602fd116100b0578063dbb602fd1461070e578063e3073fb71461074b578063f01a21401461076b57600080fd5b8063d42afb56146106d9578063d853015e146106f957600080fd5b80638da5cb5b1161012257806395415d431161010757806395415d431461065b578063ad3cb1cc1461067b578063cf91f1ef146106c457600080fd5b80638da5cb5b1461062257806394aa6a4b1461063b57600080fd5b80637b49e281116101535780637b49e281146105825780637eeef9a9146105b657806381d12c58146105d657600080fd5b80636a84a98514610546578063715018a61461057a57600080fd5b80632de948071161021c578063514e62fc116101d057806354d1f13d116101b557806354d1f13d146104f157806355face6d146104f957806359659e901461051957600080fd5b8063514e62fc146104a557806352d1902d146104dc57600080fd5b80633e681473116102015780633e6814731461046a5780634a4ee7b11461047f5780634f1ef2861461049257600080fd5b80632de948071461040357806338e576c81461043657600080fd5b80631c10893f116102735780631f53cf04116102585780631f53cf04146103a657806325692962146103c75780632728bf2c146103cf57600080fd5b80631c10893f146103635780631cd64df41461037657600080fd5b806308a957a9146102a557806310b0d1d2146102c7578063181f5a7714610301578063183a4f6e14610350575b600080fd5b3480156102b157600080fd5b506102c56102c0366004612046565b61082d565b005b3480156102d357600080fd5b506102e76102e2366004612061565b6108d3565b604080519283526020830191909152015b60405180910390f35b34801561030d57600080fd5b5060408051808201909152600d81527f416e7972616e6420312e302e300000000000000000000000000000000000000060208201525b6040516102f8919061209e565b6102c561035e366004612061565b6109c9565b6102c56103713660046120d1565b6109d6565b34801561038257600080fd5b506103966103913660046120d1565b6109ec565b60405190151581526020016102f8565b6103b96103b43660046120fb565b610a0b565b6040519081526020016102f8565b6102c5610e04565b3480156103db57600080fd5b507f73bb1f7ad954352194401771e442b57f02df3da05251c4536bf437f932f99207546103b9565b34801561040f57600080fd5b506103b961041e366004612046565b638b78c6d8600c908152600091909152602090205490565b34801561044257600080fd5b507f73bb1f7ad954352194401771e442b57f02df3da05251c4536bf437f932f99203546103b9565b34801561047657600080fd5b506103b9600481565b6102c561048d3660046120d1565b610e54565b6102c56104a036600461218c565b610e66565b3480156104b157600080fd5b506103966104c03660046120d1565b638b78c6d8600c90815260009290925260209091205416151590565b3480156104e857600080fd5b506103b9610e81565b6102c5610eb0565b34801561050557600080fd5b506102c561051436600461221d565b610eec565b34801561052557600080fd5b5061052e6111a6565b6040516001600160a01b0390911681526020016102f8565b34801561055257600080fd5b507f73bb1f7ad954352194401771e442b57f02df3da05251c4536bf437f932f99204546103b9565b6102c56111d9565b34801561058e57600080fd5b507f73bb1f7ad954352194401771e442b57f02df3da05251c4536bf437f932f99202546103b9565b3480156105c257600080fd5b506102c56105d1366004612061565b6111ed565b3480156105e257600080fd5b506103b96105f1366004612061565b60009081527f73bb1f7ad954352194401771e442b57f02df3da05251c4536bf437f932f99205602052604090205490565b34801561062e57600080fd5b50638b78c6d8195461052e565b34801561064757600080fd5b506102c5610656366004612061565b611277565b34801561066757600080fd5b506102c5610676366004612275565b6112f8565b34801561068757600080fd5b506103436040518060400160405280600581526020017f352e302e3000000000000000000000000000000000000000000000000000000081525081565b3480156106d057600080fd5b506103b9600281565b3480156106e557600080fd5b506102c56106f4366004612046565b61168a565b34801561070557600080fd5b506103b9600881565b34801561071a57600080fd5b507f73bb1f7ad954352194401771e442b57f02df3da05251c4536bf437f932f99206546001600160a01b031661052e565b34801561075757600080fd5b506102c5610766366004612061565b61169e565b34801561077757600080fd5b507f73bb1f7ad954352194401771e442b57f02df3da05251c4536bf437f932f99201546103b9565b6102c56107ad366004612046565b61171f565b3480156107be57600080fd5b506102c56107cd366004612061565b61175c565b6102c56107e0366004612046565b61182e565b3480156107f157600080fd5b506103b9600181565b34801561080657600080fd5b506103b9610815366004612046565b63389a75e1600c908152600091909152602090205490565b600861083881611855565b7f73bb1f7ad954352194401771e442b57f02df3da05251c4536bf437f932f99206805473ffffffffffffffffffffffffffffffffffffffff19166001600160a01b0384169081179091556040517f73bb1f7ad954352194401771e442b57f02df3da05251c4536bf437f932f9920091907feace2e43f1e38a3104cd1d140b379c1e6f5283916eef36bff925e63a329ab79990600090a2505050565b7f73bb1f7ad954352194401771e442b57f02df3da05251c4536bf437f932f992065460009081907f73bb1f7ad954352194401771e442b57f02df3da05251c4536bf437f932f9920090829081906001600160a01b031663a158ff8b61093b8862030d406122eb565b6040518263ffffffff1660e01b815260040161095991815260200190565b6040805180830381865afa158015610975573d6000803e3d6000fd5b505050506040513d601f19601f8201168201806040525081019061099991906122fe565b9150915060006127108460010154846109b29190612322565b6109bc919061234f565b9791965090945050505050565b6109d3338261187b565b50565b6109de611887565b6109e882826118a2565b5050565b638b78c6d8600c90815260008390526020902054811681145b92915050565b6000610a156118ae565b600080610a21846108d3565b915091506000610a4e7f73bb1f7ad954352194401771e442b57f02df3da05251c4536bf437f932f9920090565b90508060070154821115610a7657848160070154610a6c9190612322565b9250806007015491505b823414610abd576040517f0d35e921000000000000000000000000000000000000000000000000000000008152346004820152602481018490526044015b60405180910390fd5b8060020154851115610afe576040517f45453f3700000000000000000000000000000000000000000000000000000000815260048101869052602401610ab4565b8054604080517f5e7e3416000000000000000000000000000000000000000000000000000000008152905160009283926001600160a01b03909116918291635e7e34169160048083019260209291908290030181865afa158015610b66573d6000803e3d6000fd5b505050506040513d601f19601f82011682018060405250810190610b8a9190612363565b92506000816001600160a01b031663cacf66ab6040518163ffffffff1660e01b8152600401602060405180830381865afa158015610bcc573d6000803e3d6000fd5b505050506040513d601f19601f82011682018060405250810190610bf09190612363565b90506000826001600160a01b031663ef78d4fd6040518163ffffffff1660e01b8152600401602060405180830381865afa158015610c32573d6000803e3d6000fd5b505050506040513d601f19601f82011682018060405250810190610c569190612363565b9050856003015442610c6891906122eb565b8b1180610c745750818b105b80610c875750610c8481426122eb565b8b105b15610cc1576040517f277b2d74000000000000000000000000000000000000000000000000000000008152600481018c9052602401610ab4565b6000610ccd838d61237c565b9050610cd9828261238f565b610ce3838361234f565b610ced91906122eb565b9450505050506000836004016000815480929190610d0a906123a3565b90915550604080514660208083019190915230828401526060820184905233608083015260a0820187905267ffffffffffffffff861660c083015260e08083018d9052835180840390910181526101009092019092528051910120909150600082815260058601602090815260409182902092909255805167ffffffffffffffff851681529182018a90528101879052606081018690528390339083907f4d742ad77e9e8ee172d944c464321fc0e5c49465017bf65357c77b62de3a1b589060800160405180910390a495505050505050610a0560017f9b779b17422d0df92223018b32b4d1fa46e071723d6817e2486d003becc55f0055565b60006202a30067ffffffffffffffff164201905063389a75e1600c5233600052806020600c2055337fdbf36a107da19e49527a7176a1babf963b4b0ff8cde35ee35d6cd8f1f9ac7e1d600080a250565b610e5c611887565b6109e8828261187b565b610e6e611911565b610e778261199f565b6109e882826119aa565b6000610e8b611a97565b507f360894a13ba1a3210667c828492db98dca3e2076cc3735a920a3ca505d382bbc90565b63389a75e1600c523360005260006020600c2055337ffa7b8eab7da67f412cc9575ed43464468f9bfbae89d1675917346ca6d8fe3c92600080a2565b7ff0c57e16840df040f15088dc2f81fe391c3923bec73e23a9662efc9c229c6a00805468010000000000000000810460ff16159067ffffffffffffffff16600081158015610f375750825b905060008267ffffffffffffffff166001148015610f545750303b155b905081158015610f62575080155b15610f99576040517ff92ee8a900000000000000000000000000000000000000000000000000000000815260040160405180910390fd5b845467ffffffffffffffff191660011785558315610fcd57845468ff00000000000000001916680100000000000000001785555b610fd5611ae0565b610fde33611ae8565b7f73bb1f7ad954352194401771e442b57f02df3da05251c4536bf437f932f992006110088c611b24565b60016004820181905581018b90556040518b81527fe7af51792ad24f09099d1aa1b9ce24a68de1b1b1ceff0ae3b861cd25cb483ede9060200160405180910390a1600281018a90556040518a81527f134a3c9ab0f6f4624f16cae2e8b5ed62e867f01bae73ab143b957c2a2e6c9ee59060200160405180910390a1600381018990556040518981527f4bdf088aaa547d0a8b8f4aa78a191f0faf72f3bc7fddd8d39be2492d883684789060200160405180910390a160068101805473ffffffffffffffffffffffffffffffffffffffff19166001600160a01b038a169081179091556040517feace2e43f1e38a3104cd1d140b379c1e6f5283916eef36bff925e63a329ab79990600090a2600781018790556040518781527ffc932d0f51343f664c735ccefa1ee05d148cffdd438cdc72966c6029305016a69060200160405180910390a150831561119957845468ff000000000000000019168555604051600181527fc7f505b2f371ae2175ee4913f4499e1f2633a7b5936321eed1cdaeb6115181d29060200160405180910390a15b5050505050505050505050565b60007f73bb1f7ad954352194401771e442b57f02df3da05251c4536bf437f932f992005b546001600160a01b0316919050565b6111e1611887565b6111eb6000611c4f565b565b60086111f881611855565b7f73bb1f7ad954352194401771e442b57f02df3da05251c4536bf437f932f992018290556040518281527f73bb1f7ad954352194401771e442b57f02df3da05251c4536bf437f932f99200907fe7af51792ad24f09099d1aa1b9ce24a68de1b1b1ceff0ae3b861cd25cb483ede906020015b60405180910390a1505050565b600861128281611855565b7f73bb1f7ad954352194401771e442b57f02df3da05251c4536bf437f932f992028290556040518281527f73bb1f7ad954352194401771e442b57f02df3da05251c4536bf437f932f99200907f134a3c9ab0f6f4624f16cae2e8b5ed62e867f01bae73ab143b957c2a2e6c9ee59060200161126a565b6113006118ae565b60408051466020808301919091523082840152606082018990526001600160a01b038816608083015260a0820187905260c0820186905260e080830186905283518084039091018152610100909201835281519181019190912060008981527f73bb1f7ad954352194401771e442b57f02df3da05251c4536bf437f932f99205909252919020547f73bb1f7ad954352194401771e442b57f02df3da05251c4536bf437f932f99200919081146113e5576040517fa537f75800000000000000000000000000000000000000000000000000000000815260048101829052602401610ab4565b600088815260058301602052604080822091909155825490517fe3d4ff160000000000000000000000000000000000000000000000000000000081526001600160a01b039091169063e3d4ff169061144390889087906004016123bc565b600060405180830381600087803b15801561145d57600080fd5b505af1158015611471573d6000803e3d6000fd5b5060009250600191506114819050565b6040519080825280602002602001820160405280156114aa578160200160208202803683370190505b506040805186356020828101919091528701359181019190915246606082015230608082015260a081018b90526001600160a01b038a1660c082015290915060e0016040516020818303038152906040528051906020012060001c81600081518110611518576115186123d2565b602002602001018181525050600080611579878b63a0c4615c60e01b8e87604051602001611547929190612424565b60408051601f19818403018152908290526115659291602001612445565b604051602081830303815290604052611c8d565b91509150816116185760008b815260058601602052604081208590556115ba565b6000828210600181146115af578391506115b3565b8291505b5092915050565b600080523d6115ca60208261159a565b6000803e505060005160408051828152602081018a90529081018390528c907f593290c667cb0c88d24734b31a95f8ae731fe3ae3ca3e3439ddcaf24b4c89be19060600160405180910390a2505b8a7f2aa84c92d999f4dd20a8bb84fae98226a2e5308469d233c7d8fab46da06c436a84848460405161164c9392919061248d565b60405180910390a2505050505061168260017f9b779b17422d0df92223018b32b4d1fa46e071723d6817e2486d003becc55f0055565b505050505050565b600461169581611855565b6109e882611b24565b60086116a981611855565b7f73bb1f7ad954352194401771e442b57f02df3da05251c4536bf437f932f992038290556040518281527f73bb1f7ad954352194401771e442b57f02df3da05251c4536bf437f932f99200907f4bdf088aaa547d0a8b8f4aa78a191f0faf72f3bc7fddd8d39be2492d883684789060200161126a565b611727611887565b63389a75e1600c52806000526020600c20805442111561174f57636f5e88186000526004601cfd5b600090556109d381611c4f565b600261176781611855565b81600003611773574791505b604051600090339084908381818185875af1925050503d80600081146117b5576040519150601f19603f3d011682016040523d82523d6000602084013e6117ba565b606091505b50509050806117fe576040517f1c43b97600000000000000000000000000000000000000000000000000000000815233600482015260248101849052604401610ab4565b6040518381527f043f607a14d3b4f0a11a0b2e192bbfcd894298ba5abf22553be6081406db28aa9060200161126a565b611836611887565b8060601b61184c57637448fbae6000526004601cfd5b6109d381611c4f565b638b78c6d8600c5233600052806020600c2054166109d3576382b429006000526004601cfd5b6109e882826000611cb5565b638b78c6d8195433146111eb576382b429006000526004601cfd5b6109e882826001611cb5565b7f9b779b17422d0df92223018b32b4d1fa46e071723d6817e2486d003becc55f0080546001190161190b576040517f3ee5aeb500000000000000000000000000000000000000000000000000000000815260040160405180910390fd5b60029055565b306001600160a01b037f000000000000000000000000000000000000000000000000000000000000000016148061198157507f00000000000000000000000000000000000000000000000000000000000000006001600160a01b0316611975611d0e565b6001600160a01b031614155b156111eb5760405163703e46dd60e11b815260040160405180910390fd5b60016109e881611855565b816001600160a01b03166352d1902d6040518163ffffffff1660e01b8152600401602060405180830381865afa925050508015611a04575060408051601f3d908101601f19168201909252611a0191810190612363565b60015b611a2c57604051634c9c8ce360e01b81526001600160a01b0383166004820152602401610ab4565b7f360894a13ba1a3210667c828492db98dca3e2076cc3735a920a3ca505d382bbc8114611a88576040517faa1d49a400000000000000000000000000000000000000000000000000000000815260048101829052602401610ab4565b611a928383611d36565b505050565b306001600160a01b037f000000000000000000000000000000000000000000000000000000000000000016146111eb5760405163703e46dd60e11b815260040160405180910390fd5b6111eb611d8c565b6001600160a01b0316638b78c6d8198190558060007f8be0079c531659141344cd1fd0a4f28419497f9722a3daafe3b4186f6b6457e08180a350565b806001600160a01b03166363ffab316040518163ffffffff1660e01b8152600401600060405180830381865afa925050508015611b8357506040513d6000823e601f3d908101601f19168201604052611b8091908101906124b2565b60015b611bab57604051638ebc912f60e01b81526001600160a01b0382166004820152602401610ab4565b8051600003611bd857604051638ebc912f60e01b81526001600160a01b0383166004820152602401610ab4565b507f73bb1f7ad954352194401771e442b57f02df3da05251c4536bf437f932f99200805473ffffffffffffffffffffffffffffffffffffffff19166001600160a01b03831690811782556040517fb6c98a2d14fe1d3cc6112a6fab11204e6e526a4e568d000a85f55dac167b948390600090a25050565b638b78c6d81980546001600160a01b039092169182907f8be0079c531659141344cd1fd0a4f28419497f9722a3daafe3b4186f6b6457e0600080a355565b6000805a9050611c9e858585611df3565b91505a611cab908261237c565b9050935093915050565b638b78c6d8600c52826000526020600c20805483811783611cd7575080841681185b80835580600c5160601c7f715ad5ce61fc9595c7b415289d59cf203f23a94fa06f04af7e489a0a76e1fe26600080a3505050505050565b60007f360894a13ba1a3210667c828492db98dca3e2076cc3735a920a3ca505d382bbc6111ca565b611d3f82611e41565b6040516001600160a01b038316907fbc7cd75a20ee27fd9adebab32041f755214dbc6bffa90cc0225b39da2e5c2d3b90600090a2805115611d8457611a928282611ec5565b6109e8611f3b565b7ff0c57e16840df040f15088dc2f81fe391c3923bec73e23a9662efc9c229c6a005468010000000000000000900460ff166111eb576040517fd7e6bcf800000000000000000000000000000000000000000000000000000000815260040160405180910390fd5b60005a611388811015611e0557600080fd5b611388810390508460408204820311611e1d57600080fd5b50823b611e2957600080fd5b60008083516020850160008789f190505b9392505050565b806001600160a01b03163b600003611e7757604051634c9c8ce360e01b81526001600160a01b0382166004820152602401610ab4565b7f360894a13ba1a3210667c828492db98dca3e2076cc3735a920a3ca505d382bbc805473ffffffffffffffffffffffffffffffffffffffff19166001600160a01b0392909216919091179055565b6060600080846001600160a01b031684604051611ee29190612520565b600060405180830381855af49150503d8060008114611f1d576040519150601f19603f3d011682016040523d82523d6000602084013e611f22565b606091505b5091509150611f32858383611f73565b95945050505050565b34156111eb576040517fb398979f00000000000000000000000000000000000000000000000000000000815260040160405180910390fd5b606082611f8857611f8382611fe8565b611e3a565b8151158015611f9f57506001600160a01b0384163b155b15611fe1576040517f9996b3150000000000000000000000000000000000000000000000000000000081526001600160a01b0385166004820152602401610ab4565b5080611e3a565b805115611ff85780518082602001fd5b6040517f1425ea4200000000000000000000000000000000000000000000000000000000815260040160405180910390fd5b80356001600160a01b038116811461204157600080fd5b919050565b60006020828403121561205857600080fd5b611e3a8261202a565b60006020828403121561207357600080fd5b5035919050565b60005b8381101561209557818101518382015260200161207d565b50506000910152565b60208152600082518060208401526120bd81604085016020870161207a565b601f01601f19169190910160400192915050565b600080604083850312156120e457600080fd5b6120ed8361202a565b946020939093013593505050565b6000806040838503121561210e57600080fd5b50508035926020909101359150565b634e487b7160e01b600052604160045260246000fd5b604051601f8201601f1916810167ffffffffffffffff8111828210171561215c5761215c61211d565b604052919050565b600067ffffffffffffffff82111561217e5761217e61211d565b50601f01601f191660200190565b6000806040838503121561219f57600080fd5b6121a88361202a565b9150602083013567ffffffffffffffff8111156121c457600080fd5b8301601f810185136121d557600080fd5b80356121e86121e382612164565b612133565b8181528660208385010111156121fd57600080fd5b816020840160208301376000602083830101528093505050509250929050565b60008060008060008060c0878903121561223657600080fd5b61223f8761202a565b95506020870135945060408701359350606087013592506122626080880161202a565b915060a087013590509295509295509295565b60008060008060008060e0878903121561228e57600080fd5b8635955061229e6020880161202a565b94506040870135935060608701359250608087013591508760e0880111156122c557600080fd5b60a0870190509295509295509295565b634e487b7160e01b600052601160045260246000fd5b80820180821115610a0557610a056122d5565b6000806040838503121561231157600080fd5b505080516020909101519092909150565b8082028115828204841417610a0557610a056122d5565b634e487b7160e01b600052601260045260246000fd5b60008261235e5761235e612339565b500490565b60006020828403121561237557600080fd5b5051919050565b81810381811115610a0557610a056122d5565b60008261239e5761239e612339565b500690565b6000600182016123b5576123b56122d5565b5060010190565b8281526060810160408360208401379392505050565b634e487b7160e01b600052603260045260246000fd5b60008151808452602080850194506020840160005b83811015612419578151875295820195908201906001016123fd565b509495945050505050565b82815260406020820152600061243d60408301846123e8565b949350505050565b7fffffffff00000000000000000000000000000000000000000000000000000000831681526000825161247f81600485016020870161207a565b919091016004019392505050565b6060815260006124a060608301866123e8565b93151560208301525060400152919050565b6000602082840312156124c457600080fd5b815167ffffffffffffffff8111156124db57600080fd5b8201601f810184136124ec57600080fd5b80516124fa6121e382612164565b81815285602083850101111561250f57600080fd5b611f3282602083016020860161207a565b6000825161253281846020870161207a565b919091019291505056fea264697066735822122055299227b2a3e3ace1803a026cc2f53b8b667c9483b4e5403491587242a5178164736f6c63430008170033",
  "linkReferences": {},
  "deployedLinkReferences": {}
}