{
  "_format": "hh-sol-artifact-1",
  "contractName": "AnyrandConsumer",
  "sourceName": "contracts/example/AnyrandConsumer.sol",
  "abi": [
    {
      "inputs": [
        {
          "internalType": "address",
          "name": "anyrand_",
          "type": "address"
        }
      ],
      "stateMutability": "nonpayable",
      "type": "constructor"
    },
    {
      "inputs": [
        {
          "internalType": "address",
          "name": "owner",
          "type": "address"
        }
      ],
      "name": "OwnableInvalidOwner",
      "type": "error"
    },
    {
      "inputs": [
        {
          "internalType": "address",
          "name": "account",
          "type": "address"
        }
      ],
      "name": "OwnableUnauthorizedAccount",
      "type": "error"
    },
    {
      "anonymous": false,
      "inputs": [
        {
          "indexed": true,
          "internalType": "address",
          "name": "previousOwner",
          "type": "address"
        },
        {
          "indexed": true,
          "internalType": "address",
          "name": "newOwner",
          "type": "address"
        }
      ],
      "name": "OwnershipTransferred",
      "type": "event"
    },
    {
      "anonymous": false,
      "inputs": [
        {
          "indexed": false,
          "internalType": "uint256",
          "name": "randomness",
          "type": "uint256"
        }
      ],
      "name": "RandomnessReceived",
      "type": "event"
    },
    {
      "inputs": [],
      "name": "anyrand",
      "outputs": [
        {
          "internalType": "address",
          "name": "",
          "type": "address"
        }
      ],
      "stateMutability": "view",
      "type": "function"
    },
    {
      "inputs": [
        {
          "internalType": "uint256",
          "name": "deadline",
          "type": "uint256"
        },
        {
          "internalType": "uint256",
          "name": "callbackGasLimit",
          "type": "uint256"
        }
      ],
      "name": "getRandom",
      "outputs": [],
      "stateMutability": "payable",
      "type": "function"
    },
    {
      "inputs": [],
      "name": "owner",
      "outputs": [
        {
          "internalType": "address",
          "name": "",
          "type": "address"
        }
      ],
      "stateMutability": "view",
      "type": "function"
    },
    {
      "inputs": [
        {
          "internalType": "uint256",
          "name": "requestId",
          "type": "uint256"
        }
      ],
      "name": "randomness",
      "outputs": [
        {
          "internalType": "uint256",
          "name": "",
          "type": "uint256"
        }
      ],
      "stateMutability": "view",
      "type": "function"
    },
    {
      "inputs": [
        {
          "internalType": "uint256",
          "name": "requestId",
          "type": "uint256"
        },
        {
          "internalType": "uint256[]",
          "name": "randomWords",
          "type": "uint256[]"
        }
      ],
      "name": "receiveRandomWords",
      "outputs": [],
      "stateMutability": "nonpayable",
      "type": "function"
    },
    {
      "inputs": [],
      "name": "renounceOwnership",
      "outputs": [],
      "stateMutability": "nonpayable",
      "type": "function"
    },
    {
      "inputs": [
        {
          "internalType": "address",
          "name": "newOwner",
          "type": "address"
        }
      ],
      "name": "transferOwnership",
      "outputs": [],
      "stateMutability": "nonpayable",
      "type": "function"
    }
  ],
  "bytecode": "0x60a060405234801561001057600080fd5b5060405161092138038061092183398101604081905261002f916100c0565b338061005557604051631e4fbdf760e01b81526000600482015260240160405180910390fd5b61005e81610070565b506001600160a01b03166080526100f0565b600080546001600160a01b038381166001600160a01b0319831681178455604051919092169283917f8be0079c531659141344cd1fd0a4f28419497f9722a3daafe3b4186f6b6457e09190a35050565b6000602082840312156100d257600080fd5b81516001600160a01b03811681146100e957600080fd5b9392505050565b60805161080261011f6000396000818160c70152818161020f015281816103be015261046401526108026000f3fe6080604052600436106100705760003560e01c8063715018a61161004e578063715018a6146101165780638da5cb5b1461012b578063a0c4615c14610149578063f2fde38b1461016957600080fd5b80631b1d5b271461007557806350ad03ae146100b5578063655b08eb14610101575b600080fd5b34801561008157600080fd5b506100a2610090366004610668565b60016020526000908152604090205481565b6040519081526020015b60405180910390f35b3480156100c157600080fd5b506100e97f000000000000000000000000000000000000000000000000000000000000000081565b6040516001600160a01b0390911681526020016100ac565b61011461010f366004610681565b610189565b005b34801561012257600080fd5b50610114610445565b34801561013757600080fd5b506000546001600160a01b03166100e9565b34801561015557600080fd5b506101146101643660046106a3565b610459565b34801561017557600080fd5b50610114610184366004610722565b610563565b4282116101dd5760405162461bcd60e51b815260206004820152601760248201527f446561646c696e6520697320696e20746865207061737400000000000000000060448201526064015b60405180910390fd5b6040517f10b0d1d2000000000000000000000000000000000000000000000000000000008152600481018290526000907f00000000000000000000000000000000000000000000000000000000000000006001600160a01b0316906310b0d1d2906024016040805180830381865afa15801561025d573d6000803e3d6000fd5b505050506040513d601f19601f820116820180604052508101906102819190610752565b509050803410156102d45760405162461bcd60e51b815260206004820152601460248201527f496e73756666696369656e74207061796d656e7400000000000000000000000060448201526064016101d4565b8034111561037d576000336102e98334610776565b604051600081818185875af1925050503d8060008114610325576040519150601f19603f3d011682016040523d82523d6000602084013e61032a565b606091505b505090508061037b5760405162461bcd60e51b815260206004820152600d60248201527f526566756e64206661696c65640000000000000000000000000000000000000060448201526064016101d4565b505b6040517f1f53cf0400000000000000000000000000000000000000000000000000000000815260048101849052602481018390526000906001600160a01b037f00000000000000000000000000000000000000000000000000000000000000001690631f53cf0490849060440160206040518083038185885af1158015610408573d6000803e3d6000fd5b50505050506040513d601f19601f8201168201806040525081019061042d919061079d565b60009081526001602081905260409091205550505050565b61044d6105ba565b6104576000610600565b565b336001600160a01b037f000000000000000000000000000000000000000000000000000000000000000016146104d15760405162461bcd60e51b815260206004820152601860248201527f4f6e6c792063616c6c61626c6520627920416e7972616e64000000000000000060448201526064016101d4565b600083815260016020819052604090912054146105305760405162461bcd60e51b815260206004820152601160248201527f556e6b6e6f776e2072657175657374496400000000000000000000000000000060448201526064016101d4565b81816000818110610543576105436107b6565b600095865260016020908152604090962095029190910135909355505050565b61056b6105ba565b6001600160a01b0381166105ae576040517f1e4fbdf7000000000000000000000000000000000000000000000000000000008152600060048201526024016101d4565b6105b781610600565b50565b6000546001600160a01b03163314610457576040517f118cdaa70000000000000000000000000000000000000000000000000000000081523360048201526024016101d4565b600080546001600160a01b038381167fffffffffffffffffffffffff0000000000000000000000000000000000000000831681178455604051919092169283917f8be0079c531659141344cd1fd0a4f28419497f9722a3daafe3b4186f6b6457e09190a35050565b60006020828403121561067a57600080fd5b5035919050565b6000806040838503121561069457600080fd5b50508035926020909101359150565b6000806000604084860312156106b857600080fd5b83359250602084013567ffffffffffffffff808211156106d757600080fd5b818601915086601f8301126106eb57600080fd5b8135818111156106fa57600080fd5b8760208260051b850101111561070f57600080fd5b6020830194508093505050509250925092565b60006020828403121561073457600080fd5b81356001600160a01b038116811461074b57600080fd5b9392505050565b6000806040838503121561076557600080fd5b505080516020909101519092909150565b8181038181111561079757634e487b7160e01b600052601160045260246000fd5b92915050565b6000602082840312156107af57600080fd5b5051919050565b634e487b7160e01b600052603260045260246000fdfea26469706673582212205a136f7034044a0814eb6e6ff83c3a6edc61e529cd673b3c7aade5999752db1a64736f6c63430008170033",
  "linkReferences": {},
  "deployedLinkReferences": {}
}