{
  "_format": "hh-sol-artifact-1",
  "contractName": "Anyrand",
  "sourceName": "contracts/Anyrand.sol",
  "abi": [
    {
      "inputs": [],
      "stateMutability": "nonpayable",
      "type": "constructor"
    },
    {
      "inputs": [
        {
          "internalType": "address",
          "name": "target",
          "type": "address"
        }
      ],
      "name": "AddressEmptyCode",
      "type": "error"
    },
    {
      "inputs": [],
      "name": "AlreadyInitialized",
      "type": "error"
    },
    {
      "inputs": [
        {
          "internalType": "address",
          "name": "implementation",
          "type": "address"
        }
      ],
      "name": "ERC1967InvalidImplementation",
      "type": "error"
    },
    {
      "inputs": [],
      "name": "ERC1967NonPayable",
      "type": "error"
    },
    {
      "inputs": [],
      "name": "FailedInnerCall",
      "type": "error"
    },
    {
      "inputs": [
        {
          "internalType": "uint256",
          "name": "got",
          "type": "uint256"
        },
        {
          "internalType": "uint256",
          "name": "want",
          "type": "uint256"
        }
      ],
      "name": "IncorrectPayment",
      "type": "error"
    },
    {
      "inputs": [],
      "name": "InsufficientGas",
      "type": "error"
    },
    {
      "inputs": [
        {
          "internalType": "address",
          "name": "beacon",
          "type": "address"
        }
      ],
      "name": "InvalidBeacon",
      "type": "error"
    },
    {
      "inputs": [
        {
          "internalType": "uint256",
          "name": "deadline",
          "type": "uint256"
        }
      ],
      "name": "InvalidDeadline",
      "type": "error"
    },
    {
      "inputs": [],
      "name": "InvalidInitialization",
      "type": "error"
    },
    {
      "inputs": [
        {
          "internalType": "bytes32",
          "name": "requestHash",
          "type": "bytes32"
        }
      ],
      "name": "InvalidRequestHash",
      "type": "error"
    },
    {
      "inputs": [],
      "name": "NewOwnerIsZeroAddress",
      "type": "error"
    },
    {
      "inputs": [],
      "name": "NoHandoverRequest",
      "type": "error"
    },
    {
      "inputs": [],
      "name": "NotInitializing",
      "type": "error"
    },
    {
      "inputs": [
        {
          "internalType": "uint256",
          "name": "callbackGasLimit",
          "type": "uint256"
        }
      ],
      "name": "OverGasLimit",
      "type": "error"
    },
    {
      "inputs": [],
      "name": "ReentrancyGuardReentrantCall",
      "type": "error"
    },
    {
      "inputs": [
        {
          "internalType": "address",
          "name": "to",
          "type": "address"
        },
        {
          "internalType": "uint256",
          "name": "value",
          "type": "uint256"
        }
      ],
      "name": "TransferFailed",
      "type": "error"
    },
    {
      "inputs": [],
      "name": "UUPSUnauthorizedCallContext",
      "type": "error"
    },
    {
      "inputs": [
        {
          "internalType": "bytes32",
          "name": "slot",
          "type": "bytes32"
        }
      ],
      "name": "UUPSUnsupportedProxiableUUID",
      "type": "error"
    },
    {
      "inputs": [],
      "name": "Unauthorized",
      "type": "error"
    },
    {
      "anonymous": false,
      "inputs": [
        {
          "indexed": true,
          "internalType": "address",
          "name": "newBeacon",
          "type": "address"
        }
      ],
      "name": "BeaconUpdated",
      "type": "event"
    },
    {
      "anonymous": false,
      "inputs": [
        {
          "indexed": false,
          "internalType": "uint256",
          "name": "amount",
          "type": "uint256"
        }
      ],
      "name": "ETHWithdrawn",
      "type": "event"
    },
    {
      "anonymous": false,
      "inputs": [
        {
          "indexed": true,
          "internalType": "address",
          "name": "newGasStation",
          "type": "address"
        }
      ],
      "name": "GasStationUpdated",
      "type": "event"
    },
    {
      "anonymous": false,
      "inputs": [
        {
          "indexed": false,
          "internalType": "uint64",
          "name": "version",
          "type": "uint64"
        }
      ],
      "name": "Initialized",
      "type": "event"
    },
    {
      "anonymous": false,
      "inputs": [
        {
          "indexed": false,
          "internalType": "uint256",
          "name": "newMaxCallbackGasLimit",
          "type": "uint256"
        }
      ],
      "name": "MaxCallbackGasLimitUpdated",
      "type": "event"
    },
    {
      "anonymous": false,
      "inputs": [
        {
          "indexed": false,
          "internalType": "uint256",
          "name": "maxDeadlineDelta",
          "type": "uint256"
        }
      ],
      "name": "MaxDeadlineDeltaUpdated",
      "type": "event"
    },
    {
      "anonymous": false,
      "inputs": [
        {
          "indexed": false,
          "internalType": "uint256",
          "name": "maxFeePerGas",
          "type": "uint256"
        }
      ],
      "name": "MaxFeePerGasUpdated",
      "type": "event"
    },
    {
      "anonymous": false,
      "inputs": [
        {
          "indexed": true,
          "internalType": "address",
          "name": "pendingOwner",
          "type": "address"
        }
      ],
      "name": "OwnershipHandoverCanceled",
      "type": "event"
    },
    {
      "anonymous": false,
      "inputs": [
        {
          "indexed": true,
          "internalType": "address",
          "name": "pendingOwner",
          "type": "address"
        }
      ],
      "name": "OwnershipHandoverRequested",
      "type": "event"
    },
    {
      "anonymous": false,
      "inputs": [
        {
          "indexed": true,
          "internalType": "address",
          "name": "oldOwner",
          "type": "address"
        },
        {
          "indexed": true,
          "internalType": "address",
          "name": "newOwner",
          "type": "address"
        }
      ],
      "name": "OwnershipTransferred",
      "type": "event"
    },
    {
      "anonymous": false,
      "inputs": [
        {
          "indexed": true,
          "internalType": "uint256",
          "name": "requestId",
          "type": "uint256"
        },
        {
          "indexed": false,
          "internalType": "bytes32",
          "name": "retdata",
          "type": "bytes32"
        }
      ],
      "name": "RandomnessCallbackFailed",
      "type": "event"
    },
    {
      "anonymous": false,
      "inputs": [
        {
          "indexed": true,
          "internalType": "uint256",
          "name": "requestId",
          "type": "uint256"
        },
        {
          "indexed": false,
          "internalType": "uint256[]",
          "name": "randomWords",
          "type": "uint256[]"
        },
        {
          "indexed": false,
          "internalType": "bool",
          "name": "callbackSuccess",
          "type": "bool"
        }
      ],
      "name": "RandomnessFulfilled",
      "type": "event"
    },
    {
      "anonymous": false,
      "inputs": [
        {
          "indexed": true,
          "internalType": "uint256",
          "name": "requestId",
          "type": "uint256"
        },
        {
          "indexed": false,
          "internalType": "address",
          "name": "requester",
          "type": "address"
        },
        {
          "indexed": false,
          "internalType": "uint256",
          "name": "round",
          "type": "uint256"
        },
        {
          "indexed": false,
          "internalType": "uint256",
          "name": "callbackGasLimit",
          "type": "uint256"
        },
        {
          "indexed": false,
          "internalType": "uint256",
          "name": "feePaid",
          "type": "uint256"
        }
      ],
      "name": "RandomnessRequested",
      "type": "event"
    },
    {
      "anonymous": false,
      "inputs": [
        {
          "indexed": false,
          "internalType": "uint256",
          "name": "newPrice",
          "type": "uint256"
        }
      ],
      "name": "RequestPremiumUpdated",
      "type": "event"
    },
    {
      "anonymous": false,
      "inputs": [
        {
          "indexed": true,
          "internalType": "address",
          "name": "user",
          "type": "address"
        },
        {
          "indexed": true,
          "internalType": "uint256",
          "name": "roles",
          "type": "uint256"
        }
      ],
      "name": "RolesUpdated",
      "type": "event"
    },
    {
      "anonymous": false,
      "inputs": [
        {
          "indexed": true,
          "internalType": "address",
          "name": "implementation",
          "type": "address"
        }
      ],
      "name": "Upgraded",
      "type": "event"
    },
    {
      "inputs": [],
      "name": "ACCOUNTING_ROLE",
      "outputs": [
        {
          "internalType": "uint256",
          "name": "",
          "type": "uint256"
        }
      ],
      "stateMutability": "view",
      "type": "function"
    },
    {
      "inputs": [],
      "name": "BEACON_ADMIN_ROLE",
      "outputs": [
        {
          "internalType": "uint256",
          "name": "",
          "type": "uint256"
        }
      ],
      "stateMutability": "view",
      "type": "function"
    },
    {
      "inputs": [],
      "name": "CONFIGURATOR_ROLE",
      "outputs": [
        {
          "internalType": "uint256",
          "name": "",
          "type": "uint256"
        }
      ],
      "stateMutability": "view",
      "type": "function"
    },
    {
      "inputs": [],
      "name": "UPGRADER_ROLE",
      "outputs": [
        {
          "internalType": "uint256",
          "name": "",
          "type": "uint256"
        }
      ],
      "stateMutability": "view",
      "type": "function"
    },
    {
      "inputs": [],
      "name": "UPGRADE_INTERFACE_VERSION",
      "outputs": [
        {
          "internalType": "string",
          "name": "",
          "type": "string"
        }
      ],
      "stateMutability": "view",
      "type": "function"
    },
    {
      "inputs": [],
      "name": "beacon",
      "outputs": [
        {
          "internalType": "address",
          "name": "",
          "type": "address"
        }
      ],
      "stateMutability": "view",
      "type": "function"
    },
    {
      "inputs": [],
      "name": "cancelOwnershipHandover",
      "outputs": [],
      "stateMutability": "payable",
      "type": "function"
    },
    {
      "inputs": [
        {
          "internalType": "address",
          "name": "pendingOwner",
          "type": "address"
        }
      ],
      "name": "completeOwnershipHandover",
      "outputs": [],
      "stateMutability": "payable",
      "type": "function"
    },
    {
      "inputs": [
        {
          "internalType": "uint256",
          "name": "requestId",
          "type": "uint256"
        },
        {
          "internalType": "address",
          "name": "requester",
          "type": "address"
        },
        {
          "internalType": "bytes32",
          "name": "pubKeyHash",
          "type": "bytes32"
        },
        {
          "internalType": "uint256",
          "name": "round",
          "type": "uint256"
        },
        {
          "internalType": "uint256",
          "name": "callbackGasLimit",
          "type": "uint256"
        },
        {
          "internalType": "uint256[2]",
          "name": "signature",
          "type": "uint256[2]"
        }
      ],
      "name": "fulfillRandomness",
      "outputs": [],
      "stateMutability": "nonpayable",
      "type": "function"
    },
    {
      "inputs": [],
      "name": "gasStation",
      "outputs": [
        {
          "internalType": "address",
          "name": "",
          "type": "address"
        }
      ],
      "stateMutability": "view",
      "type": "function"
    },
    {
      "inputs": [
        {
          "internalType": "uint256",
          "name": "callbackGasLimit",
          "type": "uint256"
        }
      ],
      "name": "getRequestPrice",
      "outputs": [
        {
          "internalType": "uint256",
          "name": "",
          "type": "uint256"
        },
        {
          "internalType": "uint256",
          "name": "",
          "type": "uint256"
        }
      ],
      "stateMutability": "view",
      "type": "function"
    },
    {
      "inputs": [
        {
          "internalType": "address",
          "name": "user",
          "type": "address"
        },
        {
          "internalType": "uint256",
          "name": "roles",
          "type": "uint256"
        }
      ],
      "name": "grantRoles",
      "outputs": [],
      "stateMutability": "payable",
      "type": "function"
    },
    {
      "inputs": [
        {
          "internalType": "address",
          "name": "user",
          "type": "address"
        },
        {
          "internalType": "uint256",
          "name": "roles",
          "type": "uint256"
        }
      ],
      "name": "hasAllRoles",
      "outputs": [
        {
          "internalType": "bool",
          "name": "",
          "type": "bool"
        }
      ],
      "stateMutability": "view",
      "type": "function"
    },
    {
      "inputs": [
        {
          "internalType": "address",
          "name": "user",
          "type": "address"
        },
        {
          "internalType": "uint256",
          "name": "roles",
          "type": "uint256"
        }
      ],
      "name": "hasAnyRole",
      "outputs": [
        {
          "internalType": "bool",
          "name": "",
          "type": "bool"
        }
      ],
      "stateMutability": "view",
      "type": "function"
    },
    {
      "inputs": [
        {
          "internalType": "address",
          "name": "beacon_",
          "type": "address"
        },
        {
          "internalType": "uint256",
          "name": "requestPremiumBps_",
          "type": "uint256"
        },
        {
          "internalType": "uint256",
          "name": "maxCallbackGasLimit_",
          "type": "uint256"
        },
        {
          "internalType": "uint256",
          "name": "maxDeadlineDelta_",
          "type": "uint256"
        },
        {
          "internalType": "address",
          "name": "gasStation_",
          "type": "address"
        },
        {
          "internalType": "uint256",
          "name": "maxFeePerGas_",
          "type": "uint256"
        }
      ],
      "name": "init",
      "outputs": [],
      "stateMutability": "nonpayable",
      "type": "function"
    },
    {
      "inputs": [],
      "name": "maxCallbackGasLimit",
      "outputs": [
        {
          "internalType": "uint256",
          "name": "",
          "type": "uint256"
        }
      ],
      "stateMutability": "view",
      "type": "function"
    },
    {
      "inputs": [],
      "name": "maxDeadlineDelta",
      "outputs": [
        {
          "internalType": "uint256",
          "name": "",
          "type": "uint256"
        }
      ],
      "stateMutability": "view",
      "type": "function"
    },
    {
      "inputs": [],
      "name": "maxFeePerGas",
      "outputs": [
        {
          "internalType": "uint256",
          "name": "",
          "type": "uint256"
        }
      ],
      "stateMutability": "view",
      "type": "function"
    },
    {
      "inputs": [],
      "name": "nextRequestId",
      "outputs": [
        {
          "internalType": "uint256",
          "name": "",
          "type": "uint256"
        }
      ],
      "stateMutability": "view",
      "type": "function"
    },
    {
      "inputs": [],
      "name": "owner",
      "outputs": [
        {
          "internalType": "address",
          "name": "result",
          "type": "address"
        }
      ],
      "stateMutability": "view",
      "type": "function"
    },
    {
      "inputs": [
        {
          "internalType": "address",
          "name": "pendingOwner",
          "type": "address"
        }
      ],
      "name": "ownershipHandoverExpiresAt",
      "outputs": [
        {
          "internalType": "uint256",
          "name": "result",
          "type": "uint256"
        }
      ],
      "stateMutability": "view",
      "type": "function"
    },
    {
      "inputs": [],
      "name": "proxiableUUID",
      "outputs": [
        {
          "internalType": "bytes32",
          "name": "",
          "type": "bytes32"
        }
      ],
      "stateMutability": "view",
      "type": "function"
    },
    {
      "inputs": [],
      "name": "renounceOwnership",
      "outputs": [],
      "stateMutability": "payable",
      "type": "function"
    },
    {
      "inputs": [
        {
          "internalType": "uint256",
          "name": "roles",
          "type": "uint256"
        }
      ],
      "name": "renounceRoles",
      "outputs": [],
      "stateMutability": "payable",
      "type": "function"
    },
    {
      "inputs": [],
      "name": "requestOwnershipHandover",
      "outputs": [],
      "stateMutability": "payable",
      "type": "function"
    },
    {
      "inputs": [],
      "name": "requestPremiumBps",
      "outputs": [
        {
          "internalType": "uint256",
          "name": "",
          "type": "uint256"
        }
      ],
      "stateMutability": "view",
      "type": "function"
    },
    {
      "inputs": [
        {
          "internalType": "uint256",
          "name": "deadline",
          "type": "uint256"
        },
        {
          "internalType": "uint256",
          "name": "callbackGasLimit",
          "type": "uint256"
        }
      ],
      "name": "requestRandomness",
      "outputs": [
        {
          "internalType": "uint256",
          "name": "",
          "type": "uint256"
        }
      ],
      "stateMutability": "payable",
      "type": "function"
    },
    {
      "inputs": [
        {
          "internalType": "uint256",
          "name": "requestId",
          "type": "uint256"
        }
      ],
      "name": "requests",
      "outputs": [
        {
          "internalType": "bytes32",
          "name": "",
          "type": "bytes32"
        }
      ],
      "stateMutability": "view",
      "type": "function"
    },
    {
      "inputs": [
        {
          "internalType": "address",
          "name": "user",
          "type": "address"
        },
        {
          "internalType": "uint256",
          "name": "roles",
          "type": "uint256"
        }
      ],
      "name": "revokeRoles",
      "outputs": [],
      "stateMutability": "payable",
      "type": "function"
    },
    {
      "inputs": [
        {
          "internalType": "address",
          "name": "user",
          "type": "address"
        }
      ],
      "name": "rolesOf",
      "outputs": [
        {
          "internalType": "uint256",
          "name": "roles",
          "type": "uint256"
        }
      ],
      "stateMutability": "view",
      "type": "function"
    },
    {
      "inputs": [
        {
          "internalType": "address",
          "name": "newBeacon",
          "type": "address"
        }
      ],
      "name": "setBeacon",
      "outputs": [],
      "stateMutability": "nonpayable",
      "type": "function"
    },
    {
      "inputs": [
        {
          "internalType": "address",
          "name": "newGasStation",
          "type": "address"
        }
      ],
      "name": "setGasStation",
      "outputs": [],
      "stateMutability": "nonpayable",
      "type": "function"
    },
    {
      "inputs": [
        {
          "internalType": "uint256",
          "name": "newMaxCallbackGasLimit",
          "type": "uint256"
        }
      ],
      "name": "setMaxCallbackGasLimit",
      "outputs": [],
      "stateMutability": "nonpayable",
      "type": "function"
    },
    {
      "inputs": [
        {
          "internalType": "uint256",
          "name": "newMaxDeadlineDelta",
          "type": "uint256"
        }
      ],
      "name": "setMaxDeadlineDelta",
      "outputs": [],
      "stateMutability": "nonpayable",
      "type": "function"
    },
    {
      "inputs": [
        {
          "internalType": "uint256",
          "name": "newRequestPremiumBps",
          "type": "uint256"
        }
      ],
      "name": "setRequestPremiumBps",
      "outputs": [],
      "stateMutability": "nonpayable",
      "type": "function"
    },
    {
      "inputs": [
        {
          "internalType": "address",
          "name": "newOwner",
          "type": "address"
        }
      ],
      "name": "transferOwnership",
      "outputs": [],
      "stateMutability": "payable",
      "type": "function"
    },
    {
      "inputs": [],
      "name": "typeAndVersion",
      "outputs": [
        {
          "internalType": "string",
          "name": "",
          "type": "string"
        }
      ],
      "stateMutability": "pure",
      "type": "function"
    },
    {
      "inputs": [
        {
          "internalType": "address",
          "name": "newImplementation",
          "type": "address"
        },
        {
          "internalType": "bytes",
          "name": "data",
          "type": "bytes"
        }
      ],
      "name": "upgradeToAndCall",
      "outputs": [],
      "stateMutability": "payable",
      "type": "function"
    },
    {
      "inputs": [
        {
          "internalType": "uint256",
          "name": "amount",
          "type": "uint256"
        }
      ],
      "name": "withdrawETH",
      "outputs": [],
      "stateMutability": "nonpayable",
      "type": "function"
    }
  ],
  "bytecode": "0x60a0604052306080523480156200001557600080fd5b506200002062000026565b620000da565b7ff0c57e16840df040f15088dc2f81fe391c3923bec73e23a9662efc9c229c6a00805468010000000000000000900460ff1615620000775760405163f92ee8a960e01b815260040160405180910390fd5b80546001600160401b0390811614620000d75780546001600160401b0319166001600160401b0390811782556040519081527fc7f505b2f371ae2175ee4913f4499e1f2633a7b5936321eed1cdaeb6115181d29060200160405180910390a15b50565b60805161252962000104600039600081816118fc015281816119250152611a8201526125296000f3fe6080604052600436106102a05760003560e01c80636a84a9851161016e578063d4e76b7c116100cb578063f04e283e1161007f578063f2fde38b11610064578063f2fde38b146107d2578063f72c0d8b146107e5578063fee81cf4146107fa57600080fd5b8063f04e283e1461079f578063f14210a6146107b257600080fd5b8063dbb602fd116100b0578063dbb602fd1461070e578063e3073fb71461074b578063efd4fdd41461076b57600080fd5b8063d4e76b7c146106d9578063d853015e146106f957600080fd5b806394aa6a4b11610122578063ad3cb1cc11610107578063ad3cb1cc1461065b578063cf91f1ef146106a4578063d42afb56146106b957600080fd5b806394aa6a4b1461061b57806395415d431461063b57600080fd5b80637b49e281116101535780637b49e2811461058257806381d12c58146105b65780638da5cb5b1461060257600080fd5b80636a84a98514610546578063715018a61461057a57600080fd5b80632de948071161021c578063514e62fc116101d057806354d1f13d116101b557806354d1f13d146104f157806355face6d146104f957806359659e901461051957600080fd5b8063514e62fc146104a557806352d1902d146104dc57600080fd5b80633e681473116102015780633e6814731461046a5780634a4ee7b11461047f5780634f1ef2861461049257600080fd5b80632de948071461040357806338e576c81461043657600080fd5b80631c10893f116102735780631f53cf04116102585780631f53cf04146103a657806325692962146103c75780632728bf2c146103cf57600080fd5b80631c10893f146103635780631cd64df41461037657600080fd5b806308a957a9146102a557806310b0d1d2146102c7578063181f5a7714610301578063183a4f6e14610350575b600080fd5b3480156102b157600080fd5b506102c56102c0366004611ffe565b61082d565b005b3480156102d357600080fd5b506102e76102e2366004612019565b6108d3565b604080519283526020830191909152015b60405180910390f35b34801561030d57600080fd5b5060408051808201909152600d81527f416e7972616e6420312e302e300000000000000000000000000000000000000060208201525b6040516102f89190612056565b6102c561035e366004612019565b6109d5565b6102c5610371366004612089565b6109e2565b34801561038257600080fd5b50610396610391366004612089565b6109f8565b60405190151581526020016102f8565b6103b96103b43660046120b3565b610a17565b6040519081526020016102f8565b6102c5610dff565b3480156103db57600080fd5b507f73bb1f7ad954352194401771e442b57f02df3da05251c4536bf437f932f99207546103b9565b34801561040f57600080fd5b506103b961041e366004611ffe565b638b78c6d8600c908152600091909152602090205490565b34801561044257600080fd5b507f73bb1f7ad954352194401771e442b57f02df3da05251c4536bf437f932f99203546103b9565b34801561047657600080fd5b506103b9600481565b6102c561048d366004612089565b610e4f565b6102c56104a0366004612144565b610e61565b3480156104b157600080fd5b506103966104c0366004612089565b638b78c6d8600c90815260009290925260209091205416151590565b3480156104e857600080fd5b506103b9610e7c565b6102c5610eab565b34801561050557600080fd5b506102c56105143660046121d5565b610ee7565b34801561052557600080fd5b5061052e61119a565b6040516001600160a01b0390911681526020016102f8565b34801561055257600080fd5b507f73bb1f7ad954352194401771e442b57f02df3da05251c4536bf437f932f99204546103b9565b6102c56111cd565b34801561058e57600080fd5b507f73bb1f7ad954352194401771e442b57f02df3da05251c4536bf437f932f99202546103b9565b3480156105c257600080fd5b506103b96105d1366004612019565b60009081527f73bb1f7ad954352194401771e442b57f02df3da05251c4536bf437f932f99205602052604090205490565b34801561060e57600080fd5b50638b78c6d8195461052e565b34801561062757600080fd5b506102c5610636366004612019565b6111e1565b34801561064757600080fd5b506102c561065636600461222d565b61126b565b34801561066757600080fd5b506103436040518060400160405280600581526020017f352e302e3000000000000000000000000000000000000000000000000000000081525081565b3480156106b057600080fd5b506103b9600281565b3480156106c557600080fd5b506102c56106d4366004611ffe565b6115e9565b3480156106e557600080fd5b506102c56106f4366004612019565b6115fd565b34801561070557600080fd5b506103b9600881565b34801561071a57600080fd5b507f73bb1f7ad954352194401771e442b57f02df3da05251c4536bf437f932f99206546001600160a01b031661052e565b34801561075757600080fd5b506102c5610766366004612019565b61167e565b34801561077757600080fd5b507f73bb1f7ad954352194401771e442b57f02df3da05251c4536bf437f932f99201546103b9565b6102c56107ad366004611ffe565b6116ff565b3480156107be57600080fd5b506102c56107cd366004612019565b61173c565b6102c56107e0366004611ffe565b61180e565b3480156107f157600080fd5b506103b9600181565b34801561080657600080fd5b506103b9610815366004611ffe565b63389a75e1600c908152600091909152602090205490565b600861083881611835565b7f73bb1f7ad954352194401771e442b57f02df3da05251c4536bf437f932f99206805473ffffffffffffffffffffffffffffffffffffffff19166001600160a01b0384169081179091556040517f73bb1f7ad954352194401771e442b57f02df3da05251c4536bf437f932f9920091907feace2e43f1e38a3104cd1d140b379c1e6f5283916eef36bff925e63a329ab79990600090a2505050565b7f73bb1f7ad954352194401771e442b57f02df3da05251c4536bf437f932f992065460009081907f73bb1f7ad954352194401771e442b57f02df3da05251c4536bf437f932f9920090829081906001600160a01b031663a158ff8b61093b88620347d86122a3565b6040518263ffffffff1660e01b815260040161095991815260200190565b6040805180830381865afa158015610975573d6000803e3d6000fd5b505050506040513d601f19601f8201168201806040525081019061099991906122b6565b9150915060006127108460010154846109b291906122da565b6109bc9190612307565b90506109c881846122a3565b9791965090945050505050565b6109df338261185b565b50565b6109ea611867565b6109f48282611882565b5050565b638b78c6d8600c90815260008390526020902054811681145b92915050565b6000610a2161188e565b600080610a2d846108d3565b915091506000610a5a7f73bb1f7ad954352194401771e442b57f02df3da05251c4536bf437f932f9920090565b90508060070154821115610a7b57848160070154610a7891906122da565b92505b823414610ac2576040517f0d35e921000000000000000000000000000000000000000000000000000000008152346004820152602481018490526044015b60405180910390fd5b8060020154851115610b03576040517f45453f3700000000000000000000000000000000000000000000000000000000815260048101869052602401610ab9565b8054604080517f5e7e3416000000000000000000000000000000000000000000000000000000008152905160009283926001600160a01b03909116918291635e7e34169160048083019260209291908290030181865afa158015610b6b573d6000803e3d6000fd5b505050506040513d601f19601f82011682018060405250810190610b8f919061231b565b92506000816001600160a01b031663cacf66ab6040518163ffffffff1660e01b8152600401602060405180830381865afa158015610bd1573d6000803e3d6000fd5b505050506040513d601f19601f82011682018060405250810190610bf5919061231b565b90506000826001600160a01b031663ef78d4fd6040518163ffffffff1660e01b8152600401602060405180830381865afa158015610c37573d6000803e3d6000fd5b505050506040513d601f19601f82011682018060405250810190610c5b919061231b565b9050856003015442610c6d91906122a3565b8b1180610c795750818b105b80610c8c5750610c8981426122a3565b8b105b15610cc6576040517f277b2d74000000000000000000000000000000000000000000000000000000008152600481018c9052602401610ab9565b6000610cd2838d612334565b9050610cde8282612347565b610ce88383612307565b610cf291906122a3565b9450505050506000836004016000815480929190610d0f9061235b565b909155506040805146602080830191909152308284015260608201849052336080830181905260a0830188905267ffffffffffffffff871660c0840181905260e08085018f9052855180860390910181526101008501808752815191850191909120600088815260058d019095529386902093909355915261012082015261014081018b90526101608101899052905191925082917fa033351ade22e6da44dc6635d31d437a7eb564b20dab6876637abe66ac712d91918190036101800190a295505050505050610a1160017f9b779b17422d0df92223018b32b4d1fa46e071723d6817e2486d003becc55f0055565b60006202a30067ffffffffffffffff164201905063389a75e1600c5233600052806020600c2055337fdbf36a107da19e49527a7176a1babf963b4b0ff8cde35ee35d6cd8f1f9ac7e1d600080a250565b610e57611867565b6109f4828261185b565b610e696118f1565b610e728261197f565b6109f4828261198a565b6000610e86611a77565b507f360894a13ba1a3210667c828492db98dca3e2076cc3735a920a3ca505d382bbc90565b63389a75e1600c523360005260006020600c2055337ffa7b8eab7da67f412cc9575ed43464468f9bfbae89d1675917346ca6d8fe3c92600080a2565b7ff0c57e16840df040f15088dc2f81fe391c3923bec73e23a9662efc9c229c6a00805468010000000000000000810460ff16159067ffffffffffffffff16600081158015610f325750825b905060008267ffffffffffffffff166001148015610f4f5750303b155b905081158015610f5d575080155b15610f94576040517ff92ee8a900000000000000000000000000000000000000000000000000000000815260040160405180910390fd5b845467ffffffffffffffff191660011785558315610fc857845468ff00000000000000001916680100000000000000001785555b610fd0611ac0565b610fd933611ac8565b7f73bb1f7ad954352194401771e442b57f02df3da05251c4536bf437f932f992006110038c611b04565b600181018b90556040518b81527fbbc61bb82e36e5f007e325028fa98b9470a0f3ca5373879d8a08713a4bae34f79060200160405180910390a1600281018a90556040518a81527f134a3c9ab0f6f4624f16cae2e8b5ed62e867f01bae73ab143b957c2a2e6c9ee59060200160405180910390a1600381018990556040518981527f4bdf088aaa547d0a8b8f4aa78a191f0faf72f3bc7fddd8d39be2492d883684789060200160405180910390a160068101805473ffffffffffffffffffffffffffffffffffffffff19166001600160a01b038a169081179091556040517feace2e43f1e38a3104cd1d140b379c1e6f5283916eef36bff925e63a329ab79990600090a2600781018790556040518781527ffc932d0f51343f664c735ccefa1ee05d148cffdd438cdc72966c6029305016a69060200160405180910390a150831561118d57845468ff000000000000000019168555604051600181527fc7f505b2f371ae2175ee4913f4499e1f2633a7b5936321eed1cdaeb6115181d29060200160405180910390a15b5050505050505050505050565b60007f73bb1f7ad954352194401771e442b57f02df3da05251c4536bf437f932f992005b546001600160a01b0316919050565b6111d5611867565b6111df6000611c2f565b565b60086111ec81611835565b7f73bb1f7ad954352194401771e442b57f02df3da05251c4536bf437f932f992028290556040518281527f73bb1f7ad954352194401771e442b57f02df3da05251c4536bf437f932f99200907f134a3c9ab0f6f4624f16cae2e8b5ed62e867f01bae73ab143b957c2a2e6c9ee5906020015b60405180910390a1505050565b61127361188e565b60408051466020808301919091523082840152606082018990526001600160a01b038816608083015260a0820187905260c0820186905260e080830186905283518084039091018152610100909201835281519181019190912060008981527f73bb1f7ad954352194401771e442b57f02df3da05251c4536bf437f932f99205909252919020547f73bb1f7ad954352194401771e442b57f02df3da05251c4536bf437f932f9920091908114611358576040517fa537f75800000000000000000000000000000000000000000000000000000000815260048101829052602401610ab9565b600088815260058301602052604080822091909155825490517fe3d4ff160000000000000000000000000000000000000000000000000000000081526001600160a01b039091169063e3d4ff16906113b69088908790600401612374565b600060405180830381600087803b1580156113d057600080fd5b505af11580156113e4573d6000803e3d6000fd5b5060009250600191506113f49050565b60405190808252806020026020018201604052801561141d578160200160208202803683370190505b506040805186356020828101919091528701359181019190915246606082015230608082015260a081018b90526001600160a01b038a1660c082015290915060e0016040516020818303038152906040528051906020012060001c8160008151811061148b5761148b61238a565b60200260200101818152505060006114eb868a63a0c4615c60e01b8d866040516020016114b99291906123dc565b60408051601f19818403018152908290526114d792916020016123fd565b604051602081830303815290604052611c6d565b90508061157a5760008a8152600585016020526040812084905561152a565b60008282106001811461151f57839150611523565b8291505b5092915050565b600080523d61153a60208261150a565b6000803e50506000516040518181528b907fdf627bb748d612162e0b16552fa311f98e133cd0650a2727982ddbb88c5403459060200160405180910390a2505b897f99a4fb59a74a1157ef2ffb43db635f8556263798037c01b6641af8e11ac514b383836040516115ac929190612445565b60405180910390a2505050506115e160017f9b779b17422d0df92223018b32b4d1fa46e071723d6817e2486d003becc55f0055565b505050505050565b60046115f481611835565b6109f482611b04565b600861160881611835565b7f73bb1f7ad954352194401771e442b57f02df3da05251c4536bf437f932f992018290556040518281527f73bb1f7ad954352194401771e442b57f02df3da05251c4536bf437f932f99200907fbbc61bb82e36e5f007e325028fa98b9470a0f3ca5373879d8a08713a4bae34f79060200161125e565b600861168981611835565b7f73bb1f7ad954352194401771e442b57f02df3da05251c4536bf437f932f992038290556040518281527f73bb1f7ad954352194401771e442b57f02df3da05251c4536bf437f932f99200907f4bdf088aaa547d0a8b8f4aa78a191f0faf72f3bc7fddd8d39be2492d883684789060200161125e565b611707611867565b63389a75e1600c52806000526020600c20805442111561172f57636f5e88186000526004601cfd5b600090556109df81611c2f565b600261174781611835565b81600003611753574791505b604051600090339084908381818185875af1925050503d8060008114611795576040519150601f19603f3d011682016040523d82523d6000602084013e61179a565b606091505b50509050806117de576040517f1c43b97600000000000000000000000000000000000000000000000000000000815233600482015260248101849052604401610ab9565b6040518381527f043f607a14d3b4f0a11a0b2e192bbfcd894298ba5abf22553be6081406db28aa9060200161125e565b611816611867565b8060601b61182c57637448fbae6000526004601cfd5b6109df81611c2f565b638b78c6d8600c5233600052806020600c2054166109df576382b429006000526004601cfd5b6109f482826000611cbb565b638b78c6d8195433146111df576382b429006000526004601cfd5b6109f482826001611cbb565b7f9b779b17422d0df92223018b32b4d1fa46e071723d6817e2486d003becc55f008054600119016118eb576040517f3ee5aeb500000000000000000000000000000000000000000000000000000000815260040160405180910390fd5b60029055565b306001600160a01b037f000000000000000000000000000000000000000000000000000000000000000016148061196157507f00000000000000000000000000000000000000000000000000000000000000006001600160a01b0316611955611d14565b6001600160a01b031614155b156111df5760405163703e46dd60e11b815260040160405180910390fd5b60016109f481611835565b816001600160a01b03166352d1902d6040518163ffffffff1660e01b8152600401602060405180830381865afa9250505080156119e4575060408051601f3d908101601f191682019092526119e19181019061231b565b60015b611a0c57604051634c9c8ce360e01b81526001600160a01b0383166004820152602401610ab9565b7f360894a13ba1a3210667c828492db98dca3e2076cc3735a920a3ca505d382bbc8114611a68576040517faa1d49a400000000000000000000000000000000000000000000000000000000815260048101829052602401610ab9565b611a728383611d3c565b505050565b306001600160a01b037f000000000000000000000000000000000000000000000000000000000000000016146111df5760405163703e46dd60e11b815260040160405180910390fd5b6111df611d92565b6001600160a01b0316638b78c6d8198190558060007f8be0079c531659141344cd1fd0a4f28419497f9722a3daafe3b4186f6b6457e08180a350565b806001600160a01b03166363ffab316040518163ffffffff1660e01b8152600401600060405180830381865afa925050508015611b6357506040513d6000823e601f3d908101601f19168201604052611b609190810190612469565b60015b611b8b57604051638ebc912f60e01b81526001600160a01b0382166004820152602401610ab9565b8051600003611bb857604051638ebc912f60e01b81526001600160a01b0383166004820152602401610ab9565b507f73bb1f7ad954352194401771e442b57f02df3da05251c4536bf437f932f99200805473ffffffffffffffffffffffffffffffffffffffff19166001600160a01b03831690811782556040517fb6c98a2d14fe1d3cc6112a6fab11204e6e526a4e568d000a85f55dac167b948390600090a25050565b638b78c6d81980546001600160a01b039092169182907f8be0079c531659141344cd1fd0a4f28419497f9722a3daafe3b4186f6b6457e0600080a355565b60005a611388811015611c7f57600080fd5b611388810390508460408204820311611c9757600080fd5b50823b611ca357600080fd5b60008083516020850160008789f190505b9392505050565b638b78c6d8600c52826000526020600c20805483811783611cdd575080841681185b80835580600c5160601c7f715ad5ce61fc9595c7b415289d59cf203f23a94fa06f04af7e489a0a76e1fe26600080a3505050505050565b60007f360894a13ba1a3210667c828492db98dca3e2076cc3735a920a3ca505d382bbc6111be565b611d4582611df9565b6040516001600160a01b038316907fbc7cd75a20ee27fd9adebab32041f755214dbc6bffa90cc0225b39da2e5c2d3b90600090a2805115611d8a57611a728282611e7d565b6109f4611ef3565b7ff0c57e16840df040f15088dc2f81fe391c3923bec73e23a9662efc9c229c6a005468010000000000000000900460ff166111df576040517fd7e6bcf800000000000000000000000000000000000000000000000000000000815260040160405180910390fd5b806001600160a01b03163b600003611e2f57604051634c9c8ce360e01b81526001600160a01b0382166004820152602401610ab9565b7f360894a13ba1a3210667c828492db98dca3e2076cc3735a920a3ca505d382bbc805473ffffffffffffffffffffffffffffffffffffffff19166001600160a01b0392909216919091179055565b6060600080846001600160a01b031684604051611e9a91906124d7565b600060405180830381855af49150503d8060008114611ed5576040519150601f19603f3d011682016040523d82523d6000602084013e611eda565b606091505b5091509150611eea858383611f2b565b95945050505050565b34156111df576040517fb398979f00000000000000000000000000000000000000000000000000000000815260040160405180910390fd5b606082611f4057611f3b82611fa0565b611cb4565b8151158015611f5757506001600160a01b0384163b155b15611f99576040517f9996b3150000000000000000000000000000000000000000000000000000000081526001600160a01b0385166004820152602401610ab9565b5080611cb4565b805115611fb05780518082602001fd5b6040517f1425ea4200000000000000000000000000000000000000000000000000000000815260040160405180910390fd5b80356001600160a01b0381168114611ff957600080fd5b919050565b60006020828403121561201057600080fd5b611cb482611fe2565b60006020828403121561202b57600080fd5b5035919050565b60005b8381101561204d578181015183820152602001612035565b50506000910152565b6020815260008251806020840152612075816040850160208701612032565b601f01601f19169190910160400192915050565b6000806040838503121561209c57600080fd5b6120a583611fe2565b946020939093013593505050565b600080604083850312156120c657600080fd5b50508035926020909101359150565b634e487b7160e01b600052604160045260246000fd5b604051601f8201601f1916810167ffffffffffffffff81118282101715612114576121146120d5565b604052919050565b600067ffffffffffffffff821115612136576121366120d5565b50601f01601f191660200190565b6000806040838503121561215757600080fd5b61216083611fe2565b9150602083013567ffffffffffffffff81111561217c57600080fd5b8301601f8101851361218d57600080fd5b80356121a061219b8261211c565b6120eb565b8181528660208385010111156121b557600080fd5b816020840160208301376000602083830101528093505050509250929050565b60008060008060008060c087890312156121ee57600080fd5b6121f787611fe2565b955060208701359450604087013593506060870135925061221a60808801611fe2565b915060a087013590509295509295509295565b60008060008060008060e0878903121561224657600080fd5b8635955061225660208801611fe2565b94506040870135935060608701359250608087013591508760e08801111561227d57600080fd5b60a0870190509295509295509295565b634e487b7160e01b600052601160045260246000fd5b80820180821115610a1157610a1161228d565b600080604083850312156122c957600080fd5b505080516020909101519092909150565b8082028115828204841417610a1157610a1161228d565b634e487b7160e01b600052601260045260246000fd5b600082612316576123166122f1565b500490565b60006020828403121561232d57600080fd5b5051919050565b81810381811115610a1157610a1161228d565b600082612356576123566122f1565b500690565b60006001820161236d5761236d61228d565b5060010190565b8281526060810160408360208401379392505050565b634e487b7160e01b600052603260045260246000fd5b60008151808452602080850194506020840160005b838110156123d1578151875295820195908201906001016123b5565b509495945050505050565b8281526040602082015260006123f560408301846123a0565b949350505050565b7fffffffff000000000000000000000000000000000000000000000000000000008316815260008251612437816004850160208701612032565b919091016004019392505050565b60408152600061245860408301856123a0565b905082151560208301529392505050565b60006020828403121561247b57600080fd5b815167ffffffffffffffff81111561249257600080fd5b8201601f810184136124a357600080fd5b80516124b161219b8261211c565b8181528560208385010111156124c657600080fd5b611eea826020830160208601612032565b600082516124e9818460208701612032565b919091019291505056fea264697066735822122014a94207de962f927b36c01246e73f6a030e4e2c0be9ed8a03cfba6b76642c0c64736f6c63430008170033",
  "linkReferences": {},
  "deployedLinkReferences": {}
}