{
  "_format": "hh-sol-artifact-1",
  "contractName": "GasStationScroll",
  "sourceName": "contracts/networks/GasStationScroll.sol",
  "abi": [
    {
      "inputs": [],
      "name": "FULFILL_RANDOMNESS_TX_NON_ZERO_BYTES",
      "outputs": [
        {
          "internalType": "uint256",
          "name": "",
          "type": "uint256"
        }
      ],
      "stateMutability": "view",
      "type": "function"
    },
    {
      "inputs": [],
      "name": "FULFILL_RANDOMNESS_TX_ZERO_BYTES",
      "outputs": [
        {
          "internalType": "uint256",
          "name": "",
          "type": "uint256"
        }
      ],
      "stateMutability": "view",
      "type": "function"
    },
    {
      "inputs": [],
      "name": "L1_GAS_PRICE_ORACLE",
      "outputs": [
        {
          "internalType": "address",
          "name": "",
          "type": "address"
        }
      ],
      "stateMutability": "view",
      "type": "function"
    },
    {
      "inputs": [],
      "name": "PRECISION",
      "outputs": [
        {
          "internalType": "uint256",
          "name": "",
          "type": "uint256"
        }
      ],
      "stateMutability": "view",
      "type": "function"
    },
    {
      "inputs": [],
      "name": "TX_DATA_NON_ZERO_GAS",
      "outputs": [
        {
          "internalType": "uint256",
          "name": "",
          "type": "uint256"
        }
      ],
      "stateMutability": "view",
      "type": "function"
    },
    {
      "inputs": [],
      "name": "TX_DATA_ZERO_GAS",
      "outputs": [
        {
          "internalType": "uint256",
          "name": "",
          "type": "uint256"
        }
      ],
      "stateMutability": "view",
      "type": "function"
    },
    {
      "inputs": [
        {
          "internalType": "uint256",
          "name": "gasLimit",
          "type": "uint256"
        }
      ],
      "name": "getTxCost",
      "outputs": [
        {
          "internalType": "uint256",
          "name": "",
          "type": "uint256"
        },
        {
          "internalType": "uint256",
          "name": "",
          "type": "uint256"
        }
      ],
      "stateMutability": "view",
      "type": "function"
    },
    {
      "inputs": [],
      "name": "typeAndVersion",
      "outputs": [
        {
          "internalType": "string",
          "name": "",
          "type": "string"
        }
      ],
      "stateMutability": "pure",
      "type": "function"
    }
  ],
  "bytecode": "0x608060405234801561001057600080fd5b506104d5806100206000396000f3fe608060405234801561001057600080fd5b50600436106100885760003560e01c8063a073380c1161005b578063a073380c146100f7578063a158ff8b14610137578063aaf5eb681461015f578063ff1557781461016a57600080fd5b8063074127281461008d578063181f5a77146100a85780636425de35146100e7578063667d9cbf146100ef575b600080fd5b61009560fa81565b6040519081526020015b60405180910390f35b604080518082018252601681527f47617353746174696f6e5363726f6c6c20312e302e30000000000000000000006020820152905161009f91906103b6565b610095601081565b610095600481565b61011273530000000000000000000000000000000000000281565b60405173ffffffffffffffffffffffffffffffffffffffff909116815260200161009f565b61014a610145366004610405565b610172565b6040805192835260208301919091520161009f565b610095633b9aca0081565b610095609681565b600080600073530000000000000000000000000000000000000273ffffffffffffffffffffffffffffffffffffffff16630c18c1626040518163ffffffff1660e01b8152600401602060405180830381865afa1580156101d6573d6000803e3d6000fd5b505050506040513d601f19601f820116820180604052508101906101fa919061041e565b9050600073530000000000000000000000000000000000000273ffffffffffffffffffffffffffffffffffffffff1663519b4bd36040518163ffffffff1660e01b8152600401602060405180830381865afa15801561025d573d6000803e3d6000fd5b505050506040513d601f19601f82011682018060405250810190610281919061041e565b9050600073530000000000000000000000000000000000000273ffffffffffffffffffffffffffffffffffffffff1663f45e65d86040518163ffffffff1660e01b8152600401602060405180830381865afa1580156102e4573d6000803e3d6000fd5b505050506040513d601f19601f82011682018060405250810190610308919061041e565b90506000601061031a60fa600461044d565b6103249190610466565b61033060046096610466565b61033a919061044d565b90506000633b9aca00838561034f888661044d565b6103599190610466565b6103639190610466565b61036d919061047d565b9050600061037b3a8a610466565b9050600061271061038c848461044d565b610396919061047d565b905060006103a48b8361047d565b919b919a509098505050505050505050565b60006020808352835180602085015260005b818110156103e4578581018301518582016040015282016103c8565b506000604082860101526040601f19601f8301168501019250505092915050565b60006020828403121561041757600080fd5b5035919050565b60006020828403121561043057600080fd5b5051919050565b634e487b7160e01b600052601160045260246000fd5b8082018082111561046057610460610437565b92915050565b808202811582820484141761046057610460610437565b60008261049a57634e487b7160e01b600052601260045260246000fd5b50049056fea26469706673582212206331bb7ac6b6d377a662b3ee8c00511d3fec148b80e0241c47794cecb948ac4a64736f6c63430008170033",
  "linkReferences": {},
  "deployedLinkReferences": {}
}