{
  "_format": "hh-sol-artifact-1",
  "contractName": "AnyrandOptimism",
  "sourceName": "contracts/networks/AnyrandOptimism.sol",
  "abi": [
    {
      "inputs": [
        {
          "internalType": "uint256[4]",
          "name": "publicKey_",
          "type": "uint256[4]"
        },
        {
          "internalType": "uint256",
          "name": "genesisTimestamp_",
          "type": "uint256"
        },
        {
          "internalType": "uint256",
          "name": "period_",
          "type": "uint256"
        },
        {
          "internalType": "uint256",
          "name": "initialRequestPrice",
          "type": "uint256"
        },
        {
          "internalType": "uint256",
          "name": "maxCallbackGasLimit_",
          "type": "uint256"
        },
        {
          "internalType": "uint256",
          "name": "maxDeadlineDelta_",
          "type": "uint256"
        }
      ],
      "stateMutability": "nonpayable",
      "type": "constructor"
    },
    {
      "inputs": [
        {
          "internalType": "uint256[4]",
          "name": "input",
          "type": "uint256[4]"
        }
      ],
      "name": "BNAddFailed",
      "type": "error"
    },
    {
      "inputs": [
        {
          "internalType": "uint256",
          "name": "got",
          "type": "uint256"
        },
        {
          "internalType": "uint256",
          "name": "want",
          "type": "uint256"
        }
      ],
      "name": "IncorrectPayment",
      "type": "error"
    },
    {
      "inputs": [],
      "name": "InsufficientGas",
      "type": "error"
    },
    {
      "inputs": [
        {
          "internalType": "uint256",
          "name": "genesisTimestamp",
          "type": "uint256"
        },
        {
          "internalType": "uint256",
          "name": "period",
          "type": "uint256"
        }
      ],
      "name": "InvalidBeaconConfiguration",
      "type": "error"
    },
    {
      "inputs": [
        {
          "internalType": "bytes",
          "name": "dst",
          "type": "bytes"
        }
      ],
      "name": "InvalidDSTLength",
      "type": "error"
    },
    {
      "inputs": [
        {
          "internalType": "uint256",
          "name": "deadline",
          "type": "uint256"
        }
      ],
      "name": "InvalidDeadline",
      "type": "error"
    },
    {
      "inputs": [
        {
          "internalType": "uint256",
          "name": "x",
          "type": "uint256"
        }
      ],
      "name": "InvalidFieldElement",
      "type": "error"
    },
    {
      "inputs": [
        {
          "internalType": "uint256[4]",
          "name": "pubKey",
          "type": "uint256[4]"
        }
      ],
      "name": "InvalidPublicKey",
      "type": "error"
    },
    {
      "inputs": [
        {
          "internalType": "bytes32",
          "name": "requestHash",
          "type": "bytes32"
        }
      ],
      "name": "InvalidRequestHash",
      "type": "error"
    },
    {
      "inputs": [
        {
          "internalType": "uint256[4]",
          "name": "pubKey",
          "type": "uint256[4]"
        },
        {
          "internalType": "uint256[2]",
          "name": "message",
          "type": "uint256[2]"
        },
        {
          "internalType": "uint256[2]",
          "name": "signature",
          "type": "uint256[2]"
        }
      ],
      "name": "InvalidSignature",
      "type": "error"
    },
    {
      "inputs": [
        {
          "internalType": "uint256",
          "name": "noSqrt",
          "type": "uint256"
        }
      ],
      "name": "MapToPointFailed",
      "type": "error"
    },
    {
      "inputs": [
        {
          "internalType": "uint256",
          "name": "base",
          "type": "uint256"
        },
        {
          "internalType": "uint256",
          "name": "exponent",
          "type": "uint256"
        },
        {
          "internalType": "uint256",
          "name": "modulus",
          "type": "uint256"
        }
      ],
      "name": "ModExpFailed",
      "type": "error"
    },
    {
      "inputs": [
        {
          "internalType": "uint256",
          "name": "callbackGasLimit",
          "type": "uint256"
        }
      ],
      "name": "OverGasLimit",
      "type": "error"
    },
    {
      "inputs": [
        {
          "internalType": "address",
          "name": "owner",
          "type": "address"
        }
      ],
      "name": "OwnableInvalidOwner",
      "type": "error"
    },
    {
      "inputs": [
        {
          "internalType": "address",
          "name": "account",
          "type": "address"
        }
      ],
      "name": "OwnableUnauthorizedAccount",
      "type": "error"
    },
    {
      "inputs": [],
      "name": "Reentrant",
      "type": "error"
    },
    {
      "inputs": [
        {
          "internalType": "address",
          "name": "to",
          "type": "address"
        },
        {
          "internalType": "uint256",
          "name": "value",
          "type": "uint256"
        }
      ],
      "name": "TransferFailed",
      "type": "error"
    },
    {
      "anonymous": false,
      "inputs": [
        {
          "indexed": false,
          "internalType": "uint256",
          "name": "amount",
          "type": "uint256"
        }
      ],
      "name": "ETHWithdrawn",
      "type": "event"
    },
    {
      "anonymous": false,
      "inputs": [
        {
          "indexed": false,
          "internalType": "uint256",
          "name": "newMaxCallbackGasLimit",
          "type": "uint256"
        }
      ],
      "name": "MaxCallbackGasLimitUpdated",
      "type": "event"
    },
    {
      "anonymous": false,
      "inputs": [
        {
          "indexed": false,
          "internalType": "uint256",
          "name": "maxDeadlineDelta",
          "type": "uint256"
        }
      ],
      "name": "MaxDeadlineDeltaUpdated",
      "type": "event"
    },
    {
      "anonymous": false,
      "inputs": [
        {
          "indexed": true,
          "internalType": "address",
          "name": "previousOwner",
          "type": "address"
        },
        {
          "indexed": true,
          "internalType": "address",
          "name": "newOwner",
          "type": "address"
        }
      ],
      "name": "OwnershipTransferred",
      "type": "event"
    },
    {
      "anonymous": false,
      "inputs": [
        {
          "indexed": true,
          "internalType": "uint256",
          "name": "requestId",
          "type": "uint256"
        },
        {
          "indexed": false,
          "internalType": "uint256[]",
          "name": "randomWords",
          "type": "uint256[]"
        }
      ],
      "name": "RandomnessFulfilled",
      "type": "event"
    },
    {
      "anonymous": false,
      "inputs": [
        {
          "indexed": true,
          "internalType": "uint256",
          "name": "requestId",
          "type": "uint256"
        },
        {
          "indexed": false,
          "internalType": "address",
          "name": "requester",
          "type": "address"
        },
        {
          "indexed": false,
          "internalType": "uint256",
          "name": "round",
          "type": "uint256"
        },
        {
          "indexed": false,
          "internalType": "uint256",
          "name": "callbackGasLimit",
          "type": "uint256"
        }
      ],
      "name": "RandomnessRequested",
      "type": "event"
    },
    {
      "anonymous": false,
      "inputs": [
        {
          "indexed": false,
          "internalType": "uint256",
          "name": "newPrice",
          "type": "uint256"
        }
      ],
      "name": "RequestPriceUpdated",
      "type": "event"
    },
    {
      "inputs": [],
      "name": "DST",
      "outputs": [
        {
          "internalType": "bytes",
          "name": "",
          "type": "bytes"
        }
      ],
      "stateMutability": "view",
      "type": "function"
    },
    {
      "inputs": [],
      "name": "FUDGE_FACTOR_BPS",
      "outputs": [
        {
          "internalType": "uint256",
          "name": "",
          "type": "uint256"
        }
      ],
      "stateMutability": "view",
      "type": "function"
    },
    {
      "inputs": [],
      "name": "FULFILL_RANDOMNESS_TX_NON_ZERO_BYTES",
      "outputs": [
        {
          "internalType": "uint256",
          "name": "",
          "type": "uint256"
        }
      ],
      "stateMutability": "view",
      "type": "function"
    },
    {
      "inputs": [],
      "name": "FULFILL_RANDOMNESS_TX_ZERO_BYTES",
      "outputs": [
        {
          "internalType": "uint256",
          "name": "",
          "type": "uint256"
        }
      ],
      "stateMutability": "view",
      "type": "function"
    },
    {
      "inputs": [],
      "name": "L1_GAS_PRICE_ORACLE",
      "outputs": [
        {
          "internalType": "address",
          "name": "",
          "type": "address"
        }
      ],
      "stateMutability": "view",
      "type": "function"
    },
    {
      "inputs": [],
      "name": "PRECISION",
      "outputs": [
        {
          "internalType": "uint256",
          "name": "",
          "type": "uint256"
        }
      ],
      "stateMutability": "view",
      "type": "function"
    },
    {
      "inputs": [],
      "name": "TX_DATA_NON_ZERO_GAS",
      "outputs": [
        {
          "internalType": "uint256",
          "name": "",
          "type": "uint256"
        }
      ],
      "stateMutability": "view",
      "type": "function"
    },
    {
      "inputs": [],
      "name": "TX_DATA_ZERO_GAS",
      "outputs": [
        {
          "internalType": "uint256",
          "name": "",
          "type": "uint256"
        }
      ],
      "stateMutability": "view",
      "type": "function"
    },
    {
      "inputs": [],
      "name": "baseRequestPrice",
      "outputs": [
        {
          "internalType": "uint256",
          "name": "",
          "type": "uint256"
        }
      ],
      "stateMutability": "view",
      "type": "function"
    },
    {
      "inputs": [
        {
          "internalType": "uint256",
          "name": "requestId",
          "type": "uint256"
        },
        {
          "internalType": "address",
          "name": "requester",
          "type": "address"
        },
        {
          "internalType": "uint256",
          "name": "round",
          "type": "uint256"
        },
        {
          "internalType": "uint256",
          "name": "callbackGasLimit",
          "type": "uint256"
        },
        {
          "internalType": "uint256[2]",
          "name": "signature",
          "type": "uint256[2]"
        }
      ],
      "name": "fulfillRandomness",
      "outputs": [],
      "stateMutability": "nonpayable",
      "type": "function"
    },
    {
      "inputs": [],
      "name": "genesisTimestamp",
      "outputs": [
        {
          "internalType": "uint256",
          "name": "",
          "type": "uint256"
        }
      ],
      "stateMutability": "view",
      "type": "function"
    },
    {
      "inputs": [],
      "name": "getPubKey",
      "outputs": [
        {
          "internalType": "uint256[4]",
          "name": "",
          "type": "uint256[4]"
        }
      ],
      "stateMutability": "view",
      "type": "function"
    },
    {
      "inputs": [
        {
          "internalType": "uint256",
          "name": "callbackGasLimit",
          "type": "uint256"
        }
      ],
      "name": "getRequestPrice",
      "outputs": [
        {
          "internalType": "uint256",
          "name": "",
          "type": "uint256"
        }
      ],
      "stateMutability": "view",
      "type": "function"
    },
    {
      "inputs": [],
      "name": "maxCallbackGasLimit",
      "outputs": [
        {
          "internalType": "uint256",
          "name": "",
          "type": "uint256"
        }
      ],
      "stateMutability": "view",
      "type": "function"
    },
    {
      "inputs": [],
      "name": "maxDeadlineDelta",
      "outputs": [
        {
          "internalType": "uint256",
          "name": "",
          "type": "uint256"
        }
      ],
      "stateMutability": "view",
      "type": "function"
    },
    {
      "inputs": [],
      "name": "nextRequestId",
      "outputs": [
        {
          "internalType": "uint256",
          "name": "",
          "type": "uint256"
        }
      ],
      "stateMutability": "view",
      "type": "function"
    },
    {
      "inputs": [],
      "name": "owner",
      "outputs": [
        {
          "internalType": "address",
          "name": "",
          "type": "address"
        }
      ],
      "stateMutability": "view",
      "type": "function"
    },
    {
      "inputs": [],
      "name": "period",
      "outputs": [
        {
          "internalType": "uint256",
          "name": "",
          "type": "uint256"
        }
      ],
      "stateMutability": "view",
      "type": "function"
    },
    {
      "inputs": [],
      "name": "publicKey0",
      "outputs": [
        {
          "internalType": "uint256",
          "name": "",
          "type": "uint256"
        }
      ],
      "stateMutability": "view",
      "type": "function"
    },
    {
      "inputs": [],
      "name": "publicKey1",
      "outputs": [
        {
          "internalType": "uint256",
          "name": "",
          "type": "uint256"
        }
      ],
      "stateMutability": "view",
      "type": "function"
    },
    {
      "inputs": [],
      "name": "publicKey2",
      "outputs": [
        {
          "internalType": "uint256",
          "name": "",
          "type": "uint256"
        }
      ],
      "stateMutability": "view",
      "type": "function"
    },
    {
      "inputs": [],
      "name": "publicKey3",
      "outputs": [
        {
          "internalType": "uint256",
          "name": "",
          "type": "uint256"
        }
      ],
      "stateMutability": "view",
      "type": "function"
    },
    {
      "inputs": [],
      "name": "renounceOwnership",
      "outputs": [],
      "stateMutability": "nonpayable",
      "type": "function"
    },
    {
      "inputs": [
        {
          "internalType": "uint256",
          "name": "deadline",
          "type": "uint256"
        },
        {
          "internalType": "uint256",
          "name": "callbackGasLimit",
          "type": "uint256"
        }
      ],
      "name": "requestRandomness",
      "outputs": [
        {
          "internalType": "uint256",
          "name": "",
          "type": "uint256"
        }
      ],
      "stateMutability": "payable",
      "type": "function"
    },
    {
      "inputs": [
        {
          "internalType": "uint256",
          "name": "requestId",
          "type": "uint256"
        }
      ],
      "name": "requests",
      "outputs": [
        {
          "internalType": "bytes32",
          "name": "",
          "type": "bytes32"
        }
      ],
      "stateMutability": "view",
      "type": "function"
    },
    {
      "inputs": [
        {
          "internalType": "uint256",
          "name": "newMaxCallbackGasLimit",
          "type": "uint256"
        }
      ],
      "name": "setMaxCallbackGasLimit",
      "outputs": [],
      "stateMutability": "nonpayable",
      "type": "function"
    },
    {
      "inputs": [
        {
          "internalType": "uint256",
          "name": "newMaxDeadlineDelta",
          "type": "uint256"
        }
      ],
      "name": "setMaxDeadlineDelta",
      "outputs": [],
      "stateMutability": "nonpayable",
      "type": "function"
    },
    {
      "inputs": [
        {
          "internalType": "uint256",
          "name": "newPrice",
          "type": "uint256"
        }
      ],
      "name": "setPrice",
      "outputs": [],
      "stateMutability": "nonpayable",
      "type": "function"
    },
    {
      "inputs": [
        {
          "internalType": "address",
          "name": "newOwner",
          "type": "address"
        }
      ],
      "name": "transferOwnership",
      "outputs": [],
      "stateMutability": "nonpayable",
      "type": "function"
    },
    {
      "inputs": [
        {
          "internalType": "uint256",
          "name": "amount",
          "type": "uint256"
        }
      ],
      "name": "withdrawETH",
      "outputs": [],
      "stateMutability": "nonpayable",
      "type": "function"
    }
  ],
  "bytecode": "0x6101406040523480156200001257600080fd5b50604051620035e3380380620035e3833981016040819052620000359162000421565b85858585858533806200006357604051631e4fbdf760e01b8152600060048201526024015b60405180910390fd5b6200006e81620001b5565b506200007a8662000205565b6200009c578560405163c7728ee960e01b81526004016200005a9190620004d2565b8551608052602086015160a052604086015160c052606086015160e052841580620000c5575083155b15620000ef57604051634b55885360e11b815260048101869052602481018590526044016200005a565b61012085905261010084905260018390556040518381527fc3d50f77154758c462c4c169109245a63ef238ce48eac8201fc45e514cdb77f29060200160405180910390a160028290556040518281527f134a3c9ab0f6f4624f16cae2e8b5ed62e867f01bae73ab143b957c2a2e6c9ee59060200160405180910390a160038190556040518181527f4bdf088aaa547d0a8b8f4aa78a191f0faf72f3bc7fddd8d39be2492d883684789060200160405180910390a150505050505050505050505062000505565b600080546001600160a01b038381166001600160a01b0319831681178455604051919092169283917f8be0079c531659141344cd1fd0a4f28419497f9722a3daafe3b4186f6b6457e09190a35050565b8051600090600080516020620035c38339815191521115806200023b57506020820151600080516020620035c383398151915211155b806200027857506040820151600080516020620035c38339815191521115806200027857506060820151600080516020620035c383398151915211155b156200028657506000919050565b620002918262000297565b92915050565b600081516020830151600080516020620035c3833981519152828309600080516020620035c38339815191528283098182830101600080516020620035c38339815191528283840108600080516020620035c38339815191528682600080516020620035c383398151915203860109935050600080516020620035c38339815191528483600080516020620035c3833981519152038301099150600080516020620035c38339815191527f2b149d40ceb8aaae81be18991be06ac3b5b4c5e559dbefa33267e6dc24a138e584089450600080516020620035c38339815191527e9713b03af0fed4cd2cafadeed8fdf4a74fa084e52d1852e4a2bd0685c315d2830893506040870151925060608701519150600080516020620035c38339815191528083600080516020620035c3833981519152038508600080516020620035c3833981519152848608099050600080516020620035c3833981519152828460011b0994149290931491909116949350505050565b634e487b7160e01b600052604160045260246000fd5b60008060008060008061012087890312156200043c57600080fd5b87601f8801126200044c57600080fd5b604051608081016001600160401b03811182821017156200047157620004716200040b565b60405280608089018a8111156200048757600080fd5b895b81811015620004a357805183526020928301920162000489565b505160a08a015160c08b015160e08c0151610100909c0151949d929c50909a9099509750919550909350505050565b60808101818360005b6004811015620004fc578151835260209283019290910190600101620004db565b50505092915050565b60805160a05160c05160e051610100516101205161302f62000594600039600081816104b701528181610bb10152610c2d01526000818161055501528181610bdd01528181610c5b0152610c850152600081816103ef0152610dec0152600081816104830152610dc601526000818161028d0152610da00152600081816105010152610d7d015261302f6000f3fe6080604052600436106101cd5760003560e01c80638da5cb5b116100f7578063cacf66ab11610095578063ef78d4fd11610064578063ef78d4fd14610543578063f14210a614610577578063f2fde38b14610597578063ff155778146105b757600080fd5b8063cacf66ab146104a5578063db1d04a7146104d9578063df41d5a6146104ef578063e3073fb71461052357600080fd5b806394aa6a4b116100d157806394aa6a4b14610411578063a073380c14610431578063aaf5eb6814610459578063b981a9111461047157600080fd5b80638da5cb5b1461038b57806391b7f5ed146103bd5780639494a3ab146103dd57600080fd5b80634ad02ef11161016f5780636a84a9851161013e5780636a84a9851461031d578063715018a6146103335780637b49e2811461034857806381d12c581461035e57600080fd5b80634ad02ef1146102af5780635f7c7522146102d15780636425de35146102f3578063667d9cbf1461030857600080fd5b806310b0d1d2116101ab57806310b0d1d2146102325780631f53cf041461025257806338e576c81461026557806340e50f281461027b57600080fd5b806307412728146101d257806308ceb389146101fa5780630bb0602c14610210575b600080fd5b3480156101de57600080fd5b506101e760fa81565b6040519081526020015b60405180910390f35b34801561020657600080fd5b506101e7613a9881565b34801561021c57600080fd5b5061023061022b366004612b94565b6105cc565b005b34801561023e57600080fd5b506101e761024d366004612be9565b61089c565b6101e7610260366004612c02565b610acf565b34801561027157600080fd5b506101e760035481565b34801561028757600080fd5b506101e77f000000000000000000000000000000000000000000000000000000000000000081565b3480156102bb57600080fd5b506102c4610d6b565b6040516101f19190612c4d565b3480156102dd57600080fd5b506102e6610e15565b6040516101f19190612c7f565b3480156102ff57600080fd5b506101e7601081565b34801561031457600080fd5b506101e7600481565b34801561032957600080fd5b506101e760045481565b34801561033f57600080fd5b50610230610e31565b34801561035457600080fd5b506101e760025481565b34801561036a57600080fd5b506101e7610379366004612be9565b60056020526000908152604090205481565b34801561039757600080fd5b506000546001600160a01b03165b6040516001600160a01b0390911681526020016101f1565b3480156103c957600080fd5b506102306103d8366004612be9565b610e45565b3480156103e957600080fd5b506101e77f000000000000000000000000000000000000000000000000000000000000000081565b34801561041d57600080fd5b5061023061042c366004612be9565b610e89565b34801561043d57600080fd5b506103a573420000000000000000000000000000000000000f81565b34801561046557600080fd5b506101e7633b9aca0081565b34801561047d57600080fd5b506101e77f000000000000000000000000000000000000000000000000000000000000000081565b3480156104b157600080fd5b506101e77f000000000000000000000000000000000000000000000000000000000000000081565b3480156104e557600080fd5b506101e760015481565b3480156104fb57600080fd5b506101e77f000000000000000000000000000000000000000000000000000000000000000081565b34801561052f57600080fd5b5061023061053e366004612be9565b610ec6565b34801561054f57600080fd5b506101e77f000000000000000000000000000000000000000000000000000000000000000081565b34801561058357600080fd5b50610230610592366004612be9565b610f03565b3480156105a357600080fd5b506102306105b2366004612cb2565b610fd8565b3480156105c357600080fd5b506101e7609681565b6105d461102f565b60408051466020808301919091523082840152606082018890526001600160a01b038716608083015260a0820186905260c08083018690528351808403909101815260e0909201835281519181019190912060008881526005909252919020548114610674576040517fa537f758000000000000000000000000000000000000000000000000000000008152600481018290526024015b60405180910390fd5b60008681526005602090815260408083208390558051828152808201909152906020820181803683375050506000868152600860182060208301529091506106ba610d6b565b905060006106e06040518060600160405280602b8152602001612fcf602b91398461106c565b6040805180820182529192506000916107119188906002908390839080828437600092019190915250611125915050565b905060008061074b886002806020026040519081016040528092919082600260200280828437600092019190915250889150879050611173565b9150915082158061075a575081155b80610763575080155b156107a0578484896040517fb8cf7d3000000000000000000000000000000000000000000000000000000000815260040161066b93929190612cd4565b604080516001808252818301909252600091602080830190803683375050604080518c356020808301919091528d0135918101919091529192505060600160408051601f1981840301815282825280516020918201209083015281018e90526001600160a01b038d1660608201526080016040516020818303038152906040528051906020012060001c8160008151811061083d5761083d612d1d565b6020026020010181815250506108558a8d8f8461132a565b8c7f67578974dcd1e9cdb0ebe63163f817c9866d397c48bc125393551f78f33b515f826040516108859190612d6f565b60405180910390a250505050505050505050505050565b60008073420000000000000000000000000000000000000f6001600160a01b0316630c18c1626040518163ffffffff1660e01b8152600401602060405180830381865afa1580156108f1573d6000803e3d6000fd5b505050506040513d601f19601f820116820180604052508101906109159190612d82565b9050600073420000000000000000000000000000000000000f6001600160a01b031663519b4bd36040518163ffffffff1660e01b8152600401602060405180830381865afa15801561096b573d6000803e3d6000fd5b505050506040513d601f19601f8201168201806040525081019061098f9190612d82565b9050600073420000000000000000000000000000000000000f6001600160a01b031663f45e65d86040518163ffffffff1660e01b8152600401602060405180830381865afa1580156109e5573d6000803e3d6000fd5b505050506040513d601f19601f82011682018060405250810190610a099190612d82565b905060006010610a1b60fa6004612db1565b610a259190612dc4565b610a3160046096612dc4565b610a3b9190612db1565b90506000633b9aca008385610a508886612db1565b610a5a9190612dc4565b610a649190612dc4565b610a6e9190612df1565b905060003a610a808962030d40612db1565b610a8a9190612dc4565b90506000612710613a98610a9e8585612db1565b610aa89190612dc4565b610ab29190612df1565b905080600154610ac29190612db1565b9998505050505050505050565b6000610ad961102f565b6000610ae48361089c565b905080341015610b29576040517f0d35e9210000000000000000000000000000000000000000000000000000000081523460048201526024810182905260440161066b565b600254831115610b68576040517f45453f370000000000000000000000000000000000000000000000000000000081526004810184905260240161066b565b600354610b759042612db1565b841115610b98576040516309decb5d60e21b81526004810185905260240161066b565b600480549081906000610baa83612e05565b91905055507f0000000000000000000000000000000000000000000000000000000000000000851080610c055750610c027f000000000000000000000000000000000000000000000000000000000000000042612db1565b85105b15610c26576040516309decb5d60e21b81526004810186905260240161066b565b6000610c527f000000000000000000000000000000000000000000000000000000000000000087612e1e565b90506000610c807f000000000000000000000000000000000000000000000000000000000000000083612e31565b610caa7f000000000000000000000000000000000000000000000000000000000000000084612df1565b610cb49190612db1565b6040805146602080830191909152308284015260608201879052336080830181905267ffffffffffffffff851660a0840181905260c08085018d90528551808603909101815260e0850180875281519185019190912060008b81526005909552938690209390935591526101008201526101208101899052905191925084917f6775f2f8aa96193c5eddac656fc6dc3b43ab68287b6d7da3693579d1fe620d9d918190036101400190a25090925050505b92915050565b610d73612b23565b610d7b612b23565b7f000000000000000000000000000000000000000000000000000000000000000081527f000000000000000000000000000000000000000000000000000000000000000060208201527f000000000000000000000000000000000000000000000000000000000000000060408201527f00000000000000000000000000000000000000000000000000000000000000006060820152919050565b6040518060600160405280602b8152602001612fcf602b913981565b610e396113b7565b610e4360006113fd565b565b610e4d6113b7565b60018190556040518181527fc3d50f77154758c462c4c169109245a63ef238ce48eac8201fc45e514cdb77f2906020015b60405180910390a150565b610e916113b7565b60028190556040518181527f134a3c9ab0f6f4624f16cae2e8b5ed62e867f01bae73ab143b957c2a2e6c9ee590602001610e7e565b610ece6113b7565b60038190556040518181527f4bdf088aaa547d0a8b8f4aa78a191f0faf72f3bc7fddd8d39be2492d8836847890602001610e7e565b610f0b6113b7565b80600003610f165750475b604051600090339083908381818185875af1925050503d8060008114610f58576040519150601f19603f3d011682016040523d82523d6000602084013e610f5d565b606091505b5050905080610fa1576040517f1c43b9760000000000000000000000000000000000000000000000000000000081523360048201526024810183905260440161066b565b6040518281527f043f607a14d3b4f0a11a0b2e192bbfcd894298ba5abf22553be6081406db28aa9060200160405180910390a15050565b610fe06113b7565b6001600160a01b038116611023576040517f1e4fbdf70000000000000000000000000000000000000000000000000000000081526000600482015260240161066b565b61102c816113fd565b50565b60065460ff1615610e43576040517fed3ba6a600000000000000000000000000000000000000000000000000000000815260040160405180910390fd5b611074612b41565b60006110808484611465565b9050600061109482825b6020020151611553565b905060006110a383600161108a565b90506110ad612b23565b825181526020808401518282015282516040808401919091529083015160608301526000908460808460066107d05a03fa90508061111957816040517f128e3f0800000000000000000000000000000000000000000000000000000000815260040161066b9190612c4d565b50919695505050505050565b8051600090600080516020612faf83398151915211158061115857506020820151600080516020612faf83398151915211155b1561116557506000919050565b610d6582611891565b919050565b60008060006040518061018001604052808760006002811061119757611197612d1d565b60200201518152602001876001600281106111b4576111b4612d1d565b602002015181526020017f198e9393920d483a7260bfb731fb5d25f1aa493335a9e71297e485b7aef312c281526020017f1800deef121f1e76426a00665e5c4479674322d4f75edadd46debd5cd992f6ed81526020017f275dc4a288d1afb3cbb1ac09187524c7db36395df7be3b99e673b13a075a65ec81526020017f1d9befcd05a5323e6da4d435f3b617cdb3af83285c2df711ef39c01571827f9d81526020018560006002811061126957611269612d1d565b602002015181526020018560016002811061128657611286612d1d565b60200201518152602001866001600481106112a3576112a3612d1d565b60200201518152602001866000600481106112c0576112c0612d1d565b60200201518152602001866003600481106112dd576112dd612d1d565b60200201518152602001866002600481106112fa576112fa612d1d565b60200201519052905061130b612b5f565b6020816101808460086107d05a03fa9051151597909650945050505050565b6006805460ff191660011790556040516113a690859085907fa0c4615c00000000000000000000000000000000000000000000000000000000906113749087908790602001612e45565b60408051601f19818403018152908290526113929291602001612e66565b6040516020818303038152906040526118f0565b50506006805460ff19169055505050565b6000546001600160a01b03163314610e43576040517f118cdaa700000000000000000000000000000000000000000000000000000000815233600482015260240161066b565b600080546001600160a01b038381167fffffffffffffffffffffffff0000000000000000000000000000000000000000831681178455604051919092169283917f8be0079c531659141344cd1fd0a4f28419497f9722a3daafe3b4186f6b6457e09190a35050565b61146d612b41565b6000611479848461193c565b90506000806000806018850177ffffffffffffffffffffffffffffffffffffffffffffffff815116935060308601905077ffffffffffffffffffffffffffffffffffffffffffffffff8151169450600080516020612faf83398151915285600080516020612faf833981519152600160c01b8709086048870151606088015177ffffffffffffffffffffffffffffffffffffffffffffffff90811697501694509250600080516020612faf83398151915290508481600160c01b860908604080518082019091529283526020830152509695505050505050565b61155b612b41565b600080516020612faf83398151915282106115a5576040517fd53e94150000000000000000000000000000000000000000000000000000000081526004810183905260240161066b565b6000600080516020612faf8339815191526004600080516020612faf8339815191528586090990506000600080516020612faf833981519152826001089050600080516020612faf83398151915261160b83600080516020612faf833981519152612e1e565b6001089150600061162c600080516020612faf833981519152838509611ab5565b90506000600080516020612faf83398151915278016789af3a83522eb353c98fc6b36d713d5d8d1cc5dffffffa600080516020612faf83398151915284600080516020612faf833981519152888b09090990506000600080516020612faf8339815191526116a883600080516020612faf833981519152612e1e565b7f183227397098d014dc2822db40c0ac2ecbc0b548b438e5469e10460b6c3e7ea30890506000600080516020612faf833981519152837f183227397098d014dc2822db40c0ac2ecbc0b548b438e5469e10460b6c3e7ea30890506000600080516020612faf83398151915286870990506000600080516020612faf83398151915286830990506000600080516020612faf83398151915280600080516020612faf8339815191528485097f10216f7ba065e00de81ac1e7808072c9dd2b2385cd7b438469602eb24829a9bd09600108905060008061178d61178888611ac0565b611afd565b60000b6001036117de57868c526117a387611ac0565b90506117ae81611b65565b60208e01919091529150816117d95760405163396ec77160e01b81526004810182905260240161066b565b611842565b6117ea61178887611ac0565b60000b60010361180057858c526117a386611ac0565b828c5261180c83611ac0565b905061181781611b65565b60208e01919091529150816118425760405163396ec77160e01b81526004810182905260240161066b565b60208c015161185090611b8e565b6118598e611b8e565b146118815760208c015161187b90600080516020612faf833981519152612e1e565b60208d01525b5050505050505050505050919050565b600081516020830151600080516020612faf833981519152828309600080516020612faf8339815191528382099050600080516020612faf833981519152600382089050600080516020612faf83398151915282830914949350505050565b60005a61138881101561190257600080fd5b61138881039050846040820482031161191a57600080fd5b50823b61192657600080fd5b60008083516020850160008789f1949350505050565b815160609060ff81111561197e57836040517f26e4f9ba00000000000000000000000000000000000000000000000000000000815260040161066b9190612c7f565b60408051608880825260c08201909252600091602082018180368337019050509050600081856000606060008a886040516020016119c29796959493929190612eae565b6040516020818303038152906040529050600081805190602001209050600081600189876040516020016119f99493929190612f4c565b60408051808303601f190181528282528051602082012060608085526080850190935290935091600091602082018180368337019050509050600360015b81811015611a9757858418611a4d826001612db1565b8d8b604051602001611a629493929190612f4c565b60408051808303601f190181529190526020600019830181028501810195909552805194810194909420939450600101611a37565b50600019016020908102820101919091529550505050505092915050565b6000610d6582611b9b565b6000600080516020612faf8339815191526003600080516020612faf83398151915284600080516020612faf833981519152868709090892915050565b600080611b09836122e2565b9050611b246001600080516020612faf833981519152612e1e565b8103611b34575060001992915050565b8015801590611b44575080600114155b15610d655760405163396ec77160e01b81526004810184905260240161066b565b600080611b71836123ee565b915082600080516020612faf833981519152838409149050915091565b6000610d65600283612e31565b6000600080516020612faf8339815191528083840991508083830981838209828283098385830984848309858484098684850997508684840987858409945087898a09985087898a09985087898a09985087898a09985087898a09985087878a09985087898a09985087898a09985087898a099850878a8a09985087898a09985087898a09985087898a09985087898a099850878a8a09985087898a09985087898a09985087898a09985087898a09985087898a09985087848a09985087898a09985087898a09985087898a09985087898a09985087898a09985087848a09985087898a09985087898a09985087898a099850878a8a09985087898a09985087898a09985087898a09985087898a09985087848a09985087898a09985087898a09985087898a09985087898a09985087898a099850878a8a09985087898a09985087898a09985087898a09985087898a09985087878a09985087898a09985087898a09985087898a09985087898a09985087898a09985087898a09985087898a09985087818a09985087898a09985087898a09985087898a09985087898a09985087898a09985087898a09985087898a09985087898a09985087898a09985087898a09985087868a09985087898a09985087898a09985087898a09985087898a09985087878a09985087898a09985087898a09985087898a09985087898a09985087848a09985087898a09985087898a09985087898a09985087898a09985087898a09985087898a09985087898a09985087868a09985087898a09985087898a09985087898a09985087898a09985087898a09985087898a099850878a8a09985087898a09985087898a09985087898a09985087898a09985087898a09985087898a09985087898a09985087828a09985087898a09985087898a09985087898a09985087898a09985087898a09985087818a09985087898a09985087898a09985087898a09985087868a09985087898a09985087898a09985087898a09985087898a09985087898a09985087898a09985087898a09985087898a09985087878a09985087898a09985087898a09985087898a09985087898a09985087898a09985087898a09985087898a09985087898a09985087898a09985087868a09985087898a09985087898a09985087898a09985087878a09985087898a09985087898a09985087898a09985087898a09985087898a09985087898a09985087898a09985087898a09985087828a09985087898a09985087898a09985087898a09985087898a09985087828a09985087898a09985087898a09985087898a09985087898a09985087898a09985087868a09985087898a09985087898a09985087898a09985087848a09985087898a09985087898a09985087898a09985087898a09985087898a09985087898a09985087898a09985087898a09985087898a09985087898a09985087828a09985087898a09985087898a09985087898a09985087898a09985087868a09985087898a09985087898a09985087898a09985087898a09985087898a09985087838a09985087898a09985087898a09985087898a09985087898a09985087898a09985087898a09985087898a09985087828a09985087898a09985087898a099850878a8a09985087898a09985087898a09985087898a09985087898a09985087898a09985087898a09985087898a09985087848a09985087898a09985087898a09985087898a09985087898a09985087898a09985087898a09985087848a09985087898a09985087898a09985087898a09985087898a09985087898a09985087868a09985087898a09985087898a099850878a8a09985087898a09985087898a09985087898a09985087898a09985087898a09985087898a09985087898a09985087818a09985050868889099750868889099750868889099750868889099750868889099750868889099750868489099750868889099750868889099750868889099750868889099750868889099750868989099750868889099750868889099750868889099750868889099750868889099750868889099750868989099750868889099750868889099750868889099750868889099750868889099750868689099750868889099750868889099750868889099750868889099750868889099750868889099750868889099750868889099750868889099750868189099750508587880996508587880996508587880996508585880996508587880996508587880996508587880996508585880996508587880996508587880996508587880996508587880996508587880996508587880996508587880996508587880996508583880996508587880996508587880996508587880996508587880996508581880996505050838586099450838586099450838586099450838586099450838186099450508284850993508284850993508284850993508281850993508284850993508284850993508285850993508284850993508284850993508284850993508284850993508284850993508284850993508281850995945050505050565b6040805160c080825260e082019092526000918291906020820181803683370190505060208082018181526040830182905260608301829052608083018690527f183227397098d014dc2822db40c0ac2ecbc0b548b438e5469e10460b6c3e7ea360a0840152600080516020612faf83398151915260c080850191909152929350600092839160055afa90506000519250806123e7576040517fc6daf7ab000000000000000000000000000000000000000000000000000000008152600481018590527f183227397098d014dc2822db40c0ac2ecbc0b548b438e5469e10460b6c3e7ea36024820152600080516020612faf833981519152604482015260640161066b565b5050919050565b6000600080516020612faf8339815191528083840991508083830981838209828283098385830984848309858484098684850997508684840987858409945087898a09985087898a09985087898a09985087898a09985087898a09985087878a09985087898a09985087898a09985087898a099850878a8a09985087898a09985087898a09985087898a09985087898a099850878a8a09985087898a09985087898a09985087898a09985087898a09985087898a09985087848a09985087898a09985087898a09985087898a09985087898a09985087898a09985087848a09985087898a09985087898a09985087898a099850878a8a09985087898a09985087898a09985087898a09985087898a09985087848a09985087898a09985087898a09985087898a09985087898a09985087898a099850878a8a09985087898a09985087898a09985087898a09985087898a09985087878a09985087898a09985087898a09985087898a09985087898a09985087898a09985087898a09985087898a09985087818a09985087898a09985087898a09985087898a09985087898a09985087898a09985087898a09985087898a09985087898a09985087898a09985087898a09985087868a09985087898a09985087898a09985087898a09985087898a09985087878a09985087898a09985087898a09985087898a09985087898a09985087848a09985087898a09985087898a09985087898a09985087898a09985087898a09985087898a09985087898a09985087868a09985087898a09985087898a09985087898a09985087898a09985087898a09985087898a099850878a8a09985087898a09985087898a09985087898a09985087898a09985087898a09985087898a09985087898a09985087828a09985087898a09985087898a09985087898a09985087898a09985087898a09985087818a09985087898a09985087898a09985087898a09985087868a09985087898a09985087898a09985087898a09985087898a09985087898a09985087898a09985087898a09985087898a09985087878a09985087898a09985087898a09985087898a09985087898a09985087898a09985087898a09985087898a09985087898a09985087898a09985087868a09985087898a09985087898a09985087898a09985087878a09985087898a09985087898a09985087898a09985087898a09985087898a09985087898a09985087898a09985087898a09985087828a09985087898a09985087898a09985087898a09985087898a09985087828a09985087898a09985087898a09985087898a09985087898a09985087898a09985087868a09985087898a09985087898a09985087898a09985087848a09985087898a09985087898a09985087898a09985087898a09985087898a09985087898a09985087898a09985087898a09985087898a09985087898a09985087828a09985087898a09985087898a09985087898a09985087898a09985087868a09985087898a09985087898a09985087898a09985087898a09985087898a09985087838a09985087898a09985087898a09985087898a09985087898a09985087898a09985087898a09985087898a09985087828a09985087898a09985087898a099850878a8a09985087898a09985087898a09985087898a09985087898a09985087898a09985087898a09985087898a09985087848a09985087898a09985087898a09985087898a09985087898a09985087898a09985087898a09985087848a09985087898a09985087898a09985087898a09985087898a09985087898a09985087868a09985087898a09985087898a099850878a8a09985087898a09985087898a09985087898a09985087898a09985087898a09985087898a09985087898a09985087818a09985050868889099750868889099750868889099750868889099750868889099750868889099750868489099750868889099750868889099750868889099750868889099750868889099750868989099750868889099750868889099750868889099750868889099750868889099750868889099750868989099750868889099750868889099750868889099750868889099750868889099750868689099750868889099750868889099750868889099750868889099750868889099750868889099750868889099750868889099750868889099750868189099750508587880996508587880996508587880996508585880996508587880996508587880996508587880996508585880996508587880996508587880996508587880996508587880996508587880996508587880996508587880996508587880996508583880996508587880996508587880996508587880996508587880996508581880996508587880996508587880996508587880996508587880996508583880996508587880996508587880996508587880996508584880996508587880996508587880996508587880996508587880996508587880996508581880996505050505050808283099392505050565b60405180608001604052806004906020820280368337509192915050565b60405180604001604052806002906020820280368337509192915050565b60405180602001604052806001906020820280368337509192915050565b80356001600160a01b038116811461116e57600080fd5b600080600080600060c08688031215612bac57600080fd5b85359450612bbc60208701612b7d565b935060408601359250606086013591508660c087011115612bdc57600080fd5b5092959194509260800190565b600060208284031215612bfb57600080fd5b5035919050565b60008060408385031215612c1557600080fd5b50508035926020909101359150565b8060005b6004811015612c47578151845260209384019390910190600101612c28565b50505050565b60808101610d658284612c24565b60005b83811015612c76578181015183820152602001612c5e565b50506000910152565b6020815260008251806020840152612c9e816040850160208701612c5b565b601f01601f19169190910160400192915050565b600060208284031215612cc457600080fd5b612ccd82612b7d565b9392505050565b6101008101612ce38286612c24565b608082018460005b6002811015612d0a578151835260209283019290910190600101612ceb565b50505060408360c0840137949350505050565b634e487b7160e01b600052603260045260246000fd5b60008151808452602080850194506020840160005b83811015612d6457815187529582019590820190600101612d48565b509495945050505050565b602081526000612ccd6020830184612d33565b600060208284031215612d9457600080fd5b5051919050565b634e487b7160e01b600052601160045260246000fd5b80820180821115610d6557610d65612d9b565b8082028115828204841417610d6557610d65612d9b565b634e487b7160e01b600052601260045260246000fd5b600082612e0057612e00612ddb565b500490565b600060018201612e1757612e17612d9b565b5060010190565b81810381811115610d6557610d65612d9b565b600082612e4057612e40612ddb565b500690565b828152604060208201526000612e5e6040830184612d33565b949350505050565b7fffffffff000000000000000000000000000000000000000000000000000000008316815260008251612ea0816004850160208701612c5b565b919091016004019392505050565b60008851612ec0818460208d01612c5b565b885190830190612ed4818360208d01612c5b565b8082019150507fff00000000000000000000000000000000000000000000000000000000000000808960f81b168252808860f81b166001830152808760f81b1660028301528551612f2c816003850160208a01612c5b565b60f89590951b169301600381019390935250506004019695505050505050565b84815260007fff00000000000000000000000000000000000000000000000000000000000000808660f81b1660208401528451612f90816021860160208901612c5b565b60f89490941b1691909201602181019190915260220194935050505056fe30644e72e131a029b85045b68181585d97816a916871ca8d3c208c16d87cfd47424c535f5349475f424e32353447315f584d443a4b454343414b2d3235365f535357555f524f5f4e554c5fa2646970667358221220eb6f97b831046c017fe0f744412acd606082ade635cc09e633dd3b5e1282170264736f6c6343000817003330644e72e131a029b85045b68181585d97816a916871ca8d3c208c16d87cfd47",
  "linkReferences": {},
  "deployedLinkReferences": {}
}