{
  "_format": "hh-sol-artifact-1",
  "contractName": "Anyrand",
  "sourceName": "contracts/Anyrand.sol",
  "abi": [
    {
      "inputs": [
        {
          "internalType": "uint256[4]",
          "name": "publicKey_",
          "type": "uint256[4]"
        },
        {
          "internalType": "uint256",
          "name": "genesisTimestamp_",
          "type": "uint256"
        },
        {
          "internalType": "uint256",
          "name": "period_",
          "type": "uint256"
        },
        {
          "internalType": "uint256",
          "name": "initialRequestPrice",
          "type": "uint256"
        },
        {
          "internalType": "uint256",
          "name": "maxCallbackGasLimit_",
          "type": "uint256"
        },
        {
          "internalType": "uint256",
          "name": "maxDeadlineDelta_",
          "type": "uint256"
        }
      ],
      "stateMutability": "nonpayable",
      "type": "constructor"
    },
    {
      "inputs": [
        {
          "internalType": "uint256[4]",
          "name": "input",
          "type": "uint256[4]"
        }
      ],
      "name": "BNAddFailed",
      "type": "error"
    },
    {
      "inputs": [
        {
          "internalType": "uint256",
          "name": "got",
          "type": "uint256"
        },
        {
          "internalType": "uint256",
          "name": "want",
          "type": "uint256"
        }
      ],
      "name": "IncorrectPayment",
      "type": "error"
    },
    {
      "inputs": [],
      "name": "InsufficientGas",
      "type": "error"
    },
    {
      "inputs": [
        {
          "internalType": "uint256",
          "name": "genesisTimestamp",
          "type": "uint256"
        },
        {
          "internalType": "uint256",
          "name": "period",
          "type": "uint256"
        }
      ],
      "name": "InvalidBeaconConfiguration",
      "type": "error"
    },
    {
      "inputs": [
        {
          "internalType": "bytes",
          "name": "dst",
          "type": "bytes"
        }
      ],
      "name": "InvalidDSTLength",
      "type": "error"
    },
    {
      "inputs": [
        {
          "internalType": "uint256",
          "name": "deadline",
          "type": "uint256"
        }
      ],
      "name": "InvalidDeadline",
      "type": "error"
    },
    {
      "inputs": [
        {
          "internalType": "uint256",
          "name": "x",
          "type": "uint256"
        }
      ],
      "name": "InvalidFieldElement",
      "type": "error"
    },
    {
      "inputs": [
        {
          "internalType": "uint256[4]",
          "name": "pubKey",
          "type": "uint256[4]"
        }
      ],
      "name": "InvalidPublicKey",
      "type": "error"
    },
    {
      "inputs": [
        {
          "internalType": "bytes32",
          "name": "requestHash",
          "type": "bytes32"
        }
      ],
      "name": "InvalidRequestHash",
      "type": "error"
    },
    {
      "inputs": [
        {
          "internalType": "uint256[4]",
          "name": "pubKey",
          "type": "uint256[4]"
        },
        {
          "internalType": "uint256[2]",
          "name": "message",
          "type": "uint256[2]"
        },
        {
          "internalType": "uint256[2]",
          "name": "signature",
          "type": "uint256[2]"
        }
      ],
      "name": "InvalidSignature",
      "type": "error"
    },
    {
      "inputs": [
        {
          "internalType": "uint256",
          "name": "noSqrt",
          "type": "uint256"
        }
      ],
      "name": "MapToPointFailed",
      "type": "error"
    },
    {
      "inputs": [
        {
          "internalType": "uint256",
          "name": "base",
          "type": "uint256"
        },
        {
          "internalType": "uint256",
          "name": "exponent",
          "type": "uint256"
        },
        {
          "internalType": "uint256",
          "name": "modulus",
          "type": "uint256"
        }
      ],
      "name": "ModExpFailed",
      "type": "error"
    },
    {
      "inputs": [
        {
          "internalType": "uint256",
          "name": "callbackGasLimit",
          "type": "uint256"
        }
      ],
      "name": "OverGasLimit",
      "type": "error"
    },
    {
      "inputs": [
        {
          "internalType": "address",
          "name": "owner",
          "type": "address"
        }
      ],
      "name": "OwnableInvalidOwner",
      "type": "error"
    },
    {
      "inputs": [
        {
          "internalType": "address",
          "name": "account",
          "type": "address"
        }
      ],
      "name": "OwnableUnauthorizedAccount",
      "type": "error"
    },
    {
      "inputs": [],
      "name": "Reentrant",
      "type": "error"
    },
    {
      "inputs": [
        {
          "internalType": "address",
          "name": "to",
          "type": "address"
        },
        {
          "internalType": "uint256",
          "name": "value",
          "type": "uint256"
        }
      ],
      "name": "TransferFailed",
      "type": "error"
    },
    {
      "anonymous": false,
      "inputs": [
        {
          "indexed": false,
          "internalType": "uint256",
          "name": "amount",
          "type": "uint256"
        }
      ],
      "name": "ETHWithdrawn",
      "type": "event"
    },
    {
      "anonymous": false,
      "inputs": [
        {
          "indexed": false,
          "internalType": "uint256",
          "name": "newMaxCallbackGasLimit",
          "type": "uint256"
        }
      ],
      "name": "MaxCallbackGasLimitUpdated",
      "type": "event"
    },
    {
      "anonymous": false,
      "inputs": [
        {
          "indexed": false,
          "internalType": "uint256",
          "name": "maxDeadlineDelta",
          "type": "uint256"
        }
      ],
      "name": "MaxDeadlineDeltaUpdated",
      "type": "event"
    },
    {
      "anonymous": false,
      "inputs": [
        {
          "indexed": true,
          "internalType": "address",
          "name": "previousOwner",
          "type": "address"
        },
        {
          "indexed": true,
          "internalType": "address",
          "name": "newOwner",
          "type": "address"
        }
      ],
      "name": "OwnershipTransferred",
      "type": "event"
    },
    {
      "anonymous": false,
      "inputs": [
        {
          "indexed": true,
          "internalType": "uint256",
          "name": "requestId",
          "type": "uint256"
        },
        {
          "indexed": false,
          "internalType": "uint256[]",
          "name": "randomWords",
          "type": "uint256[]"
        }
      ],
      "name": "RandomnessFulfilled",
      "type": "event"
    },
    {
      "anonymous": false,
      "inputs": [
        {
          "indexed": true,
          "internalType": "uint256",
          "name": "requestId",
          "type": "uint256"
        },
        {
          "indexed": false,
          "internalType": "address",
          "name": "requester",
          "type": "address"
        },
        {
          "indexed": false,
          "internalType": "uint256",
          "name": "round",
          "type": "uint256"
        },
        {
          "indexed": false,
          "internalType": "uint256",
          "name": "callbackGasLimit",
          "type": "uint256"
        }
      ],
      "name": "RandomnessRequested",
      "type": "event"
    },
    {
      "anonymous": false,
      "inputs": [
        {
          "indexed": false,
          "internalType": "uint256",
          "name": "newPrice",
          "type": "uint256"
        }
      ],
      "name": "RequestPriceUpdated",
      "type": "event"
    },
    {
      "inputs": [],
      "name": "DST",
      "outputs": [
        {
          "internalType": "bytes",
          "name": "",
          "type": "bytes"
        }
      ],
      "stateMutability": "view",
      "type": "function"
    },
    {
      "inputs": [],
      "name": "baseRequestPrice",
      "outputs": [
        {
          "internalType": "uint256",
          "name": "",
          "type": "uint256"
        }
      ],
      "stateMutability": "view",
      "type": "function"
    },
    {
      "inputs": [
        {
          "internalType": "uint256",
          "name": "requestId",
          "type": "uint256"
        },
        {
          "internalType": "address",
          "name": "requester",
          "type": "address"
        },
        {
          "internalType": "uint256",
          "name": "round",
          "type": "uint256"
        },
        {
          "internalType": "uint256",
          "name": "callbackGasLimit",
          "type": "uint256"
        },
        {
          "internalType": "uint256[2]",
          "name": "signature",
          "type": "uint256[2]"
        }
      ],
      "name": "fulfillRandomness",
      "outputs": [],
      "stateMutability": "nonpayable",
      "type": "function"
    },
    {
      "inputs": [],
      "name": "genesisTimestamp",
      "outputs": [
        {
          "internalType": "uint256",
          "name": "",
          "type": "uint256"
        }
      ],
      "stateMutability": "view",
      "type": "function"
    },
    {
      "inputs": [],
      "name": "getPubKey",
      "outputs": [
        {
          "internalType": "uint256[4]",
          "name": "",
          "type": "uint256[4]"
        }
      ],
      "stateMutability": "view",
      "type": "function"
    },
    {
      "inputs": [
        {
          "internalType": "uint256",
          "name": "callbackGasLimit",
          "type": "uint256"
        }
      ],
      "name": "getRequestPrice",
      "outputs": [
        {
          "internalType": "uint256",
          "name": "",
          "type": "uint256"
        }
      ],
      "stateMutability": "view",
      "type": "function"
    },
    {
      "inputs": [],
      "name": "maxCallbackGasLimit",
      "outputs": [
        {
          "internalType": "uint256",
          "name": "",
          "type": "uint256"
        }
      ],
      "stateMutability": "view",
      "type": "function"
    },
    {
      "inputs": [],
      "name": "maxDeadlineDelta",
      "outputs": [
        {
          "internalType": "uint256",
          "name": "",
          "type": "uint256"
        }
      ],
      "stateMutability": "view",
      "type": "function"
    },
    {
      "inputs": [],
      "name": "nextRequestId",
      "outputs": [
        {
          "internalType": "uint256",
          "name": "",
          "type": "uint256"
        }
      ],
      "stateMutability": "view",
      "type": "function"
    },
    {
      "inputs": [],
      "name": "owner",
      "outputs": [
        {
          "internalType": "address",
          "name": "",
          "type": "address"
        }
      ],
      "stateMutability": "view",
      "type": "function"
    },
    {
      "inputs": [],
      "name": "period",
      "outputs": [
        {
          "internalType": "uint256",
          "name": "",
          "type": "uint256"
        }
      ],
      "stateMutability": "view",
      "type": "function"
    },
    {
      "inputs": [],
      "name": "publicKey0",
      "outputs": [
        {
          "internalType": "uint256",
          "name": "",
          "type": "uint256"
        }
      ],
      "stateMutability": "view",
      "type": "function"
    },
    {
      "inputs": [],
      "name": "publicKey1",
      "outputs": [
        {
          "internalType": "uint256",
          "name": "",
          "type": "uint256"
        }
      ],
      "stateMutability": "view",
      "type": "function"
    },
    {
      "inputs": [],
      "name": "publicKey2",
      "outputs": [
        {
          "internalType": "uint256",
          "name": "",
          "type": "uint256"
        }
      ],
      "stateMutability": "view",
      "type": "function"
    },
    {
      "inputs": [],
      "name": "publicKey3",
      "outputs": [
        {
          "internalType": "uint256",
          "name": "",
          "type": "uint256"
        }
      ],
      "stateMutability": "view",
      "type": "function"
    },
    {
      "inputs": [],
      "name": "renounceOwnership",
      "outputs": [],
      "stateMutability": "nonpayable",
      "type": "function"
    },
    {
      "inputs": [
        {
          "internalType": "uint256",
          "name": "deadline",
          "type": "uint256"
        },
        {
          "internalType": "uint256",
          "name": "callbackGasLimit",
          "type": "uint256"
        }
      ],
      "name": "requestRandomness",
      "outputs": [
        {
          "internalType": "uint256",
          "name": "",
          "type": "uint256"
        }
      ],
      "stateMutability": "payable",
      "type": "function"
    },
    {
      "inputs": [
        {
          "internalType": "uint256",
          "name": "requestId",
          "type": "uint256"
        }
      ],
      "name": "requests",
      "outputs": [
        {
          "internalType": "bytes32",
          "name": "",
          "type": "bytes32"
        }
      ],
      "stateMutability": "view",
      "type": "function"
    },
    {
      "inputs": [
        {
          "internalType": "uint256",
          "name": "newMaxCallbackGasLimit",
          "type": "uint256"
        }
      ],
      "name": "setMaxCallbackGasLimit",
      "outputs": [],
      "stateMutability": "nonpayable",
      "type": "function"
    },
    {
      "inputs": [
        {
          "internalType": "uint256",
          "name": "newMaxDeadlineDelta",
          "type": "uint256"
        }
      ],
      "name": "setMaxDeadlineDelta",
      "outputs": [],
      "stateMutability": "nonpayable",
      "type": "function"
    },
    {
      "inputs": [
        {
          "internalType": "uint256",
          "name": "newPrice",
          "type": "uint256"
        }
      ],
      "name": "setPrice",
      "outputs": [],
      "stateMutability": "nonpayable",
      "type": "function"
    },
    {
      "inputs": [
        {
          "internalType": "address",
          "name": "newOwner",
          "type": "address"
        }
      ],
      "name": "transferOwnership",
      "outputs": [],
      "stateMutability": "nonpayable",
      "type": "function"
    },
    {
      "inputs": [
        {
          "internalType": "uint256",
          "name": "amount",
          "type": "uint256"
        }
      ],
      "name": "withdrawETH",
      "outputs": [],
      "stateMutability": "nonpayable",
      "type": "function"
    }
  ],
  "bytecode": "0x6101406040523480156200001257600080fd5b50604051620032b5380380620032b5833981016040819052620000359162000415565b33806200005d57604051631e4fbdf760e01b8152600060048201526024015b60405180910390fd5b6200006881620001a9565b506200007486620001f9565b62000096578560405163c7728ee960e01b8152600401620000549190620004c6565b8551608052602086015160a052604086015160c052606086015160e052841580620000bf575083155b15620000e957604051634b55885360e11b8152600481018690526024810185905260440162000054565b61012085905261010084905260018390556040518381527fc3d50f77154758c462c4c169109245a63ef238ce48eac8201fc45e514cdb77f29060200160405180910390a160028290556040518281527f134a3c9ab0f6f4624f16cae2e8b5ed62e867f01bae73ab143b957c2a2e6c9ee59060200160405180910390a160038190556040518181527f4bdf088aaa547d0a8b8f4aa78a191f0faf72f3bc7fddd8d39be2492d883684789060200160405180910390a1505050505050620004f9565b600080546001600160a01b038381166001600160a01b0319831681178455604051919092169283917f8be0079c531659141344cd1fd0a4f28419497f9722a3daafe3b4186f6b6457e09190a35050565b8051600090600080516020620032958339815191521115806200022f575060208201516000805160206200329583398151915211155b806200026c57506040820151600080516020620032958339815191521115806200026c575060608201516000805160206200329583398151915211155b156200027a57506000919050565b62000285826200028b565b92915050565b60008151602083015160008051602062003295833981519152828309600080516020620032958339815191528283098182830101600080516020620032958339815191528283840108600080516020620032958339815191528682600080516020620032958339815191520386010993505060008051602062003295833981519152848360008051602062003295833981519152038301099150600080516020620032958339815191527f2b149d40ceb8aaae81be18991be06ac3b5b4c5e559dbefa33267e6dc24a138e584089450600080516020620032958339815191527e9713b03af0fed4cd2cafadeed8fdf4a74fa084e52d1852e4a2bd0685c315d2830893506040870151925060608701519150600080516020620032958339815191528083600080516020620032958339815191520385086000805160206200329583398151915284860809905060008051602062003295833981519152828460011b0994149290931491909116949350505050565b634e487b7160e01b600052604160045260246000fd5b60008060008060008061012087890312156200043057600080fd5b87601f8801126200044057600080fd5b604051608081016001600160401b0381118282101715620004655762000465620003ff565b60405280608089018a8111156200047b57600080fd5b895b81811015620004975780518352602092830192016200047d565b505160a08a015160c08b015160e08c0151610100909c0151949d929c50909a9099509750919550909350505050565b60808101818360005b6004811015620004f0578151835260209283019290910190600101620004cf565b50505092915050565b60805160a05160c05160e0516101005161012051612d0d62000588600039600081816103cb015281816108aa0152610926015260008181610469015281816108d601528181610954015261097e0152600081816103430152610ae30152600081816103970152610abd0152600081816102150152610a970152600081816104150152610a740152612d0d6000f3fe6080604052600436106101805760003560e01c80638da5cb5b116100d6578063db1d04a71161007f578063ef78d4fd11610059578063ef78d4fd14610457578063f14210a61461048b578063f2fde38b146104ab57600080fd5b8063db1d04a7146103ed578063df41d5a614610403578063e3073fb71461043757600080fd5b806394aa6a4b116100b057806394aa6a4b14610365578063b981a91114610385578063cacf66ab146103b957600080fd5b80638da5cb5b146102e957806391b7f5ed146103115780639494a3ab1461033157600080fd5b80634ad02ef111610138578063715018a611610112578063715018a6146102915780637b49e281146102a657806381d12c58146102bc57600080fd5b80634ad02ef1146102375780635f7c7522146102595780636a84a9851461027b57600080fd5b80631f53cf04116101695780631f53cf04146101da57806338e576c8146101ed57806340e50f281461020357600080fd5b80630bb0602c1461018557806310b0d1d2146101a7575b600080fd5b34801561019157600080fd5b506101a56101a036600461288b565b6104cb565b005b3480156101b357600080fd5b506101c76101c23660046128e0565b61079b565b6040519081526020015b60405180910390f35b6101c76101e83660046128f9565b6107c8565b3480156101f957600080fd5b506101c760035481565b34801561020f57600080fd5b506101c77f000000000000000000000000000000000000000000000000000000000000000081565b34801561024357600080fd5b5061024c610a62565b6040516101d19190612944565b34801561026557600080fd5b5061026e610b0c565b6040516101d19190612976565b34801561028757600080fd5b506101c760045481565b34801561029d57600080fd5b506101a5610b28565b3480156102b257600080fd5b506101c760025481565b3480156102c857600080fd5b506101c76102d73660046128e0565b60056020526000908152604090205481565b3480156102f557600080fd5b506000546040516001600160a01b0390911681526020016101d1565b34801561031d57600080fd5b506101a561032c3660046128e0565b610b3c565b34801561033d57600080fd5b506101c77f000000000000000000000000000000000000000000000000000000000000000081565b34801561037157600080fd5b506101a56103803660046128e0565b610b80565b34801561039157600080fd5b506101c77f000000000000000000000000000000000000000000000000000000000000000081565b3480156103c557600080fd5b506101c77f000000000000000000000000000000000000000000000000000000000000000081565b3480156103f957600080fd5b506101c760015481565b34801561040f57600080fd5b506101c77f000000000000000000000000000000000000000000000000000000000000000081565b34801561044357600080fd5b506101a56104523660046128e0565b610bbd565b34801561046357600080fd5b506101c77f000000000000000000000000000000000000000000000000000000000000000081565b34801561049757600080fd5b506101a56104a63660046128e0565b610bfa565b3480156104b757600080fd5b506101a56104c63660046129a9565b610ccf565b6104d3610d26565b60408051466020808301919091523082840152606082018890526001600160a01b038716608083015260a0820186905260c08083018690528351808403909101815260e0909201835281519181019190912060008881526005909252919020548114610573576040517fa537f758000000000000000000000000000000000000000000000000000000008152600481018290526024015b60405180910390fd5b60008681526005602090815260408083208390558051828152808201909152906020820181803683375050506000868152600860182060208301529091506105b9610a62565b905060006105df6040518060600160405280602b8152602001612cad602b913984610d63565b6040805180820182529192506000916106109188906002908390839080828437600092019190915250610e1c915050565b905060008061064a886002806020026040519081016040528092919082600260200280828437600092019190915250889150879050610e6a565b91509150821580610659575081155b80610662575080155b1561069f578484896040517fb8cf7d3000000000000000000000000000000000000000000000000000000000815260040161056a939291906129cb565b604080516001808252818301909252600091602080830190803683375050604080518c356020808301919091528d0135918101919091529192505060600160408051601f1981840301815282825280516020918201209083015281018e90526001600160a01b038d1660608201526080016040516020818303038152906040528051906020012060001c8160008151811061073c5761073c612a14565b6020026020010181815250506107548a8d8f84611021565b8c7f67578974dcd1e9cdb0ebe63163f817c9866d397c48bc125393551f78f33b515f826040516107849190612a66565b60405180910390a250505050505050505050505050565b60003a6107ab8362030d40612a8f565b6107b59190612aa2565b6001546107c29190612a8f565b92915050565b60006107d2610d26565b60006107dd8361079b565b905080341015610822576040517f0d35e9210000000000000000000000000000000000000000000000000000000081523460048201526024810182905260440161056a565b600254831115610861576040517f45453f370000000000000000000000000000000000000000000000000000000081526004810184905260240161056a565b60035461086e9042612a8f565b841115610891576040516309decb5d60e21b81526004810185905260240161056a565b6004805490819060006108a383612ab9565b91905055507f00000000000000000000000000000000000000000000000000000000000000008510806108fe57506108fb7f000000000000000000000000000000000000000000000000000000000000000042612a8f565b85105b1561091f576040516309decb5d60e21b81526004810186905260240161056a565b600061094b7f000000000000000000000000000000000000000000000000000000000000000087612ad2565b905060006109797f000000000000000000000000000000000000000000000000000000000000000083612afb565b6109a37f000000000000000000000000000000000000000000000000000000000000000084612b0f565b6109ad9190612a8f565b6040805146602080830191909152308284015260608201879052336080830181905267ffffffffffffffff851660a0840181905260c08085018d90528551808603909101815260e0850180875281519185019190912060008b81526005909552938690209390935591526101008201526101208101899052905191925084917f6775f2f8aa96193c5eddac656fc6dc3b43ab68287b6d7da3693579d1fe620d9d918190036101400190a2509095945050505050565b610a6a61281a565b610a7261281a565b7f000000000000000000000000000000000000000000000000000000000000000081527f000000000000000000000000000000000000000000000000000000000000000060208201527f000000000000000000000000000000000000000000000000000000000000000060408201527f00000000000000000000000000000000000000000000000000000000000000006060820152919050565b6040518060600160405280602b8152602001612cad602b913981565b610b306110ae565b610b3a60006110f4565b565b610b446110ae565b60018190556040518181527fc3d50f77154758c462c4c169109245a63ef238ce48eac8201fc45e514cdb77f2906020015b60405180910390a150565b610b886110ae565b60028190556040518181527f134a3c9ab0f6f4624f16cae2e8b5ed62e867f01bae73ab143b957c2a2e6c9ee590602001610b75565b610bc56110ae565b60038190556040518181527f4bdf088aaa547d0a8b8f4aa78a191f0faf72f3bc7fddd8d39be2492d8836847890602001610b75565b610c026110ae565b80600003610c0d5750475b604051600090339083908381818185875af1925050503d8060008114610c4f576040519150601f19603f3d011682016040523d82523d6000602084013e610c54565b606091505b5050905080610c98576040517f1c43b9760000000000000000000000000000000000000000000000000000000081523360048201526024810183905260440161056a565b6040518281527f043f607a14d3b4f0a11a0b2e192bbfcd894298ba5abf22553be6081406db28aa9060200160405180910390a15050565b610cd76110ae565b6001600160a01b038116610d1a576040517f1e4fbdf70000000000000000000000000000000000000000000000000000000081526000600482015260240161056a565b610d23816110f4565b50565b60065460ff1615610b3a576040517fed3ba6a600000000000000000000000000000000000000000000000000000000815260040160405180910390fd5b610d6b612838565b6000610d77848461115c565b90506000610d8b82825b602002015161124a565b90506000610d9a836001610d81565b9050610da461281a565b825181526020808401518282015282516040808401919091529083015160608301526000908460808460066107d05a03fa905080610e1057816040517f128e3f0800000000000000000000000000000000000000000000000000000000815260040161056a9190612944565b50919695505050505050565b8051600090600080516020612c8d833981519152111580610e4f57506020820151600080516020612c8d83398151915211155b15610e5c57506000919050565b6107c282611588565b919050565b600080600060405180610180016040528087600060028110610e8e57610e8e612a14565b6020020151815260200187600160028110610eab57610eab612a14565b602002015181526020017f198e9393920d483a7260bfb731fb5d25f1aa493335a9e71297e485b7aef312c281526020017f1800deef121f1e76426a00665e5c4479674322d4f75edadd46debd5cd992f6ed81526020017f275dc4a288d1afb3cbb1ac09187524c7db36395df7be3b99e673b13a075a65ec81526020017f1d9befcd05a5323e6da4d435f3b617cdb3af83285c2df711ef39c01571827f9d815260200185600060028110610f6057610f60612a14565b6020020151815260200185600160028110610f7d57610f7d612a14565b6020020151815260200186600160048110610f9a57610f9a612a14565b6020020151815260200186600060048110610fb757610fb7612a14565b6020020151815260200186600360048110610fd457610fd4612a14565b6020020151815260200186600260048110610ff157610ff1612a14565b602002015190529050611002612856565b6020816101808460086107d05a03fa9051151597909650945050505050565b6006805460ff1916600117905560405161109d90859085907fa0c4615c000000000000000000000000000000000000000000000000000000009061106b9087908790602001612b23565b60408051601f19818403018152908290526110899291602001612b44565b6040516020818303038152906040526115e7565b50506006805460ff19169055505050565b6000546001600160a01b03163314610b3a576040517f118cdaa700000000000000000000000000000000000000000000000000000000815233600482015260240161056a565b600080546001600160a01b038381167fffffffffffffffffffffffff0000000000000000000000000000000000000000831681178455604051919092169283917f8be0079c531659141344cd1fd0a4f28419497f9722a3daafe3b4186f6b6457e09190a35050565b611164612838565b60006111708484611633565b90506000806000806018850177ffffffffffffffffffffffffffffffffffffffffffffffff815116935060308601905077ffffffffffffffffffffffffffffffffffffffffffffffff8151169450600080516020612c8d83398151915285600080516020612c8d833981519152600160c01b8709086048870151606088015177ffffffffffffffffffffffffffffffffffffffffffffffff90811697501694509250600080516020612c8d83398151915290508481600160c01b860908604080518082019091529283526020830152509695505050505050565b611252612838565b600080516020612c8d833981519152821061129c576040517fd53e94150000000000000000000000000000000000000000000000000000000081526004810183905260240161056a565b6000600080516020612c8d8339815191526004600080516020612c8d8339815191528586090990506000600080516020612c8d833981519152826001089050600080516020612c8d83398151915261130283600080516020612c8d833981519152612ad2565b60010891506000611323600080516020612c8d8339815191528385096117ac565b90506000600080516020612c8d83398151915278016789af3a83522eb353c98fc6b36d713d5d8d1cc5dffffffa600080516020612c8d83398151915284600080516020612c8d833981519152888b09090990506000600080516020612c8d83398151915261139f83600080516020612c8d833981519152612ad2565b7f183227397098d014dc2822db40c0ac2ecbc0b548b438e5469e10460b6c3e7ea30890506000600080516020612c8d833981519152837f183227397098d014dc2822db40c0ac2ecbc0b548b438e5469e10460b6c3e7ea30890506000600080516020612c8d83398151915286870990506000600080516020612c8d83398151915286830990506000600080516020612c8d83398151915280600080516020612c8d8339815191528485097f10216f7ba065e00de81ac1e7808072c9dd2b2385cd7b438469602eb24829a9bd09600108905060008061148461147f886117b7565b6117f4565b60000b6001036114d557868c5261149a876117b7565b90506114a58161185c565b60208e01919091529150816114d05760405163396ec77160e01b81526004810182905260240161056a565b611539565b6114e161147f876117b7565b60000b6001036114f757858c5261149a866117b7565b828c52611503836117b7565b905061150e8161185c565b60208e01919091529150816115395760405163396ec77160e01b81526004810182905260240161056a565b60208c015161154790611885565b6115508e611885565b146115785760208c015161157290600080516020612c8d833981519152612ad2565b60208d01525b5050505050505050505050919050565b600081516020830151600080516020612c8d833981519152828309600080516020612c8d8339815191528382099050600080516020612c8d833981519152600382089050600080516020612c8d83398151915282830914949350505050565b60005a6113888110156115f957600080fd5b61138881039050846040820482031161161157600080fd5b50823b61161d57600080fd5b60008083516020850160008789f1949350505050565b815160609060ff81111561167557836040517f26e4f9ba00000000000000000000000000000000000000000000000000000000815260040161056a9190612976565b60408051608880825260c08201909252600091602082018180368337019050509050600081856000606060008a886040516020016116b99796959493929190612b8c565b6040516020818303038152906040529050600081805190602001209050600081600189876040516020016116f09493929190612c2a565b60408051808303601f190181528282528051602082012060608085526080850190935290935091600091602082018180368337019050509050600360015b8181101561178e57858418611744826001612a8f565b8d8b6040516020016117599493929190612c2a565b60408051808303601f19018152919052602060001983018102850181019590955280519481019490942093945060010161172e565b50600019016020908102820101919091529550505050505092915050565b60006107c282611892565b6000600080516020612c8d8339815191526003600080516020612c8d83398151915284600080516020612c8d833981519152868709090892915050565b60008061180083611fd9565b905061181b6001600080516020612c8d833981519152612ad2565b810361182b575060001992915050565b801580159061183b575080600114155b156107c25760405163396ec77160e01b81526004810184905260240161056a565b600080611868836120e5565b915082600080516020612c8d833981519152838409149050915091565b60006107c2600283612afb565b6000600080516020612c8d8339815191528083840991508083830981838209828283098385830984848309858484098684850997508684840987858409945087898a09985087898a09985087898a09985087898a09985087898a09985087878a09985087898a09985087898a09985087898a099850878a8a09985087898a09985087898a09985087898a09985087898a099850878a8a09985087898a09985087898a09985087898a09985087898a09985087898a09985087848a09985087898a09985087898a09985087898a09985087898a09985087898a09985087848a09985087898a09985087898a09985087898a099850878a8a09985087898a09985087898a09985087898a09985087898a09985087848a09985087898a09985087898a09985087898a09985087898a09985087898a099850878a8a09985087898a09985087898a09985087898a09985087898a09985087878a09985087898a09985087898a09985087898a09985087898a09985087898a09985087898a09985087898a09985087818a09985087898a09985087898a09985087898a09985087898a09985087898a09985087898a09985087898a09985087898a09985087898a09985087898a09985087868a09985087898a09985087898a09985087898a09985087898a09985087878a09985087898a09985087898a09985087898a09985087898a09985087848a09985087898a09985087898a09985087898a09985087898a09985087898a09985087898a09985087898a09985087868a09985087898a09985087898a09985087898a09985087898a09985087898a09985087898a099850878a8a09985087898a09985087898a09985087898a09985087898a09985087898a09985087898a09985087898a09985087828a09985087898a09985087898a09985087898a09985087898a09985087898a09985087818a09985087898a09985087898a09985087898a09985087868a09985087898a09985087898a09985087898a09985087898a09985087898a09985087898a09985087898a09985087898a09985087878a09985087898a09985087898a09985087898a09985087898a09985087898a09985087898a09985087898a09985087898a09985087898a09985087868a09985087898a09985087898a09985087898a09985087878a09985087898a09985087898a09985087898a09985087898a09985087898a09985087898a09985087898a09985087898a09985087828a09985087898a09985087898a09985087898a09985087898a09985087828a09985087898a09985087898a09985087898a09985087898a09985087898a09985087868a09985087898a09985087898a09985087898a09985087848a09985087898a09985087898a09985087898a09985087898a09985087898a09985087898a09985087898a09985087898a09985087898a09985087898a09985087828a09985087898a09985087898a09985087898a09985087898a09985087868a09985087898a09985087898a09985087898a09985087898a09985087898a09985087838a09985087898a09985087898a09985087898a09985087898a09985087898a09985087898a09985087898a09985087828a09985087898a09985087898a099850878a8a09985087898a09985087898a09985087898a09985087898a09985087898a09985087898a09985087898a09985087848a09985087898a09985087898a09985087898a09985087898a09985087898a09985087898a09985087848a09985087898a09985087898a09985087898a09985087898a09985087898a09985087868a09985087898a09985087898a099850878a8a09985087898a09985087898a09985087898a09985087898a09985087898a09985087898a09985087898a09985087818a09985050868889099750868889099750868889099750868889099750868889099750868889099750868489099750868889099750868889099750868889099750868889099750868889099750868989099750868889099750868889099750868889099750868889099750868889099750868889099750868989099750868889099750868889099750868889099750868889099750868889099750868689099750868889099750868889099750868889099750868889099750868889099750868889099750868889099750868889099750868889099750868189099750508587880996508587880996508587880996508585880996508587880996508587880996508587880996508585880996508587880996508587880996508587880996508587880996508587880996508587880996508587880996508587880996508583880996508587880996508587880996508587880996508587880996508581880996505050838586099450838586099450838586099450838586099450838186099450508284850993508284850993508284850993508281850993508284850993508284850993508285850993508284850993508284850993508284850993508284850993508284850993508284850993508281850995945050505050565b6040805160c080825260e082019092526000918291906020820181803683370190505060208082018181526040830182905260608301829052608083018690527f183227397098d014dc2822db40c0ac2ecbc0b548b438e5469e10460b6c3e7ea360a0840152600080516020612c8d83398151915260c080850191909152929350600092839160055afa90506000519250806120de576040517fc6daf7ab000000000000000000000000000000000000000000000000000000008152600481018590527f183227397098d014dc2822db40c0ac2ecbc0b548b438e5469e10460b6c3e7ea36024820152600080516020612c8d833981519152604482015260640161056a565b5050919050565b6000600080516020612c8d8339815191528083840991508083830981838209828283098385830984848309858484098684850997508684840987858409945087898a09985087898a09985087898a09985087898a09985087898a09985087878a09985087898a09985087898a09985087898a099850878a8a09985087898a09985087898a09985087898a09985087898a099850878a8a09985087898a09985087898a09985087898a09985087898a09985087898a09985087848a09985087898a09985087898a09985087898a09985087898a09985087898a09985087848a09985087898a09985087898a09985087898a099850878a8a09985087898a09985087898a09985087898a09985087898a09985087848a09985087898a09985087898a09985087898a09985087898a09985087898a099850878a8a09985087898a09985087898a09985087898a09985087898a09985087878a09985087898a09985087898a09985087898a09985087898a09985087898a09985087898a09985087898a09985087818a09985087898a09985087898a09985087898a09985087898a09985087898a09985087898a09985087898a09985087898a09985087898a09985087898a09985087868a09985087898a09985087898a09985087898a09985087898a09985087878a09985087898a09985087898a09985087898a09985087898a09985087848a09985087898a09985087898a09985087898a09985087898a09985087898a09985087898a09985087898a09985087868a09985087898a09985087898a09985087898a09985087898a09985087898a09985087898a099850878a8a09985087898a09985087898a09985087898a09985087898a09985087898a09985087898a09985087898a09985087828a09985087898a09985087898a09985087898a09985087898a09985087898a09985087818a09985087898a09985087898a09985087898a09985087868a09985087898a09985087898a09985087898a09985087898a09985087898a09985087898a09985087898a09985087898a09985087878a09985087898a09985087898a09985087898a09985087898a09985087898a09985087898a09985087898a09985087898a09985087898a09985087868a09985087898a09985087898a09985087898a09985087878a09985087898a09985087898a09985087898a09985087898a09985087898a09985087898a09985087898a09985087898a09985087828a09985087898a09985087898a09985087898a09985087898a09985087828a09985087898a09985087898a09985087898a09985087898a09985087898a09985087868a09985087898a09985087898a09985087898a09985087848a09985087898a09985087898a09985087898a09985087898a09985087898a09985087898a09985087898a09985087898a09985087898a09985087898a09985087828a09985087898a09985087898a09985087898a09985087898a09985087868a09985087898a09985087898a09985087898a09985087898a09985087898a09985087838a09985087898a09985087898a09985087898a09985087898a09985087898a09985087898a09985087898a09985087828a09985087898a09985087898a099850878a8a09985087898a09985087898a09985087898a09985087898a09985087898a09985087898a09985087898a09985087848a09985087898a09985087898a09985087898a09985087898a09985087898a09985087898a09985087848a09985087898a09985087898a09985087898a09985087898a09985087898a09985087868a09985087898a09985087898a099850878a8a09985087898a09985087898a09985087898a09985087898a09985087898a09985087898a09985087898a09985087818a09985050868889099750868889099750868889099750868889099750868889099750868889099750868489099750868889099750868889099750868889099750868889099750868889099750868989099750868889099750868889099750868889099750868889099750868889099750868889099750868989099750868889099750868889099750868889099750868889099750868889099750868689099750868889099750868889099750868889099750868889099750868889099750868889099750868889099750868889099750868889099750868189099750508587880996508587880996508587880996508585880996508587880996508587880996508587880996508585880996508587880996508587880996508587880996508587880996508587880996508587880996508587880996508587880996508583880996508587880996508587880996508587880996508587880996508581880996508587880996508587880996508587880996508587880996508583880996508587880996508587880996508587880996508584880996508587880996508587880996508587880996508587880996508587880996508581880996505050505050808283099392505050565b60405180608001604052806004906020820280368337509192915050565b60405180604001604052806002906020820280368337509192915050565b60405180602001604052806001906020820280368337509192915050565b80356001600160a01b0381168114610e6557600080fd5b600080600080600060c086880312156128a357600080fd5b853594506128b360208701612874565b935060408601359250606086013591508660c0870111156128d357600080fd5b5092959194509260800190565b6000602082840312156128f257600080fd5b5035919050565b6000806040838503121561290c57600080fd5b50508035926020909101359150565b8060005b600481101561293e57815184526020938401939091019060010161291f565b50505050565b608081016107c2828461291b565b60005b8381101561296d578181015183820152602001612955565b50506000910152565b6020815260008251806020840152612995816040850160208701612952565b601f01601f19169190910160400192915050565b6000602082840312156129bb57600080fd5b6129c482612874565b9392505050565b61010081016129da828661291b565b608082018460005b6002811015612a015781518352602092830192909101906001016129e2565b50505060408360c0840137949350505050565b634e487b7160e01b600052603260045260246000fd5b60008151808452602080850194506020840160005b83811015612a5b57815187529582019590820190600101612a3f565b509495945050505050565b6020815260006129c46020830184612a2a565b634e487b7160e01b600052601160045260246000fd5b808201808211156107c2576107c2612a79565b80820281158282048414176107c2576107c2612a79565b600060018201612acb57612acb612a79565b5060010190565b818103818111156107c2576107c2612a79565b634e487b7160e01b600052601260045260246000fd5b600082612b0a57612b0a612ae5565b500690565b600082612b1e57612b1e612ae5565b500490565b828152604060208201526000612b3c6040830184612a2a565b949350505050565b7fffffffff000000000000000000000000000000000000000000000000000000008316815260008251612b7e816004850160208701612952565b919091016004019392505050565b60008851612b9e818460208d01612952565b885190830190612bb2818360208d01612952565b8082019150507fff00000000000000000000000000000000000000000000000000000000000000808960f81b168252808860f81b166001830152808760f81b1660028301528551612c0a816003850160208a01612952565b60f89590951b169301600381019390935250506004019695505050505050565b84815260007fff00000000000000000000000000000000000000000000000000000000000000808660f81b1660208401528451612c6e816021860160208901612952565b60f89490941b1691909201602181019190915260220194935050505056fe30644e72e131a029b85045b68181585d97816a916871ca8d3c208c16d87cfd47424c535f5349475f424e32353447315f584d443a4b454343414b2d3235365f535357555f524f5f4e554c5fa264697066735822122046f9f850e72638887808a3e2d808c2870b2e2e07eab5a5cc8072530b9c38ebb164736f6c6343000817003330644e72e131a029b85045b68181585d97816a916871ca8d3c208c16d87cfd47",
  "linkReferences": {},
  "deployedLinkReferences": {}
}