{
  "_format": "hh-sol-artifact-1",
  "contractName": "DrandBeacon",
  "sourceName": "contracts/beacon/DrandBeacon.sol",
  "abi": [
    {
      "inputs": [
        {
          "internalType": "uint256[4]",
          "name": "publicKey_",
          "type": "uint256[4]"
        },
        {
          "internalType": "uint256",
          "name": "genesisTimestamp_",
          "type": "uint256"
        },
        {
          "internalType": "uint256",
          "name": "period_",
          "type": "uint256"
        }
      ],
      "stateMutability": "nonpayable",
      "type": "constructor"
    },
    {
      "inputs": [
        {
          "internalType": "uint256[4]",
          "name": "input",
          "type": "uint256[4]"
        }
      ],
      "name": "BNAddFailed",
      "type": "error"
    },
    {
      "inputs": [
        {
          "internalType": "uint256",
          "name": "genesisTimestamp",
          "type": "uint256"
        },
        {
          "internalType": "uint256",
          "name": "period",
          "type": "uint256"
        }
      ],
      "name": "InvalidBeaconConfiguration",
      "type": "error"
    },
    {
      "inputs": [
        {
          "internalType": "bytes",
          "name": "dst",
          "type": "bytes"
        }
      ],
      "name": "InvalidDSTLength",
      "type": "error"
    },
    {
      "inputs": [
        {
          "internalType": "uint256",
          "name": "x",
          "type": "uint256"
        }
      ],
      "name": "InvalidFieldElement",
      "type": "error"
    },
    {
      "inputs": [
        {
          "internalType": "uint256[4]",
          "name": "pubKey",
          "type": "uint256[4]"
        }
      ],
      "name": "InvalidPublicKey",
      "type": "error"
    },
    {
      "inputs": [
        {
          "internalType": "uint256[4]",
          "name": "pubKey",
          "type": "uint256[4]"
        },
        {
          "internalType": "uint256[2]",
          "name": "message",
          "type": "uint256[2]"
        },
        {
          "internalType": "uint256[2]",
          "name": "signature",
          "type": "uint256[2]"
        }
      ],
      "name": "InvalidSignature",
      "type": "error"
    },
    {
      "inputs": [
        {
          "internalType": "uint256",
          "name": "noSqrt",
          "type": "uint256"
        }
      ],
      "name": "MapToPointFailed",
      "type": "error"
    },
    {
      "inputs": [
        {
          "internalType": "uint256",
          "name": "base",
          "type": "uint256"
        },
        {
          "internalType": "uint256",
          "name": "exponent",
          "type": "uint256"
        },
        {
          "internalType": "uint256",
          "name": "modulus",
          "type": "uint256"
        }
      ],
      "name": "ModExpFailed",
      "type": "error"
    },
    {
      "inputs": [],
      "name": "DST",
      "outputs": [
        {
          "internalType": "bytes",
          "name": "",
          "type": "bytes"
        }
      ],
      "stateMutability": "view",
      "type": "function"
    },
    {
      "inputs": [],
      "name": "data",
      "outputs": [
        {
          "internalType": "address",
          "name": "",
          "type": "address"
        }
      ],
      "stateMutability": "view",
      "type": "function"
    },
    {
      "inputs": [],
      "name": "genesisTimestamp",
      "outputs": [
        {
          "internalType": "uint256",
          "name": "",
          "type": "uint256"
        }
      ],
      "stateMutability": "view",
      "type": "function"
    },
    {
      "inputs": [],
      "name": "period",
      "outputs": [
        {
          "internalType": "uint256",
          "name": "",
          "type": "uint256"
        }
      ],
      "stateMutability": "view",
      "type": "function"
    },
    {
      "inputs": [],
      "name": "publicKey",
      "outputs": [
        {
          "internalType": "bytes",
          "name": "",
          "type": "bytes"
        }
      ],
      "stateMutability": "view",
      "type": "function"
    },
    {
      "inputs": [],
      "name": "publicKeyHash",
      "outputs": [
        {
          "internalType": "bytes32",
          "name": "",
          "type": "bytes32"
        }
      ],
      "stateMutability": "view",
      "type": "function"
    },
    {
      "inputs": [
        {
          "internalType": "uint256",
          "name": "round",
          "type": "uint256"
        },
        {
          "internalType": "uint256[2]",
          "name": "signature",
          "type": "uint256[2]"
        }
      ],
      "name": "verifyBeaconRound",
      "outputs": [],
      "stateMutability": "view",
      "type": "function"
    }
  ],
  "bytecode": "0x60a060405234801561001057600080fd5b5060405161271f38038061271f83398101604081905261002f91610483565b6100388361016c565b610060578260405163c7728ee960e01b8152600401610057919061050f565b60405180910390fd5b825160208085015160408087015160608089015183519586019690965291840192909252820152608081019190915260009060a001604051602081830303815290604052905082600014806100b3575081155b156100db57604051634b55885360e11b81526004810184905260248101839052604401610057565b6101088184846040516020016100f393929190610540565b60408051601f198184030181529190526101f4565b6001600160a01b031660805280516020820120610123610238565b805190602001201461013757610137610577565b8261014061025a565b1461014d5761014d610577565b81610156610285565b1461016357610163610577565b505050506105c7565b80516000906000805160206126ff83398151915211158061019f575060208201516000805160206126ff83398151915211155b806101d8575060408201516000805160206126ff8339815191521115806101d8575060608201516000805160206126ff83398151915211155b156101e557506000919050565b6101ee8261029d565b92915050565b600081518060401b6bfe61000180600a3d393df3000161fffe8211840152600b8101601584016000f09150816102325763301164256000526004601cfd5b90915290565b6060610255608051600060806000610250919061058d565b610404565b905090565b6000610272608051608060206080610250919061058d565b80602001905181019061025591906105ae565b600061027260805160a0602060a0610250919061058d565b6000815160208301516000805160206126ff8339815191528283096000805160206126ff83398151915282830981828301016000805160206126ff83398151915282838401086000805160206126ff83398151915286826000805160206126ff833981519152038601099350506000805160206126ff83398151915284836000805160206126ff8339815191520383010991506000805160206126ff8339815191527f2b149d40ceb8aaae81be18991be06ac3b5b4c5e559dbefa33267e6dc24a138e5840894506000805160206126ff8339815191527e9713b03af0fed4cd2cafadeed8fdf4a74fa084e52d1852e4a2bd0685c315d28308935060408701519250606087015191506000805160206126ff83398151915280836000805160206126ff8339815191520385086000805160206126ff8339815191528486080990506000805160206126ff833981519152828460011b0994149290931491909116949350505050565b60405161ffff82106104165761ffff91505b818310838303026001810184601f8401873c8082015160ff16610450576001853b038060401c3d3d3e808403818511028203858211029150505b808252600081602084010152806040830101604052509392505050565b634e487b7160e01b600052604160045260246000fd5b600080600060c0848603121561049857600080fd5b84601f8501126104a757600080fd5b604051608081016001600160401b03811182821017156104c9576104c961046d565b6040528060808601878111156104de57600080fd5b865b818110156104f85780518352602092830192016104e0565b505160a09690960151919795965090949350505050565b60808101818360005b6004811015610537578151835260209283019290910190600101610518565b50505092915050565b6000845160005b818110156105615760208188018101518583015201610547565b5091909101928352506020820152604001919050565b634e487b7160e01b600052600160045260246000fd5b808201808211156101ee57634e487b7160e01b600052601160045260246000fd5b6000602082840312156105c057600080fd5b5051919050565b6080516121096105f66000396000818160bf01528181610164015281816101a101526102ce01526121096000f3fe608060405234801561001057600080fd5b506004361061007d5760003560e01c806373d4a13a1161005b57806373d4a13a146100ba578063cacf66ab14610106578063e3d4ff161461010e578063ef78d4fd1461012357600080fd5b80635e7e3416146100825780635f7c75221461009d57806363ffab31146100b2575b600080fd5b61008a61012b565b6040519081526020015b60405180910390f35b6100a5610141565b6040516100949190611d5e565b6100a561015d565b6100e17f000000000000000000000000000000000000000000000000000000000000000081565b60405173ffffffffffffffffffffffffffffffffffffffff9091168152602001610094565b61008a61019a565b61012161011c366004611da7565b6101e0565b005b61008a6102c7565b600061013561015d565b80519060200120905090565b6040518060600160405280602b81526020016120a9602b913981565b60606101957f00000000000000000000000000000000000000000000000000000000000000006000610190608082611e46565b6102fa565b905090565b60006101cd7f00000000000000000000000000000000000000000000000000000000000000006080610190602082611e46565b8060200190518101906101959190611e59565b604080516020808252818301909252600091602082018180368337505050600084815260086018206020830152909150610218610363565b9050600061023e6040518060600160405280602b81526020016120a9602b9139846103b3565b9050600061024b8561046e565b90508061027a57828286604051630b8cf7d360e41b815260040161027193929190611ebe565b60405180910390fd5b6000806102888786866104b7565b915091508061029957610299611eef565b816102bd57848488604051630b8cf7d360e41b815260040161027193929190611ebe565b5050505050505050565b60006101cd7f000000000000000000000000000000000000000000000000000000000000000060a0610190602082611e46565b60405161ffff821061030c5761ffff91505b818310838303026001810184601f8401873c8082015160ff16610346576001853b038060401c3d3d3e808403818511028203858211029150505b808252600081602084010152806040830101604052509392505050565b61036b611ce0565b60008060008061037961015d565b80602001905181019061038c9190611f05565b60408051608081018252948552602085019390935291830152606082015295945050505050565b6103bb611cfe565b60006103c7848461066e565b905060006103db82825b602002015161075c565b905060006103ea8360016103d1565b90506103f4611ce0565b825181526020808401518282015282516040808401919091529083015160608301526000908460808460066107d05a03fa90508061046057816040517f128e3f080000000000000000000000000000000000000000000000000000000081526004016102719190611f51565b509193505050505b92915050565b80516000906000805160206120898339815191521115806104a15750602082015160008051602061208983398151915211155b156104ae57506000919050565b61046882610a9a565b6000806000604051806101800160405280876000600281106104db576104db611f3b565b60200201518152602001876001600281106104f8576104f8611f3b565b602002015181526020017f198e9393920d483a7260bfb731fb5d25f1aa493335a9e71297e485b7aef312c281526020017f1800deef121f1e76426a00665e5c4479674322d4f75edadd46debd5cd992f6ed81526020017f275dc4a288d1afb3cbb1ac09187524c7db36395df7be3b99e673b13a075a65ec81526020017f1d9befcd05a5323e6da4d435f3b617cdb3af83285c2df711ef39c01571827f9d8152602001856000600281106105ad576105ad611f3b565b60200201518152602001856001600281106105ca576105ca611f3b565b60200201518152602001866001600481106105e7576105e7611f3b565b602002015181526020018660006004811061060457610604611f3b565b602002015181526020018660036004811061062157610621611f3b565b602002015181526020018660026004811061063e5761063e611f3b565b60200201519052905061064f611d1c565b6020816101808460086107d05a03fa9051151597909650945050505050565b610676611cfe565b60006106828484610af9565b90506000806000806018850177ffffffffffffffffffffffffffffffffffffffffffffffff815116935060308601905077ffffffffffffffffffffffffffffffffffffffffffffffff815116945060008051602061208983398151915285600080516020612089833981519152600160c01b8709086048870151606088015177ffffffffffffffffffffffffffffffffffffffffffffffff9081169750169450925060008051602061208983398151915290508481600160c01b860908604080518082019091529283526020830152509695505050505050565b610764611cfe565b60008051602061208983398151915282106107ae576040517fd53e941500000000000000000000000000000000000000000000000000000000815260048101839052602401610271565b60006000805160206120898339815191526004600080516020612089833981519152858609099050600060008051602061208983398151915282600108905060008051602061208983398151915261081483600080516020612089833981519152611f5f565b60010891506000610835600080516020612089833981519152838509610c72565b9050600060008051602061208983398151915278016789af3a83522eb353c98fc6b36d713d5d8d1cc5dffffffa60008051602061208983398151915284600080516020612089833981519152888b090909905060006000805160206120898339815191526108b183600080516020612089833981519152611f5f565b7f183227397098d014dc2822db40c0ac2ecbc0b548b438e5469e10460b6c3e7ea30890506000600080516020612089833981519152837f183227397098d014dc2822db40c0ac2ecbc0b548b438e5469e10460b6c3e7ea308905060006000805160206120898339815191528687099050600060008051602061208983398151915286830990506000600080516020612089833981519152806000805160206120898339815191528485097f10216f7ba065e00de81ac1e7808072c9dd2b2385cd7b438469602eb24829a9bd09600108905060008061099661099188610c7d565b610cba565b60000b6001036109e757868c526109ac87610c7d565b90506109b781610d22565b60208e01919091529150816109e25760405163396ec77160e01b815260048101829052602401610271565b610a4b565b6109f361099187610c7d565b60000b600103610a0957858c526109ac86610c7d565b828c52610a1583610c7d565b9050610a2081610d22565b60208e0191909152915081610a4b5760405163396ec77160e01b815260048101829052602401610271565b60208c0151610a5990610d4b565b610a628e610d4b565b14610a8a5760208c0151610a8490600080516020612089833981519152611f5f565b60208d01525b5050505050505050505050919050565b600081516020830151600080516020612089833981519152828309600080516020612089833981519152838209905060008051602061208983398151915260038208905060008051602061208983398151915282830914949350505050565b815160609060ff811115610b3b57836040517f26e4f9ba0000000000000000000000000000000000000000000000000000000081526004016102719190611d5e565b60408051608880825260c08201909252600091602082018180368337019050509050600081856000606060008a88604051602001610b7f9796959493929190611f72565b604051602081830303815290604052905060008180519060200120905060008160018987604051602001610bb69493929190612013565b60408051808303601f190181528282528051602082012060608085526080850190935290935091600091602082018180368337019050509050600360015b81811015610c5457858418610c0a826001611e46565b8d8b604051602001610c1f9493929190612013565b60408051808303601f190181529190526020600019830181028501810195909552805194810194909420939450600101610bf4565b50600019016020908102820101919091529550505050505092915050565b600061046882610d58565b6000600080516020612089833981519152600360008051602061208983398151915284600080516020612089833981519152868709090892915050565b600080610cc68361149f565b9050610ce16001600080516020612089833981519152611f5f565b8103610cf1575060001992915050565b8015801590610d01575080600114155b156104685760405163396ec77160e01b815260048101849052602401610271565b600080610d2e836115ab565b915082600080516020612089833981519152838409149050915091565b6000610468600283612066565b60006000805160206120898339815191528083840991508083830981838209828283098385830984848309858484098684850997508684840987858409945087898a09985087898a09985087898a09985087898a09985087898a09985087878a09985087898a09985087898a09985087898a099850878a8a09985087898a09985087898a09985087898a09985087898a099850878a8a09985087898a09985087898a09985087898a09985087898a09985087898a09985087848a09985087898a09985087898a09985087898a09985087898a09985087898a09985087848a09985087898a09985087898a09985087898a099850878a8a09985087898a09985087898a09985087898a09985087898a09985087848a09985087898a09985087898a09985087898a09985087898a09985087898a099850878a8a09985087898a09985087898a09985087898a09985087898a09985087878a09985087898a09985087898a09985087898a09985087898a09985087898a09985087898a09985087898a09985087818a09985087898a09985087898a09985087898a09985087898a09985087898a09985087898a09985087898a09985087898a09985087898a09985087898a09985087868a09985087898a09985087898a09985087898a09985087898a09985087878a09985087898a09985087898a09985087898a09985087898a09985087848a09985087898a09985087898a09985087898a09985087898a09985087898a09985087898a09985087898a09985087868a09985087898a09985087898a09985087898a09985087898a09985087898a09985087898a099850878a8a09985087898a09985087898a09985087898a09985087898a09985087898a09985087898a09985087898a09985087828a09985087898a09985087898a09985087898a09985087898a09985087898a09985087818a09985087898a09985087898a09985087898a09985087868a09985087898a09985087898a09985087898a09985087898a09985087898a09985087898a09985087898a09985087898a09985087878a09985087898a09985087898a09985087898a09985087898a09985087898a09985087898a09985087898a09985087898a09985087898a09985087868a09985087898a09985087898a09985087898a09985087878a09985087898a09985087898a09985087898a09985087898a09985087898a09985087898a09985087898a09985087898a09985087828a09985087898a09985087898a09985087898a09985087898a09985087828a09985087898a09985087898a09985087898a09985087898a09985087898a09985087868a09985087898a09985087898a09985087898a09985087848a09985087898a09985087898a09985087898a09985087898a09985087898a09985087898a09985087898a09985087898a09985087898a09985087898a09985087828a09985087898a09985087898a09985087898a09985087898a09985087868a09985087898a09985087898a09985087898a09985087898a09985087898a09985087838a09985087898a09985087898a09985087898a09985087898a09985087898a09985087898a09985087898a09985087828a09985087898a09985087898a099850878a8a09985087898a09985087898a09985087898a09985087898a09985087898a09985087898a09985087898a09985087848a09985087898a09985087898a09985087898a09985087898a09985087898a09985087898a09985087848a09985087898a09985087898a09985087898a09985087898a09985087898a09985087868a09985087898a09985087898a099850878a8a09985087898a09985087898a09985087898a09985087898a09985087898a09985087898a09985087898a09985087818a09985050868889099750868889099750868889099750868889099750868889099750868889099750868489099750868889099750868889099750868889099750868889099750868889099750868989099750868889099750868889099750868889099750868889099750868889099750868889099750868989099750868889099750868889099750868889099750868889099750868889099750868689099750868889099750868889099750868889099750868889099750868889099750868889099750868889099750868889099750868889099750868189099750508587880996508587880996508587880996508585880996508587880996508587880996508587880996508585880996508587880996508587880996508587880996508587880996508587880996508587880996508587880996508587880996508583880996508587880996508587880996508587880996508587880996508581880996505050838586099450838586099450838586099450838586099450838186099450508284850993508284850993508284850993508281850993508284850993508284850993508285850993508284850993508284850993508284850993508284850993508284850993508284850993508281850995945050505050565b6040805160c080825260e082019092526000918291906020820181803683370190505060208082018181526040830182905260608301829052608083018690527f183227397098d014dc2822db40c0ac2ecbc0b548b438e5469e10460b6c3e7ea360a084015260008051602061208983398151915260c080850191909152929350600092839160055afa90506000519250806115a4576040517fc6daf7ab000000000000000000000000000000000000000000000000000000008152600481018590527f183227397098d014dc2822db40c0ac2ecbc0b548b438e5469e10460b6c3e7ea360248201526000805160206120898339815191526044820152606401610271565b5050919050565b60006000805160206120898339815191528083840991508083830981838209828283098385830984848309858484098684850997508684840987858409945087898a09985087898a09985087898a09985087898a09985087898a09985087878a09985087898a09985087898a09985087898a099850878a8a09985087898a09985087898a09985087898a09985087898a099850878a8a09985087898a09985087898a09985087898a09985087898a09985087898a09985087848a09985087898a09985087898a09985087898a09985087898a09985087898a09985087848a09985087898a09985087898a09985087898a099850878a8a09985087898a09985087898a09985087898a09985087898a09985087848a09985087898a09985087898a09985087898a09985087898a09985087898a099850878a8a09985087898a09985087898a09985087898a09985087898a09985087878a09985087898a09985087898a09985087898a09985087898a09985087898a09985087898a09985087898a09985087818a09985087898a09985087898a09985087898a09985087898a09985087898a09985087898a09985087898a09985087898a09985087898a09985087898a09985087868a09985087898a09985087898a09985087898a09985087898a09985087878a09985087898a09985087898a09985087898a09985087898a09985087848a09985087898a09985087898a09985087898a09985087898a09985087898a09985087898a09985087898a09985087868a09985087898a09985087898a09985087898a09985087898a09985087898a09985087898a099850878a8a09985087898a09985087898a09985087898a09985087898a09985087898a09985087898a09985087898a09985087828a09985087898a09985087898a09985087898a09985087898a09985087898a09985087818a09985087898a09985087898a09985087898a09985087868a09985087898a09985087898a09985087898a09985087898a09985087898a09985087898a09985087898a09985087898a09985087878a09985087898a09985087898a09985087898a09985087898a09985087898a09985087898a09985087898a09985087898a09985087898a09985087868a09985087898a09985087898a09985087898a09985087878a09985087898a09985087898a09985087898a09985087898a09985087898a09985087898a09985087898a09985087898a09985087828a09985087898a09985087898a09985087898a09985087898a09985087828a09985087898a09985087898a09985087898a09985087898a09985087898a09985087868a09985087898a09985087898a09985087898a09985087848a09985087898a09985087898a09985087898a09985087898a09985087898a09985087898a09985087898a09985087898a09985087898a09985087898a09985087828a09985087898a09985087898a09985087898a09985087898a09985087868a09985087898a09985087898a09985087898a09985087898a09985087898a09985087838a09985087898a09985087898a09985087898a09985087898a09985087898a09985087898a09985087898a09985087828a09985087898a09985087898a099850878a8a09985087898a09985087898a09985087898a09985087898a09985087898a09985087898a09985087898a09985087848a09985087898a09985087898a09985087898a09985087898a09985087898a09985087898a09985087848a09985087898a09985087898a09985087898a09985087898a09985087898a09985087868a09985087898a09985087898a099850878a8a09985087898a09985087898a09985087898a09985087898a09985087898a09985087898a09985087898a09985087818a09985050868889099750868889099750868889099750868889099750868889099750868889099750868489099750868889099750868889099750868889099750868889099750868889099750868989099750868889099750868889099750868889099750868889099750868889099750868889099750868989099750868889099750868889099750868889099750868889099750868889099750868689099750868889099750868889099750868889099750868889099750868889099750868889099750868889099750868889099750868889099750868189099750508587880996508587880996508587880996508585880996508587880996508587880996508587880996508585880996508587880996508587880996508587880996508587880996508587880996508587880996508587880996508587880996508583880996508587880996508587880996508587880996508587880996508581880996508587880996508587880996508587880996508587880996508583880996508587880996508587880996508587880996508584880996508587880996508587880996508587880996508587880996508587880996508581880996505050505050808283099392505050565b60405180608001604052806004906020820280368337509192915050565b60405180604001604052806002906020820280368337509192915050565b60405180602001604052806001906020820280368337509192915050565b60005b83811015611d55578181015183820152602001611d3d565b50506000910152565b6020815260008251806020840152611d7d816040850160208701611d3a565b601f01601f19169190910160400192915050565b634e487b7160e01b600052604160045260246000fd5b60008060608385031215611dba57600080fd5b82359150603f83018413611dcd57600080fd5b6040516040810181811067ffffffffffffffff82111715611df057611df0611d91565b604052806060850186811115611e0557600080fd5b602086015b81811015611e22578035835260209283019201611e0a565b505050809150509250929050565b634e487b7160e01b600052601160045260246000fd5b8082018082111561046857610468611e30565b600060208284031215611e6b57600080fd5b5051919050565b8060005b6004811015611e95578151845260209384019390910190600101611e76565b50505050565b8060005b6002811015611e95578151845260209384019390910190600101611e9f565b6101008101611ecd8286611e72565b611eda6080830185611e9b565b611ee760c0830184611e9b565b949350505050565b634e487b7160e01b600052600160045260246000fd5b60008060008060808587031215611f1b57600080fd5b505082516020840151604085015160609095015191969095509092509050565b634e487b7160e01b600052603260045260246000fd5b608081016104688284611e72565b8181038181111561046857610468611e30565b60008851611f84818460208d01611d3a565b885190830190611f98818360208d01611d3a565b8082019150506001600160f81b03198860f81b1681526001600160f81b03198760f81b1660018201526001600160f81b03198660f81b1660028201528451611fe7816003840160208901611d3a565b8082019150506001600160f81b03198460f81b1660038201526004810191505098975050505050505050565b8481526001600160f81b03198460f81b1660208201526000835161203e816021850160208801611d3a565b80830190506001600160f81b03198460f81b1660218201526022810191505095945050505050565b60008261208357634e487b7160e01b600052601260045260246000fd5b50069056fe30644e72e131a029b85045b68181585d97816a916871ca8d3c208c16d87cfd47424c535f5349475f424e32353447315f584d443a4b454343414b2d3235365f535644575f524f5f4e554c5fa26469706673582212201ffc0da30ba6942682e5429b8347d6cf43d2e9ab45fda42101ba0a29da06976064736f6c634300081c003330644e72e131a029b85045b68181585d97816a916871ca8d3c208c16d87cfd47",
  "linkReferences": {},
  "deployedLinkReferences": {}
}