{
  "_format": "hh-sol-artifact-1",
  "contractName": "GasStationScroll",
  "sourceName": "contracts/networks/GasStationScroll.sol",
  "abi": [
    {
      "inputs": [],
      "name": "L1_GAS_PRICE_ORACLE",
      "outputs": [
        {
          "internalType": "address",
          "name": "",
          "type": "address"
        }
      ],
      "stateMutability": "view",
      "type": "function"
    },
    {
      "inputs": [
        {
          "internalType": "uint256",
          "name": "gasLimit",
          "type": "uint256"
        }
      ],
      "name": "getTxCost",
      "outputs": [
        {
          "internalType": "uint256",
          "name": "",
          "type": "uint256"
        },
        {
          "internalType": "uint256",
          "name": "",
          "type": "uint256"
        }
      ],
      "stateMutability": "view",
      "type": "function"
    },
    {
      "inputs": [],
      "name": "typeAndVersion",
      "outputs": [
        {
          "internalType": "string",
          "name": "",
          "type": "string"
        }
      ],
      "stateMutability": "pure",
      "type": "function"
    }
  ],
  "bytecode": "0x6080604052348015600f57600080fd5b506104218061001f6000396000f3fe608060405234801561001057600080fd5b50600436106100415760003560e01c8063181f5a7714610046578063a073380c1461008e578063a158ff8b146100ce575b600080fd5b604080518082018252601681527f47617353746174696f6e5363726f6c6c20312e302e3000000000000000000000602082015290516100859190610222565b60405180910390f35b6100a973530000000000000000000000000000000000000281565b60405173ffffffffffffffffffffffffffffffffffffffff9091168152602001610085565b6100e16100dc36600461023c565b6100f6565b60408051928352602083019190915201610085565b600080600073530000000000000000000000000000000000000273ffffffffffffffffffffffffffffffffffffffff166349948e0e60405180610140016040528061011581526020016102d761011591396040518263ffffffff1660e01b81526004016101639190610222565b602060405180830381865afa158015610180573d6000803e3d6000fd5b505050506040513d601f19601f820116820180604052508101906101a49190610255565b905060006101b23a86610284565b905060006101c083836102a1565b905060006101ce87836102b4565b919791965090945050505050565b6000815180845260005b81811015610202576020818501810151868301820152016101e6565b506000602082860101526020601f19601f83011685010191505092915050565b60208152600061023560208301846101dc565b9392505050565b60006020828403121561024e57600080fd5b5035919050565b60006020828403121561026757600080fd5b5051919050565b634e487b7160e01b600052601160045260246000fd5b808202811582820484141761029b5761029b61026e565b92915050565b8082018082111561029b5761029b61026e565b6000826102d157634e487b7160e01b600052601260045260246000fd5b50049056feffffffffffffffffffffffffffffffffffffffffffffffffffffffffffffffffffffffffffffffffffffffffffffffffffffffffffffffffffffffffffffffffffffffffffffffffffffffffffffffffffffffffffffffffffffffffffffffffffffffffffffffffffffffffffffffffffffffffffffffffffffffffffffffffffffffffffffffffffffffffffffffffffffffffffffffffffffffffffffffffffffffffffffffffffffffffffffffffffffffffffffffffffffffffffffffffffffffffffffffffffffffffffffffffffffffffffffffffffffffffffffffffffffffffffffffffffffffffffffffffffffffffffffffffffffffffffffffffffffffffffffffffffffffffffffffffffffffffffa2646970667358221220373292128bc75a3fbb45bde8c61a47a282202f6e14fd75b1d47e8189b985662264736f6c634300081c0033",
  "linkReferences": {},
  "deployedLinkReferences": {}
}