{
  "_format": "hh-sol-artifact-1",
  "contractName": "Anyrand",
  "sourceName": "contracts/Anyrand.sol",
  "abi": [
    {
      "inputs": [],
      "stateMutability": "nonpayable",
      "type": "constructor"
    },
    {
      "inputs": [
        {
          "internalType": "address",
          "name": "target",
          "type": "address"
        }
      ],
      "name": "AddressEmptyCode",
      "type": "error"
    },
    {
      "inputs": [],
      "name": "AlreadyInitialized",
      "type": "error"
    },
    {
      "inputs": [
        {
          "internalType": "address",
          "name": "implementation",
          "type": "address"
        }
      ],
      "name": "ERC1967InvalidImplementation",
      "type": "error"
    },
    {
      "inputs": [],
      "name": "ERC1967NonPayable",
      "type": "error"
    },
    {
      "inputs": [],
      "name": "FailedInnerCall",
      "type": "error"
    },
    {
      "inputs": [
        {
          "internalType": "uint256",
          "name": "got",
          "type": "uint256"
        },
        {
          "internalType": "uint256",
          "name": "want",
          "type": "uint256"
        }
      ],
      "name": "IncorrectPayment",
      "type": "error"
    },
    {
      "inputs": [],
      "name": "InsufficientGas",
      "type": "error"
    },
    {
      "inputs": [
        {
          "internalType": "address",
          "name": "beacon",
          "type": "address"
        }
      ],
      "name": "InvalidBeacon",
      "type": "error"
    },
    {
      "inputs": [
        {
          "internalType": "uint256",
          "name": "deadline",
          "type": "uint256"
        }
      ],
      "name": "InvalidDeadline",
      "type": "error"
    },
    {
      "inputs": [],
      "name": "InvalidInitialization",
      "type": "error"
    },
    {
      "inputs": [
        {
          "internalType": "bytes32",
          "name": "requestHash",
          "type": "bytes32"
        }
      ],
      "name": "InvalidRequestHash",
      "type": "error"
    },
    {
      "inputs": [
        {
          "internalType": "enum IAnyrand.RequestState",
          "name": "state",
          "type": "uint8"
        }
      ],
      "name": "InvalidRequestState",
      "type": "error"
    },
    {
      "inputs": [],
      "name": "NewOwnerIsZeroAddress",
      "type": "error"
    },
    {
      "inputs": [],
      "name": "NoHandoverRequest",
      "type": "error"
    },
    {
      "inputs": [],
      "name": "NotInitializing",
      "type": "error"
    },
    {
      "inputs": [
        {
          "internalType": "uint256",
          "name": "callbackGasLimit",
          "type": "uint256"
        }
      ],
      "name": "OverGasLimit",
      "type": "error"
    },
    {
      "inputs": [],
      "name": "ReentrancyGuardReentrantCall",
      "type": "error"
    },
    {
      "inputs": [
        {
          "internalType": "address",
          "name": "to",
          "type": "address"
        },
        {
          "internalType": "uint256",
          "name": "value",
          "type": "uint256"
        }
      ],
      "name": "TransferFailed",
      "type": "error"
    },
    {
      "inputs": [],
      "name": "UUPSUnauthorizedCallContext",
      "type": "error"
    },
    {
      "inputs": [
        {
          "internalType": "bytes32",
          "name": "slot",
          "type": "bytes32"
        }
      ],
      "name": "UUPSUnsupportedProxiableUUID",
      "type": "error"
    },
    {
      "inputs": [],
      "name": "Unauthorized",
      "type": "error"
    },
    {
      "anonymous": false,
      "inputs": [
        {
          "indexed": true,
          "internalType": "address",
          "name": "newBeacon",
          "type": "address"
        }
      ],
      "name": "BeaconUpdated",
      "type": "event"
    },
    {
      "anonymous": false,
      "inputs": [
        {
          "indexed": false,
          "internalType": "uint256",
          "name": "amount",
          "type": "uint256"
        }
      ],
      "name": "ETHWithdrawn",
      "type": "event"
    },
    {
      "anonymous": false,
      "inputs": [
        {
          "indexed": true,
          "internalType": "address",
          "name": "newGasStation",
          "type": "address"
        }
      ],
      "name": "GasStationUpdated",
      "type": "event"
    },
    {
      "anonymous": false,
      "inputs": [
        {
          "indexed": false,
          "internalType": "uint64",
          "name": "version",
          "type": "uint64"
        }
      ],
      "name": "Initialized",
      "type": "event"
    },
    {
      "anonymous": false,
      "inputs": [
        {
          "indexed": false,
          "internalType": "uint256",
          "name": "newMaxCallbackGasLimit",
          "type": "uint256"
        }
      ],
      "name": "MaxCallbackGasLimitUpdated",
      "type": "event"
    },
    {
      "anonymous": false,
      "inputs": [
        {
          "indexed": false,
          "internalType": "uint256",
          "name": "maxDeadlineDelta",
          "type": "uint256"
        }
      ],
      "name": "MaxDeadlineDeltaUpdated",
      "type": "event"
    },
    {
      "anonymous": false,
      "inputs": [
        {
          "indexed": false,
          "internalType": "uint256",
          "name": "maxFeePerGas",
          "type": "uint256"
        }
      ],
      "name": "MaxFeePerGasUpdated",
      "type": "event"
    },
    {
      "anonymous": false,
      "inputs": [
        {
          "indexed": true,
          "internalType": "address",
          "name": "pendingOwner",
          "type": "address"
        }
      ],
      "name": "OwnershipHandoverCanceled",
      "type": "event"
    },
    {
      "anonymous": false,
      "inputs": [
        {
          "indexed": true,
          "internalType": "address",
          "name": "pendingOwner",
          "type": "address"
        }
      ],
      "name": "OwnershipHandoverRequested",
      "type": "event"
    },
    {
      "anonymous": false,
      "inputs": [
        {
          "indexed": true,
          "internalType": "address",
          "name": "oldOwner",
          "type": "address"
        },
        {
          "indexed": true,
          "internalType": "address",
          "name": "newOwner",
          "type": "address"
        }
      ],
      "name": "OwnershipTransferred",
      "type": "event"
    },
    {
      "anonymous": false,
      "inputs": [
        {
          "indexed": true,
          "internalType": "uint256",
          "name": "requestId",
          "type": "uint256"
        },
        {
          "indexed": false,
          "internalType": "bytes32",
          "name": "retdata",
          "type": "bytes32"
        },
        {
          "indexed": false,
          "internalType": "uint256",
          "name": "gasLimit",
          "type": "uint256"
        },
        {
          "indexed": false,
          "internalType": "uint256",
          "name": "actualGasUsed",
          "type": "uint256"
        }
      ],
      "name": "RandomnessCallbackFailed",
      "type": "event"
    },
    {
      "anonymous": false,
      "inputs": [
        {
          "indexed": true,
          "internalType": "uint256",
          "name": "requestId",
          "type": "uint256"
        },
        {
          "indexed": false,
          "internalType": "uint256",
          "name": "randomness",
          "type": "uint256"
        },
        {
          "indexed": false,
          "internalType": "bool",
          "name": "callbackSuccess",
          "type": "bool"
        },
        {
          "indexed": false,
          "internalType": "uint256",
          "name": "actualGasUsed",
          "type": "uint256"
        }
      ],
      "name": "RandomnessFulfilled",
      "type": "event"
    },
    {
      "anonymous": false,
      "inputs": [
        {
          "indexed": true,
          "internalType": "uint256",
          "name": "requestId",
          "type": "uint256"
        },
        {
          "indexed": true,
          "internalType": "address",
          "name": "requester",
          "type": "address"
        },
        {
          "indexed": true,
          "internalType": "bytes32",
          "name": "pubKeyHash",
          "type": "bytes32"
        },
        {
          "indexed": false,
          "internalType": "uint256",
          "name": "round",
          "type": "uint256"
        },
        {
          "indexed": false,
          "internalType": "uint256",
          "name": "callbackGasLimit",
          "type": "uint256"
        },
        {
          "indexed": false,
          "internalType": "uint256",
          "name": "feePaid",
          "type": "uint256"
        },
        {
          "indexed": false,
          "internalType": "uint256",
          "name": "effectiveFeePerGas",
          "type": "uint256"
        }
      ],
      "name": "RandomnessRequested",
      "type": "event"
    },
    {
      "anonymous": false,
      "inputs": [
        {
          "indexed": false,
          "internalType": "uint256",
          "name": "newPrice",
          "type": "uint256"
        }
      ],
      "name": "RequestPremiumMultiplierUpdated",
      "type": "event"
    },
    {
      "anonymous": false,
      "inputs": [
        {
          "indexed": true,
          "internalType": "address",
          "name": "implementation",
          "type": "address"
        }
      ],
      "name": "Upgraded",
      "type": "event"
    },
    {
      "inputs": [],
      "name": "UPGRADE_INTERFACE_VERSION",
      "outputs": [
        {
          "internalType": "string",
          "name": "",
          "type": "string"
        }
      ],
      "stateMutability": "view",
      "type": "function"
    },
    {
      "inputs": [
        {
          "internalType": "bytes32",
          "name": "pubkeyHash",
          "type": "bytes32"
        }
      ],
      "name": "beacon",
      "outputs": [
        {
          "internalType": "address",
          "name": "",
          "type": "address"
        }
      ],
      "stateMutability": "view",
      "type": "function"
    },
    {
      "inputs": [],
      "name": "cancelOwnershipHandover",
      "outputs": [],
      "stateMutability": "payable",
      "type": "function"
    },
    {
      "inputs": [
        {
          "internalType": "address",
          "name": "pendingOwner",
          "type": "address"
        }
      ],
      "name": "completeOwnershipHandover",
      "outputs": [],
      "stateMutability": "payable",
      "type": "function"
    },
    {
      "inputs": [],
      "name": "currentBeaconPubKeyHash",
      "outputs": [
        {
          "internalType": "bytes32",
          "name": "",
          "type": "bytes32"
        }
      ],
      "stateMutability": "view",
      "type": "function"
    },
    {
      "inputs": [
        {
          "internalType": "uint256",
          "name": "requestId",
          "type": "uint256"
        },
        {
          "internalType": "address",
          "name": "requester",
          "type": "address"
        },
        {
          "internalType": "bytes32",
          "name": "pubKeyHash",
          "type": "bytes32"
        },
        {
          "internalType": "uint256",
          "name": "round",
          "type": "uint256"
        },
        {
          "internalType": "uint256",
          "name": "callbackGasLimit",
          "type": "uint256"
        },
        {
          "internalType": "uint256[2]",
          "name": "signature",
          "type": "uint256[2]"
        }
      ],
      "name": "fulfillRandomness",
      "outputs": [],
      "stateMutability": "nonpayable",
      "type": "function"
    },
    {
      "inputs": [],
      "name": "gasStation",
      "outputs": [
        {
          "internalType": "address",
          "name": "",
          "type": "address"
        }
      ],
      "stateMutability": "view",
      "type": "function"
    },
    {
      "inputs": [
        {
          "internalType": "uint256",
          "name": "callbackGasLimit",
          "type": "uint256"
        }
      ],
      "name": "getRequestPrice",
      "outputs": [
        {
          "internalType": "uint256",
          "name": "",
          "type": "uint256"
        },
        {
          "internalType": "uint256",
          "name": "",
          "type": "uint256"
        }
      ],
      "stateMutability": "view",
      "type": "function"
    },
    {
      "inputs": [
        {
          "internalType": "uint256",
          "name": "requestId",
          "type": "uint256"
        }
      ],
      "name": "getRequestState",
      "outputs": [
        {
          "internalType": "enum IAnyrand.RequestState",
          "name": "",
          "type": "uint8"
        }
      ],
      "stateMutability": "view",
      "type": "function"
    },
    {
      "inputs": [
        {
          "internalType": "uint256",
          "name": "genesis",
          "type": "uint256"
        },
        {
          "internalType": "uint256",
          "name": "deadline",
          "type": "uint256"
        },
        {
          "internalType": "uint256",
          "name": "period",
          "type": "uint256"
        }
      ],
      "name": "getRound",
      "outputs": [
        {
          "internalType": "uint64",
          "name": "",
          "type": "uint64"
        }
      ],
      "stateMutability": "pure",
      "type": "function"
    },
    {
      "inputs": [
        {
          "internalType": "address",
          "name": "beacon_",
          "type": "address"
        },
        {
          "internalType": "uint256",
          "name": "requestPremiumMultiplierBps_",
          "type": "uint256"
        },
        {
          "internalType": "uint256",
          "name": "maxCallbackGasLimit_",
          "type": "uint256"
        },
        {
          "internalType": "uint256",
          "name": "maxDeadlineDelta_",
          "type": "uint256"
        },
        {
          "internalType": "address",
          "name": "gasStation_",
          "type": "address"
        },
        {
          "internalType": "uint256",
          "name": "maxFeePerGas_",
          "type": "uint256"
        }
      ],
      "name": "init",
      "outputs": [],
      "stateMutability": "nonpayable",
      "type": "function"
    },
    {
      "inputs": [],
      "name": "maxCallbackGasLimit",
      "outputs": [
        {
          "internalType": "uint256",
          "name": "",
          "type": "uint256"
        }
      ],
      "stateMutability": "view",
      "type": "function"
    },
    {
      "inputs": [],
      "name": "maxDeadlineDelta",
      "outputs": [
        {
          "internalType": "uint256",
          "name": "",
          "type": "uint256"
        }
      ],
      "stateMutability": "view",
      "type": "function"
    },
    {
      "inputs": [],
      "name": "maxFeePerGas",
      "outputs": [
        {
          "internalType": "uint256",
          "name": "",
          "type": "uint256"
        }
      ],
      "stateMutability": "view",
      "type": "function"
    },
    {
      "inputs": [],
      "name": "nextRequestId",
      "outputs": [
        {
          "internalType": "uint256",
          "name": "",
          "type": "uint256"
        }
      ],
      "stateMutability": "view",
      "type": "function"
    },
    {
      "inputs": [],
      "name": "owner",
      "outputs": [
        {
          "internalType": "address",
          "name": "result",
          "type": "address"
        }
      ],
      "stateMutability": "view",
      "type": "function"
    },
    {
      "inputs": [
        {
          "internalType": "address",
          "name": "pendingOwner",
          "type": "address"
        }
      ],
      "name": "ownershipHandoverExpiresAt",
      "outputs": [
        {
          "internalType": "uint256",
          "name": "result",
          "type": "uint256"
        }
      ],
      "stateMutability": "view",
      "type": "function"
    },
    {
      "inputs": [],
      "name": "proxiableUUID",
      "outputs": [
        {
          "internalType": "bytes32",
          "name": "",
          "type": "bytes32"
        }
      ],
      "stateMutability": "view",
      "type": "function"
    },
    {
      "inputs": [],
      "name": "renounceOwnership",
      "outputs": [],
      "stateMutability": "payable",
      "type": "function"
    },
    {
      "inputs": [],
      "name": "requestOwnershipHandover",
      "outputs": [],
      "stateMutability": "payable",
      "type": "function"
    },
    {
      "inputs": [],
      "name": "requestPremiumMultiplierBps",
      "outputs": [
        {
          "internalType": "uint256",
          "name": "",
          "type": "uint256"
        }
      ],
      "stateMutability": "view",
      "type": "function"
    },
    {
      "inputs": [
        {
          "internalType": "uint256",
          "name": "deadline",
          "type": "uint256"
        },
        {
          "internalType": "uint256",
          "name": "callbackGasLimit",
          "type": "uint256"
        }
      ],
      "name": "requestRandomness",
      "outputs": [
        {
          "internalType": "uint256",
          "name": "",
          "type": "uint256"
        }
      ],
      "stateMutability": "payable",
      "type": "function"
    },
    {
      "inputs": [
        {
          "internalType": "uint256",
          "name": "requestId",
          "type": "uint256"
        }
      ],
      "name": "requests",
      "outputs": [
        {
          "internalType": "bytes32",
          "name": "",
          "type": "bytes32"
        }
      ],
      "stateMutability": "view",
      "type": "function"
    },
    {
      "inputs": [
        {
          "internalType": "address",
          "name": "newBeacon",
          "type": "address"
        }
      ],
      "name": "setBeacon",
      "outputs": [],
      "stateMutability": "nonpayable",
      "type": "function"
    },
    {
      "inputs": [
        {
          "internalType": "address",
          "name": "newGasStation",
          "type": "address"
        }
      ],
      "name": "setGasStation",
      "outputs": [],
      "stateMutability": "nonpayable",
      "type": "function"
    },
    {
      "inputs": [
        {
          "internalType": "uint256",
          "name": "newMaxCallbackGasLimit",
          "type": "uint256"
        }
      ],
      "name": "setMaxCallbackGasLimit",
      "outputs": [],
      "stateMutability": "nonpayable",
      "type": "function"
    },
    {
      "inputs": [
        {
          "internalType": "uint256",
          "name": "newMaxDeadlineDelta",
          "type": "uint256"
        }
      ],
      "name": "setMaxDeadlineDelta",
      "outputs": [],
      "stateMutability": "nonpayable",
      "type": "function"
    },
    {
      "inputs": [
        {
          "internalType": "uint256",
          "name": "newRequestPremiumMultiplierBps",
          "type": "uint256"
        }
      ],
      "name": "setRequestPremiumMultiplierBps",
      "outputs": [],
      "stateMutability": "nonpayable",
      "type": "function"
    },
    {
      "inputs": [
        {
          "internalType": "address",
          "name": "newOwner",
          "type": "address"
        }
      ],
      "name": "transferOwnership",
      "outputs": [],
      "stateMutability": "payable",
      "type": "function"
    },
    {
      "inputs": [],
      "name": "typeAndVersion",
      "outputs": [
        {
          "internalType": "string",
          "name": "",
          "type": "string"
        }
      ],
      "stateMutability": "pure",
      "type": "function"
    },
    {
      "inputs": [
        {
          "internalType": "address",
          "name": "newImplementation",
          "type": "address"
        },
        {
          "internalType": "bytes",
          "name": "data",
          "type": "bytes"
        }
      ],
      "name": "upgradeToAndCall",
      "outputs": [],
      "stateMutability": "payable",
      "type": "function"
    },
    {
      "inputs": [
        {
          "internalType": "uint256",
          "name": "amount",
          "type": "uint256"
        }
      ],
      "name": "withdrawETH",
      "outputs": [],
      "stateMutability": "nonpayable",
      "type": "function"
    }
  ],
  "bytecode": "0x60a06040523060805234801561001457600080fd5b5061001d610022565b6100d4565b7ff0c57e16840df040f15088dc2f81fe391c3923bec73e23a9662efc9c229c6a00805468010000000000000000900460ff16156100725760405163f92ee8a960e01b815260040160405180910390fd5b80546001600160401b03908116146100d15780546001600160401b0319166001600160401b0390811782556040519081527fc7f505b2f371ae2175ee4913f4499e1f2633a7b5936321eed1cdaeb6115181d29060200160405180910390a15b50565b6080516124266100fd6000396000818161188f015281816118b80152611a3b01526124266000f3fe6080604052600436106101e35760003560e01c80638da5cb5b11610102578063ed979dd611610095578063f14210a611610064578063f14210a6146106af578063f2fde38b146106cf578063fc679411146106e2578063fee81cf41461071b57600080fd5b8063ed979dd6146105b7578063eddcef8514610613578063f01a214014610668578063f04e283e1461069c57600080fd5b8063ad3cb1cc116100d1578063ad3cb1cc146104f1578063d42afb561461053a578063dbb602fd1461055a578063e3073fb71461059757600080fd5b80638da5cb5b1461045057806394aa6a4b1461047d57806395415d431461049d578063a31659f6146104bd57600080fd5b806352d1902d1161017a578063715018a611610149578063715018a6146103a85780637b49e281146103b05780637eeef9a9146103e457806381d12c581461040457600080fd5b806352d1902d1461033757806354d1f13d1461034c57806355face6d146103545780636a84a9851461037457600080fd5b806325692962116101b657806325692962146102b45780632728bf2c146102bc57806338e576c8146102f05780634f1ef2861461032457600080fd5b806308a957a9146101e857806310b0d1d21461020a578063181f5a77146102445780631f53cf0414610293575b600080fd5b3480156101f457600080fd5b50610208610203366004611fb2565b61074e565b005b34801561021657600080fd5b5061022a610225366004611fcd565b6107f0565b604080519283526020830191909152015b60405180910390f35b34801561025057600080fd5b5060408051808201909152600d81527f416e7972616e6420312e302e300000000000000000000000000000000000000060208201525b60405161023b919061200a565b6102a66102a136600461203d565b61090c565b60405190815260200161023b565b610208610d2a565b3480156102c857600080fd5b507f73bb1f7ad954352194401771e442b57f02df3da05251c4536bf437f932f99207546102a6565b3480156102fc57600080fd5b507f73bb1f7ad954352194401771e442b57f02df3da05251c4536bf437f932f99203546102a6565b610208610332366004612075565b610d7a565b34801561034357600080fd5b506102a6610d99565b610208610dc8565b34801561036057600080fd5b5061020861036f36600461213f565b610e04565b34801561038057600080fd5b507f73bb1f7ad954352194401771e442b57f02df3da05251c4536bf437f932f99204546102a6565b6102086110be565b3480156103bc57600080fd5b507f73bb1f7ad954352194401771e442b57f02df3da05251c4536bf437f932f99202546102a6565b3480156103f057600080fd5b506102086103ff366004611fcd565b6110d2565b34801561041057600080fd5b506102a661041f366004611fcd565b60009081527f73bb1f7ad954352194401771e442b57f02df3da05251c4536bf437f932f99205602052604090205490565b34801561045c57600080fd5b50638b78c6d819545b6040516001600160a01b03909116815260200161023b565b34801561048957600080fd5b50610208610498366004611fcd565b611158565b3480156104a957600080fd5b506102086104b8366004612199565b6111d6565b3480156104c957600080fd5b507f73bb1f7ad954352194401771e442b57f02df3da05251c4536bf437f932f99200546102a6565b3480156104fd57600080fd5b506102866040518060400160405280600581526020017f352e302e3000000000000000000000000000000000000000000000000000000081525081565b34801561054657600080fd5b50610208610555366004611fb2565b6115f6565b34801561056657600080fd5b507f73bb1f7ad954352194401771e442b57f02df3da05251c4536bf437f932f99206546001600160a01b0316610465565b3480156105a357600080fd5b506102086105b2366004611fcd565b61160a565b3480156105c357600080fd5b506106066105d2366004611fcd565b60009081527f73bb1f7ad954352194401771e442b57f02df3da05251c4536bf437f932f99208602052604090205460ff1690565b60405161023b919061220f565b34801561061f57600080fd5b5061046561062e366004611fcd565b60009081527f73bb1f7ad954352194401771e442b57f02df3da05251c4536bf437f932f9920960205260409020546001600160a01b031690565b34801561067457600080fd5b507f73bb1f7ad954352194401771e442b57f02df3da05251c4536bf437f932f99201546102a6565b6102086106aa366004611fb2565b611688565b3480156106bb57600080fd5b506102086106ca366004611fcd565b6116c5565b6102086106dd366004611fb2565b611793565b3480156106ee57600080fd5b506107026106fd366004612237565b6117ba565b60405167ffffffffffffffff909116815260200161023b565b34801561072757600080fd5b506102a6610736366004611fb2565b63389a75e1600c908152600091909152602090205490565b610756611806565b7f73bb1f7ad954352194401771e442b57f02df3da05251c4536bf437f932f99206805473ffffffffffffffffffffffffffffffffffffffff19166001600160a01b0383169081179091556040517f73bb1f7ad954352194401771e442b57f02df3da05251c4536bf437f932f9920091907feace2e43f1e38a3104cd1d140b379c1e6f5283916eef36bff925e63a329ab79990600090a25050565b7f73bb1f7ad954352194401771e442b57f02df3da05251c4536bf437f932f992065460009081907f73bb1f7ad954352194401771e442b57f02df3da05251c4536bf437f932f9920090829081906001600160a01b031663a158ff8b6108588862030d40612279565b6040518263ffffffff1660e01b815260040161087691815260200190565b6040805180830381865afa158015610892573d6000803e3d6000fd5b505050506040513d601f19601f820116820180604052508101906108b6919061228c565b9150915060006127108460010154846108cf91906122b0565b6108d991906122dd565b90508360070154821115610901578684600701546108f791906122b0565b9050836007015491505b969095509350505050565b6000610916611821565b600080610922846107f0565b9150915081341461096d576040517f0d35e921000000000000000000000000000000000000000000000000000000008152346004820152602481018390526044015b60405180910390fd5b7f73bb1f7ad954352194401771e442b57f02df3da05251c4536bf437f932f99202547f73bb1f7ad954352194401771e442b57f02df3da05251c4536bf437f932f99200908511156109ed576040517f45453f3700000000000000000000000000000000000000000000000000000000815260048101869052602401610964565b8054600081815260098301602090815260408083205481517f5e7e341600000000000000000000000000000000000000000000000000000000815291516001600160a01b03909116928392635e7e341692600480830193928290030181865afa158015610a5e573d6000803e3d6000fd5b505050506040513d601f19601f82011682018060405250810190610a8291906122f1565b92506000816001600160a01b031663cacf66ab6040518163ffffffff1660e01b8152600401602060405180830381865afa158015610ac4573d6000803e3d6000fd5b505050506040513d601f19601f82011682018060405250810190610ae891906122f1565b90506000826001600160a01b031663ef78d4fd6040518163ffffffff1660e01b8152600401602060405180830381865afa158015610b2a573d6000803e3d6000fd5b505050506040513d601f19601f82011682018060405250810190610b4e91906122f1565b9050856003015442610b609190612279565b8b1180610b6c5750818b105b80610b7f5750610b7c8142612279565b8b105b15610bb9576040517f277b2d74000000000000000000000000000000000000000000000000000000008152600481018c9052602401610964565b610bc4828c836117ba565b93505050506000836004016000815480929190610be09061230a565b90915550905060008082815260088601602052604090205460ff166003811115610c0c57610c0c6121f9565b14610c1957610c19612323565b6000818152600885016020908152604091829020805460ff191660011790558151468183015230818401526060810184905233608082015260a0810186905267ffffffffffffffff851660c082015260e08082018c9052835180830390910181526101009091019092528151910120600082815260058601602090815260409182902092909255805167ffffffffffffffff851681529182018a90528101879052606081018690528390339083907f4d742ad77e9e8ee172d944c464321fc0e5c49465017bf65357c77b62de3a1b589060800160405180910390a495505050505050610d2460017f9b779b17422d0df92223018b32b4d1fa46e071723d6817e2486d003becc55f0055565b92915050565b60006202a30067ffffffffffffffff164201905063389a75e1600c5233600052806020600c2055337fdbf36a107da19e49527a7176a1babf963b4b0ff8cde35ee35d6cd8f1f9ac7e1d600080a250565b610d82611884565b610d8b8261193b565b610d958282611943565b5050565b6000610da3611a30565b507f360894a13ba1a3210667c828492db98dca3e2076cc3735a920a3ca505d382bbc90565b63389a75e1600c523360005260006020600c2055337ffa7b8eab7da67f412cc9575ed43464468f9bfbae89d1675917346ca6d8fe3c92600080a2565b7ff0c57e16840df040f15088dc2f81fe391c3923bec73e23a9662efc9c229c6a00805468010000000000000000810460ff16159067ffffffffffffffff16600081158015610e4f5750825b905060008267ffffffffffffffff166001148015610e6c5750303b155b905081158015610e7a575080155b15610eb1576040517ff92ee8a900000000000000000000000000000000000000000000000000000000815260040160405180910390fd5b845467ffffffffffffffff191660011785558315610ee557845468ff00000000000000001916680100000000000000001785555b610eed611a79565b610ef633611a81565b7f73bb1f7ad954352194401771e442b57f02df3da05251c4536bf437f932f99200610f208c611abd565b60016004820181905581018b90556040518b81527fe7af51792ad24f09099d1aa1b9ce24a68de1b1b1ceff0ae3b861cd25cb483ede9060200160405180910390a1600281018a90556040518a81527f134a3c9ab0f6f4624f16cae2e8b5ed62e867f01bae73ab143b957c2a2e6c9ee59060200160405180910390a1600381018990556040518981527f4bdf088aaa547d0a8b8f4aa78a191f0faf72f3bc7fddd8d39be2492d883684789060200160405180910390a160068101805473ffffffffffffffffffffffffffffffffffffffff19166001600160a01b038a169081179091556040517feace2e43f1e38a3104cd1d140b379c1e6f5283916eef36bff925e63a329ab79990600090a2600781018790556040518781527ffc932d0f51343f664c735ccefa1ee05d148cffdd438cdc72966c6029305016a69060200160405180910390a15083156110b157845468ff000000000000000019168555604051600181527fc7f505b2f371ae2175ee4913f4499e1f2633a7b5936321eed1cdaeb6115181d29060200160405180910390a15b5050505050505050505050565b6110c6611806565b6110d06000611c3e565b565b6110da611806565b7f73bb1f7ad954352194401771e442b57f02df3da05251c4536bf437f932f992018190556040518181527f73bb1f7ad954352194401771e442b57f02df3da05251c4536bf437f932f99200907fe7af51792ad24f09099d1aa1b9ce24a68de1b1b1ceff0ae3b861cd25cb483ede906020015b60405180910390a15050565b611160611806565b7f73bb1f7ad954352194401771e442b57f02df3da05251c4536bf437f932f992028190556040518181527f73bb1f7ad954352194401771e442b57f02df3da05251c4536bf437f932f99200907f134a3c9ab0f6f4624f16cae2e8b5ed62e867f01bae73ab143b957c2a2e6c9ee59060200161114c565b6111de611821565b60008681527f73bb1f7ad954352194401771e442b57f02df3da05251c4536bf437f932f9920860205260409020547f73bb1f7ad954352194401771e442b57f02df3da05251c4536bf437f932f992009060019060ff166003811115611245576112456121f9565b14611292576000878152600882016020526040908190205490517f1d8105940000000000000000000000000000000000000000000000000000000081526109649160ff169060040161220f565b60408051466020808301919091523082840152606082018a90526001600160a01b038916608083015260a0820188905260c0820187905260e080830187905283518084039091018152610100909201835281519181019190912060008a815260058501909252919020548114611337576040517fa537f75800000000000000000000000000000000000000000000000000000000815260048101829052602401610964565b6000888152600583016020908152604080832083905588835260098501909152908190205490517fe3d4ff160000000000000000000000000000000000000000000000000000000081526001600160a01b039091169063e3d4ff16906113a39088908790600401612339565b600060405180830381600087803b1580156113bd57600080fd5b505af11580156113d1573d6000803e3d6000fd5b505050506000836000600281106113ea576113ea61234f565b604080516020928302939093013583830152908601359082015246606082015230608082015260a081018a90526001600160a01b03891660c082015260e00160408051601f1981840301815282825280516020918201209083018c9052908201819052915060009081906114b39088908c907f210b9f03000000000000000000000000000000000000000000000000000000009060600160408051601f198184030181529082905261149f9291602001612365565b604051602081830303815290604052611c7c565b91509150816115605760006114e3565b6000828210600181146114d8578391506114dc565b8291505b5092915050565b600080523d6114f36020826114c3565b6000803e505060005160408051828152602081018a90529081018390528c907f593290c667cb0c88d24734b31a95f8ae731fe3ae3ca3e3439ddcaf24b4c89be19060600160405180910390a25060008b81526008860160205260409020805460ff1916600317905561157c565b60008b81526008860160205260409020805460ff191660021790555b6040805184815283151560208201529081018290528b907fa3e5c16005338901ba1b866e14b095a75e88ad9432e26075e6d6edad9cf73f579060600160405180910390a250505050506115ee60017f9b779b17422d0df92223018b32b4d1fa46e071723d6817e2486d003becc55f0055565b505050505050565b6115fe611806565b61160781611abd565b50565b611612611806565b7f73bb1f7ad954352194401771e442b57f02df3da05251c4536bf437f932f992038190556040518181527f73bb1f7ad954352194401771e442b57f02df3da05251c4536bf437f932f99200907f4bdf088aaa547d0a8b8f4aa78a191f0faf72f3bc7fddd8d39be2492d883684789060200161114c565b611690611806565b63389a75e1600c52806000526020600c2080544211156116b857636f5e88186000526004601cfd5b6000905561160781611c3e565b6116cd611806565b806000036116d85750475b604051600090339083908381818185875af1925050503d806000811461171a576040519150601f19603f3d011682016040523d82523d6000602084013e61171f565b606091505b5050905080611763576040517f1c43b97600000000000000000000000000000000000000000000000000000000815233600482015260248101839052604401610964565b6040518281527f043f607a14d3b4f0a11a0b2e192bbfcd894298ba5abf22553be6081406db28aa9060200161114c565b61179b611806565b8060601b6117b157637448fbae6000526004601cfd5b61160781611c3e565b6000806117c785856123ad565b905060006117d584836123c0565b116117e15760006117e4565b60015b60ff166117f184836122dd565b6117fb9190612279565b9150505b9392505050565b638b78c6d8195433146110d0576382b429006000526004601cfd5b7f9b779b17422d0df92223018b32b4d1fa46e071723d6817e2486d003becc55f0080546001190161187e576040517f3ee5aeb500000000000000000000000000000000000000000000000000000000815260040160405180910390fd5b60029055565b306001600160a01b037f000000000000000000000000000000000000000000000000000000000000000016148061191d57507f00000000000000000000000000000000000000000000000000000000000000006001600160a01b03166119117f360894a13ba1a3210667c828492db98dca3e2076cc3735a920a3ca505d382bbc546001600160a01b031690565b6001600160a01b031614155b156110d05760405163703e46dd60e11b815260040160405180910390fd5b611607611806565b816001600160a01b03166352d1902d6040518163ffffffff1660e01b8152600401602060405180830381865afa92505050801561199d575060408051601f3d908101601f1916820190925261199a918101906122f1565b60015b6119c557604051634c9c8ce360e01b81526001600160a01b0383166004820152602401610964565b7f360894a13ba1a3210667c828492db98dca3e2076cc3735a920a3ca505d382bbc8114611a21576040517faa1d49a400000000000000000000000000000000000000000000000000000000815260048101829052602401610964565b611a2b8383611ca4565b505050565b306001600160a01b037f000000000000000000000000000000000000000000000000000000000000000016146110d05760405163703e46dd60e11b815260040160405180910390fd5b6110d0611cfa565b6001600160a01b0316638b78c6d8198190558060007f8be0079c531659141344cd1fd0a4f28419497f9722a3daafe3b4186f6b6457e08180a350565b806001600160a01b0316635e7e34166040518163ffffffff1660e01b8152600401602060405180830381865afa925050508015611b17575060408051601f3d908101601f19168201909252611b14918101906122f1565b60015b611b3f57604051638ebc912f60e01b81526001600160a01b0382166004820152602401610964565b801580611b6b57507fc5d2460186f7233c927e7db2dcc703c0e500b653ca82273b7bfad8045d85a47081145b15611b9457604051638ebc912f60e01b81526001600160a01b0383166004820152602401610964565b60008181527f73bb1f7ad954352194401771e442b57f02df3da05251c4536bf437f932f992096020526040808220805473ffffffffffffffffffffffffffffffffffffffff19166001600160a01b0386169081179091557f73bb1f7ad954352194401771e442b57f02df3da05251c4536bf437f932f992008481559151919290917fb6c98a2d14fe1d3cc6112a6fab11204e6e526a4e568d000a85f55dac167b94839190a2505050565b638b78c6d81980546001600160a01b039092169182907f8be0079c531659141344cd1fd0a4f28419497f9722a3daafe3b4186f6b6457e0600080a355565b6000805a9050611c8d858585611d61565b91505a611c9a90826123ad565b9050935093915050565b611cad82611dad565b6040516001600160a01b038316907fbc7cd75a20ee27fd9adebab32041f755214dbc6bffa90cc0225b39da2e5c2d3b90600090a2805115611cf257611a2b8282611e31565b610d95611ea7565b7ff0c57e16840df040f15088dc2f81fe391c3923bec73e23a9662efc9c229c6a005468010000000000000000900460ff166110d0576040517fd7e6bcf800000000000000000000000000000000000000000000000000000000815260040160405180910390fd5b60005a611388811015611d7357600080fd5b611388810390508460408204820311611d8b57600080fd5b50823b611d9757600080fd5b60008083516020850160008789f1949350505050565b806001600160a01b03163b600003611de357604051634c9c8ce360e01b81526001600160a01b0382166004820152602401610964565b7f360894a13ba1a3210667c828492db98dca3e2076cc3735a920a3ca505d382bbc805473ffffffffffffffffffffffffffffffffffffffff19166001600160a01b0392909216919091179055565b6060600080846001600160a01b031684604051611e4e91906123d4565b600060405180830381855af49150503d8060008114611e89576040519150601f19603f3d011682016040523d82523d6000602084013e611e8e565b606091505b5091509150611e9e858383611edf565b95945050505050565b34156110d0576040517fb398979f00000000000000000000000000000000000000000000000000000000815260040160405180910390fd5b606082611ef457611eef82611f54565b6117ff565b8151158015611f0b57506001600160a01b0384163b155b15611f4d576040517f9996b3150000000000000000000000000000000000000000000000000000000081526001600160a01b0385166004820152602401610964565b50806117ff565b805115611f645780518082602001fd5b6040517f1425ea4200000000000000000000000000000000000000000000000000000000815260040160405180910390fd5b80356001600160a01b0381168114611fad57600080fd5b919050565b600060208284031215611fc457600080fd5b6117ff82611f96565b600060208284031215611fdf57600080fd5b5035919050565b60005b83811015612001578181015183820152602001611fe9565b50506000910152565b6020815260008251806020840152612029816040850160208701611fe6565b601f01601f19169190910160400192915050565b6000806040838503121561205057600080fd5b50508035926020909101359150565b634e487b7160e01b600052604160045260246000fd5b6000806040838503121561208857600080fd5b61209183611f96565b9150602083013567ffffffffffffffff8111156120ad57600080fd5b8301601f810185136120be57600080fd5b803567ffffffffffffffff8111156120d8576120d861205f565b604051601f8201601f19908116603f0116810167ffffffffffffffff811182821017156121075761210761205f565b60405281815282820160200187101561211f57600080fd5b816020840160208301376000602083830101528093505050509250929050565b60008060008060008060c0878903121561215857600080fd5b61216187611f96565b955060208701359450604087013593506060870135925061218460808801611f96565b9598949750929591949360a090920135925050565b60008060008060008060e087890312156121b257600080fd5b863595506121c260208801611f96565b945060408701359350606087013592506080870135915060e087018810156121e957600080fd5b60a0870190509295509295509295565b634e487b7160e01b600052602160045260246000fd5b602081016004831061223157634e487b7160e01b600052602160045260246000fd5b91905290565b60008060006060848603121561224c57600080fd5b505081359360208301359350604090920135919050565b634e487b7160e01b600052601160045260246000fd5b80820180821115610d2457610d24612263565b6000806040838503121561229f57600080fd5b505080516020909101519092909150565b8082028115828204841417610d2457610d24612263565b634e487b7160e01b600052601260045260246000fd5b6000826122ec576122ec6122c7565b500490565b60006020828403121561230357600080fd5b5051919050565b60006001820161231c5761231c612263565b5060010190565b634e487b7160e01b600052600160045260246000fd5b8281526060810160408360208401379392505050565b634e487b7160e01b600052603260045260246000fd5b7fffffffff00000000000000000000000000000000000000000000000000000000831681526000825161239f816004850160208701611fe6565b919091016004019392505050565b81810381811115610d2457610d24612263565b6000826123cf576123cf6122c7565b500690565b600082516123e6818460208701611fe6565b919091019291505056fea26469706673582212204ab431dead71256a4825942c6096d8492ecca6eb342cc8b6bf69a52a8451af4264736f6c634300081c0033",
  "linkReferences": {},
  "deployedLinkReferences": {}
}