{
  "_format": "hh-sol-artifact-1",
  "contractName": "AnyrandConsumer",
  "sourceName": "contracts/example/AnyrandConsumer.sol",
  "abi": [
    {
      "inputs": [
        {
          "internalType": "address",
          "name": "anyrand_",
          "type": "address"
        }
      ],
      "stateMutability": "nonpayable",
      "type": "constructor"
    },
    {
      "inputs": [
        {
          "internalType": "address",
          "name": "owner",
          "type": "address"
        }
      ],
      "name": "OwnableInvalidOwner",
      "type": "error"
    },
    {
      "inputs": [
        {
          "internalType": "address",
          "name": "account",
          "type": "address"
        }
      ],
      "name": "OwnableUnauthorizedAccount",
      "type": "error"
    },
    {
      "anonymous": false,
      "inputs": [
        {
          "indexed": true,
          "internalType": "address",
          "name": "previousOwner",
          "type": "address"
        },
        {
          "indexed": true,
          "internalType": "address",
          "name": "newOwner",
          "type": "address"
        }
      ],
      "name": "OwnershipTransferred",
      "type": "event"
    },
    {
      "anonymous": false,
      "inputs": [
        {
          "indexed": false,
          "internalType": "uint256",
          "name": "randomness",
          "type": "uint256"
        }
      ],
      "name": "RandomnessReceived",
      "type": "event"
    },
    {
      "inputs": [],
      "name": "anyrand",
      "outputs": [
        {
          "internalType": "address",
          "name": "",
          "type": "address"
        }
      ],
      "stateMutability": "view",
      "type": "function"
    },
    {
      "inputs": [
        {
          "internalType": "uint256",
          "name": "secondsToWait",
          "type": "uint256"
        },
        {
          "internalType": "uint256",
          "name": "callbackGasLimit",
          "type": "uint256"
        }
      ],
      "name": "getRandom",
      "outputs": [],
      "stateMutability": "payable",
      "type": "function"
    },
    {
      "inputs": [],
      "name": "owner",
      "outputs": [
        {
          "internalType": "address",
          "name": "",
          "type": "address"
        }
      ],
      "stateMutability": "view",
      "type": "function"
    },
    {
      "inputs": [
        {
          "internalType": "uint256",
          "name": "requestId",
          "type": "uint256"
        }
      ],
      "name": "randomness",
      "outputs": [
        {
          "internalType": "uint256",
          "name": "",
          "type": "uint256"
        }
      ],
      "stateMutability": "view",
      "type": "function"
    },
    {
      "inputs": [
        {
          "internalType": "uint256",
          "name": "requestId",
          "type": "uint256"
        },
        {
          "internalType": "uint256[]",
          "name": "randomWords",
          "type": "uint256[]"
        }
      ],
      "name": "receiveRandomWords",
      "outputs": [],
      "stateMutability": "nonpayable",
      "type": "function"
    },
    {
      "inputs": [],
      "name": "renounceOwnership",
      "outputs": [],
      "stateMutability": "nonpayable",
      "type": "function"
    },
    {
      "inputs": [
        {
          "internalType": "address",
          "name": "newOwner",
          "type": "address"
        }
      ],
      "name": "transferOwnership",
      "outputs": [],
      "stateMutability": "nonpayable",
      "type": "function"
    }
  ],
  "bytecode": "0x60a060405234801561001057600080fd5b506040516106fc3803806106fc83398101604081905261002f916100c0565b338061005557604051631e4fbdf760e01b81526000600482015260240160405180910390fd5b61005e81610070565b506001600160a01b03166080526100f0565b600080546001600160a01b038381166001600160a01b0319831681178455604051919092169283917f8be0079c531659141344cd1fd0a4f28419497f9722a3daafe3b4186f6b6457e09190a35050565b6000602082840312156100d257600080fd5b81516001600160a01b03811681146100e957600080fd5b9392505050565b6080516105e46101186000396000818160c701528181610195015261026501526105e46000f3fe6080604052600436106100705760003560e01c8063715018a61161004e578063715018a6146101165780638da5cb5b1461012b578063a0c4615c14610149578063f2fde38b1461016957600080fd5b80631b1d5b271461007557806350ad03ae146100b5578063655b08eb14610101575b600080fd5b34801561008157600080fd5b506100a261009036600461046e565b60016020526000908152604090205481565b6040519081526020015b60405180910390f35b3480156100c157600080fd5b506100e97f000000000000000000000000000000000000000000000000000000000000000081565b6040516001600160a01b0390911681526020016100ac565b61011461010f366004610487565b610189565b005b34801561012257600080fd5b50610114610246565b34801561013757600080fd5b506000546001600160a01b03166100e9565b34801561015557600080fd5b506101146101643660046104a9565b61025a565b34801561017557600080fd5b50610114610184366004610528565b610369565b60006001600160a01b037f000000000000000000000000000000000000000000000000000000000000000016631f53cf04346101c58642610558565b856040518463ffffffff1660e01b81526004016101ec929190918252602082015260400190565b60206040518083038185885af115801561020a573d6000803e3d6000fd5b50505050506040513d601f19601f8201168201806040525081019061022f919061057f565b600090815260016020819052604090912055505050565b61024e6103c0565b6102586000610406565b565b336001600160a01b037f000000000000000000000000000000000000000000000000000000000000000016146102d75760405162461bcd60e51b815260206004820152601860248201527f4f6e6c792063616c6c61626c6520627920416e7972616e64000000000000000060448201526064015b60405180910390fd5b600083815260016020819052604090912054146103365760405162461bcd60e51b815260206004820152601160248201527f556e6b6e6f776e2072657175657374496400000000000000000000000000000060448201526064016102ce565b8181600081811061034957610349610598565b600095865260016020908152604090962095029190910135909355505050565b6103716103c0565b6001600160a01b0381166103b4576040517f1e4fbdf7000000000000000000000000000000000000000000000000000000008152600060048201526024016102ce565b6103bd81610406565b50565b6000546001600160a01b03163314610258576040517f118cdaa70000000000000000000000000000000000000000000000000000000081523360048201526024016102ce565b600080546001600160a01b038381167fffffffffffffffffffffffff0000000000000000000000000000000000000000831681178455604051919092169283917f8be0079c531659141344cd1fd0a4f28419497f9722a3daafe3b4186f6b6457e09190a35050565b60006020828403121561048057600080fd5b5035919050565b6000806040838503121561049a57600080fd5b50508035926020909101359150565b6000806000604084860312156104be57600080fd5b83359250602084013567ffffffffffffffff808211156104dd57600080fd5b818601915086601f8301126104f157600080fd5b81358181111561050057600080fd5b8760208260051b850101111561051557600080fd5b6020830194508093505050509250925092565b60006020828403121561053a57600080fd5b81356001600160a01b038116811461055157600080fd5b9392505050565b8082018082111561057957634e487b7160e01b600052601160045260246000fd5b92915050565b60006020828403121561059157600080fd5b5051919050565b634e487b7160e01b600052603260045260246000fdfea2646970667358221220f2f3ac13d71aec2d5dd4c612568721022420a16b9a0e821438e90a51bd27ef2364736f6c63430008170033",
  "linkReferences": {},
  "deployedLinkReferences": {}
}