{
  "_format": "hh-sol-artifact-1",
  "contractName": "AnyrandFixedFee",
  "sourceName": "contracts/networks/AnyrandFixedFee.sol",
  "abi": [
    {
      "inputs": [
        {
          "internalType": "uint256[4]",
          "name": "publicKey_",
          "type": "uint256[4]"
        },
        {
          "internalType": "uint256",
          "name": "genesisTimestamp_",
          "type": "uint256"
        },
        {
          "internalType": "uint256",
          "name": "period_",
          "type": "uint256"
        },
        {
          "internalType": "uint256",
          "name": "initialRequestPrice",
          "type": "uint256"
        },
        {
          "internalType": "uint256",
          "name": "maxCallbackGasLimit_",
          "type": "uint256"
        },
        {
          "internalType": "uint256",
          "name": "maxDeadlineDelta_",
          "type": "uint256"
        }
      ],
      "stateMutability": "nonpayable",
      "type": "constructor"
    },
    {
      "inputs": [
        {
          "internalType": "uint256[4]",
          "name": "input",
          "type": "uint256[4]"
        }
      ],
      "name": "BNAddFailed",
      "type": "error"
    },
    {
      "inputs": [
        {
          "internalType": "uint256",
          "name": "got",
          "type": "uint256"
        },
        {
          "internalType": "uint256",
          "name": "want",
          "type": "uint256"
        }
      ],
      "name": "IncorrectPayment",
      "type": "error"
    },
    {
      "inputs": [],
      "name": "InsufficientGas",
      "type": "error"
    },
    {
      "inputs": [
        {
          "internalType": "uint256",
          "name": "genesisTimestamp",
          "type": "uint256"
        },
        {
          "internalType": "uint256",
          "name": "period",
          "type": "uint256"
        }
      ],
      "name": "InvalidBeaconConfiguration",
      "type": "error"
    },
    {
      "inputs": [
        {
          "internalType": "bytes",
          "name": "dst",
          "type": "bytes"
        }
      ],
      "name": "InvalidDSTLength",
      "type": "error"
    },
    {
      "inputs": [
        {
          "internalType": "uint256",
          "name": "deadline",
          "type": "uint256"
        }
      ],
      "name": "InvalidDeadline",
      "type": "error"
    },
    {
      "inputs": [
        {
          "internalType": "uint256",
          "name": "x",
          "type": "uint256"
        }
      ],
      "name": "InvalidFieldElement",
      "type": "error"
    },
    {
      "inputs": [
        {
          "internalType": "uint256[4]",
          "name": "pubKey",
          "type": "uint256[4]"
        }
      ],
      "name": "InvalidPublicKey",
      "type": "error"
    },
    {
      "inputs": [
        {
          "internalType": "bytes32",
          "name": "requestHash",
          "type": "bytes32"
        }
      ],
      "name": "InvalidRequestHash",
      "type": "error"
    },
    {
      "inputs": [
        {
          "internalType": "uint256[4]",
          "name": "pubKey",
          "type": "uint256[4]"
        },
        {
          "internalType": "uint256[2]",
          "name": "message",
          "type": "uint256[2]"
        },
        {
          "internalType": "uint256[2]",
          "name": "signature",
          "type": "uint256[2]"
        }
      ],
      "name": "InvalidSignature",
      "type": "error"
    },
    {
      "inputs": [
        {
          "internalType": "uint256",
          "name": "noSqrt",
          "type": "uint256"
        }
      ],
      "name": "MapToPointFailed",
      "type": "error"
    },
    {
      "inputs": [
        {
          "internalType": "uint256",
          "name": "base",
          "type": "uint256"
        },
        {
          "internalType": "uint256",
          "name": "exponent",
          "type": "uint256"
        },
        {
          "internalType": "uint256",
          "name": "modulus",
          "type": "uint256"
        }
      ],
      "name": "ModExpFailed",
      "type": "error"
    },
    {
      "inputs": [
        {
          "internalType": "uint256",
          "name": "callbackGasLimit",
          "type": "uint256"
        }
      ],
      "name": "OverGasLimit",
      "type": "error"
    },
    {
      "inputs": [
        {
          "internalType": "address",
          "name": "owner",
          "type": "address"
        }
      ],
      "name": "OwnableInvalidOwner",
      "type": "error"
    },
    {
      "inputs": [
        {
          "internalType": "address",
          "name": "account",
          "type": "address"
        }
      ],
      "name": "OwnableUnauthorizedAccount",
      "type": "error"
    },
    {
      "inputs": [],
      "name": "Reentrant",
      "type": "error"
    },
    {
      "inputs": [
        {
          "internalType": "address",
          "name": "to",
          "type": "address"
        },
        {
          "internalType": "uint256",
          "name": "value",
          "type": "uint256"
        }
      ],
      "name": "TransferFailed",
      "type": "error"
    },
    {
      "anonymous": false,
      "inputs": [
        {
          "indexed": false,
          "internalType": "uint256",
          "name": "amount",
          "type": "uint256"
        }
      ],
      "name": "ETHWithdrawn",
      "type": "event"
    },
    {
      "anonymous": false,
      "inputs": [
        {
          "indexed": false,
          "internalType": "uint256",
          "name": "newMaxCallbackGasLimit",
          "type": "uint256"
        }
      ],
      "name": "MaxCallbackGasLimitUpdated",
      "type": "event"
    },
    {
      "anonymous": false,
      "inputs": [
        {
          "indexed": false,
          "internalType": "uint256",
          "name": "maxDeadlineDelta",
          "type": "uint256"
        }
      ],
      "name": "MaxDeadlineDeltaUpdated",
      "type": "event"
    },
    {
      "anonymous": false,
      "inputs": [
        {
          "indexed": true,
          "internalType": "address",
          "name": "previousOwner",
          "type": "address"
        },
        {
          "indexed": true,
          "internalType": "address",
          "name": "newOwner",
          "type": "address"
        }
      ],
      "name": "OwnershipTransferred",
      "type": "event"
    },
    {
      "anonymous": false,
      "inputs": [
        {
          "indexed": true,
          "internalType": "uint256",
          "name": "requestId",
          "type": "uint256"
        },
        {
          "indexed": false,
          "internalType": "uint256[]",
          "name": "randomWords",
          "type": "uint256[]"
        }
      ],
      "name": "RandomnessFulfilled",
      "type": "event"
    },
    {
      "anonymous": false,
      "inputs": [
        {
          "indexed": true,
          "internalType": "uint256",
          "name": "requestId",
          "type": "uint256"
        },
        {
          "indexed": false,
          "internalType": "address",
          "name": "requester",
          "type": "address"
        },
        {
          "indexed": false,
          "internalType": "uint256",
          "name": "round",
          "type": "uint256"
        },
        {
          "indexed": false,
          "internalType": "uint256",
          "name": "callbackGasLimit",
          "type": "uint256"
        }
      ],
      "name": "RandomnessRequested",
      "type": "event"
    },
    {
      "anonymous": false,
      "inputs": [
        {
          "indexed": false,
          "internalType": "uint256",
          "name": "newPrice",
          "type": "uint256"
        }
      ],
      "name": "RequestPriceUpdated",
      "type": "event"
    },
    {
      "inputs": [],
      "name": "DST",
      "outputs": [
        {
          "internalType": "bytes",
          "name": "",
          "type": "bytes"
        }
      ],
      "stateMutability": "view",
      "type": "function"
    },
    {
      "inputs": [],
      "name": "baseRequestPrice",
      "outputs": [
        {
          "internalType": "uint256",
          "name": "",
          "type": "uint256"
        }
      ],
      "stateMutability": "view",
      "type": "function"
    },
    {
      "inputs": [
        {
          "internalType": "uint256",
          "name": "requestId",
          "type": "uint256"
        },
        {
          "internalType": "address",
          "name": "requester",
          "type": "address"
        },
        {
          "internalType": "uint256",
          "name": "round",
          "type": "uint256"
        },
        {
          "internalType": "uint256",
          "name": "callbackGasLimit",
          "type": "uint256"
        },
        {
          "internalType": "uint256[2]",
          "name": "signature",
          "type": "uint256[2]"
        }
      ],
      "name": "fulfillRandomness",
      "outputs": [],
      "stateMutability": "nonpayable",
      "type": "function"
    },
    {
      "inputs": [],
      "name": "genesisTimestamp",
      "outputs": [
        {
          "internalType": "uint256",
          "name": "",
          "type": "uint256"
        }
      ],
      "stateMutability": "view",
      "type": "function"
    },
    {
      "inputs": [],
      "name": "getPubKey",
      "outputs": [
        {
          "internalType": "uint256[4]",
          "name": "",
          "type": "uint256[4]"
        }
      ],
      "stateMutability": "view",
      "type": "function"
    },
    {
      "inputs": [
        {
          "internalType": "uint256",
          "name": "",
          "type": "uint256"
        }
      ],
      "name": "getRequestPrice",
      "outputs": [
        {
          "internalType": "uint256",
          "name": "",
          "type": "uint256"
        }
      ],
      "stateMutability": "view",
      "type": "function"
    },
    {
      "inputs": [],
      "name": "maxCallbackGasLimit",
      "outputs": [
        {
          "internalType": "uint256",
          "name": "",
          "type": "uint256"
        }
      ],
      "stateMutability": "view",
      "type": "function"
    },
    {
      "inputs": [],
      "name": "maxDeadlineDelta",
      "outputs": [
        {
          "internalType": "uint256",
          "name": "",
          "type": "uint256"
        }
      ],
      "stateMutability": "view",
      "type": "function"
    },
    {
      "inputs": [],
      "name": "nextRequestId",
      "outputs": [
        {
          "internalType": "uint256",
          "name": "",
          "type": "uint256"
        }
      ],
      "stateMutability": "view",
      "type": "function"
    },
    {
      "inputs": [],
      "name": "owner",
      "outputs": [
        {
          "internalType": "address",
          "name": "",
          "type": "address"
        }
      ],
      "stateMutability": "view",
      "type": "function"
    },
    {
      "inputs": [],
      "name": "period",
      "outputs": [
        {
          "internalType": "uint256",
          "name": "",
          "type": "uint256"
        }
      ],
      "stateMutability": "view",
      "type": "function"
    },
    {
      "inputs": [],
      "name": "publicKey0",
      "outputs": [
        {
          "internalType": "uint256",
          "name": "",
          "type": "uint256"
        }
      ],
      "stateMutability": "view",
      "type": "function"
    },
    {
      "inputs": [],
      "name": "publicKey1",
      "outputs": [
        {
          "internalType": "uint256",
          "name": "",
          "type": "uint256"
        }
      ],
      "stateMutability": "view",
      "type": "function"
    },
    {
      "inputs": [],
      "name": "publicKey2",
      "outputs": [
        {
          "internalType": "uint256",
          "name": "",
          "type": "uint256"
        }
      ],
      "stateMutability": "view",
      "type": "function"
    },
    {
      "inputs": [],
      "name": "publicKey3",
      "outputs": [
        {
          "internalType": "uint256",
          "name": "",
          "type": "uint256"
        }
      ],
      "stateMutability": "view",
      "type": "function"
    },
    {
      "inputs": [],
      "name": "renounceOwnership",
      "outputs": [],
      "stateMutability": "nonpayable",
      "type": "function"
    },
    {
      "inputs": [
        {
          "internalType": "uint256",
          "name": "deadline",
          "type": "uint256"
        },
        {
          "internalType": "uint256",
          "name": "callbackGasLimit",
          "type": "uint256"
        }
      ],
      "name": "requestRandomness",
      "outputs": [
        {
          "internalType": "uint256",
          "name": "",
          "type": "uint256"
        }
      ],
      "stateMutability": "payable",
      "type": "function"
    },
    {
      "inputs": [
        {
          "internalType": "uint256",
          "name": "requestId",
          "type": "uint256"
        }
      ],
      "name": "requests",
      "outputs": [
        {
          "internalType": "bytes32",
          "name": "",
          "type": "bytes32"
        }
      ],
      "stateMutability": "view",
      "type": "function"
    },
    {
      "inputs": [
        {
          "internalType": "uint256",
          "name": "newMaxCallbackGasLimit",
          "type": "uint256"
        }
      ],
      "name": "setMaxCallbackGasLimit",
      "outputs": [],
      "stateMutability": "nonpayable",
      "type": "function"
    },
    {
      "inputs": [
        {
          "internalType": "uint256",
          "name": "newMaxDeadlineDelta",
          "type": "uint256"
        }
      ],
      "name": "setMaxDeadlineDelta",
      "outputs": [],
      "stateMutability": "nonpayable",
      "type": "function"
    },
    {
      "inputs": [
        {
          "internalType": "uint256",
          "name": "newPrice",
          "type": "uint256"
        }
      ],
      "name": "setPrice",
      "outputs": [],
      "stateMutability": "nonpayable",
      "type": "function"
    },
    {
      "inputs": [
        {
          "internalType": "address",
          "name": "newOwner",
          "type": "address"
        }
      ],
      "name": "transferOwnership",
      "outputs": [],
      "stateMutability": "nonpayable",
      "type": "function"
    },
    {
      "inputs": [
        {
          "internalType": "uint256",
          "name": "amount",
          "type": "uint256"
        }
      ],
      "name": "withdrawETH",
      "outputs": [],
      "stateMutability": "nonpayable",
      "type": "function"
    }
  ],
  "bytecode": "0x6101406040523480156200001257600080fd5b506040516200328138038062003281833981016040819052620000359162000421565b85858585858533806200006357604051631e4fbdf760e01b8152600060048201526024015b60405180910390fd5b6200006e81620001b5565b506200007a8662000205565b6200009c578560405163c7728ee960e01b81526004016200005a9190620004d2565b8551608052602086015160a052604086015160c052606086015160e052841580620000c5575083155b15620000ef57604051634b55885360e11b815260048101869052602481018590526044016200005a565b61012085905261010084905260018390556040518381527fc3d50f77154758c462c4c169109245a63ef238ce48eac8201fc45e514cdb77f29060200160405180910390a160028290556040518281527f134a3c9ab0f6f4624f16cae2e8b5ed62e867f01bae73ab143b957c2a2e6c9ee59060200160405180910390a160038190556040518181527f4bdf088aaa547d0a8b8f4aa78a191f0faf72f3bc7fddd8d39be2492d883684789060200160405180910390a150505050505050505050505062000505565b600080546001600160a01b038381166001600160a01b0319831681178455604051919092169283917f8be0079c531659141344cd1fd0a4f28419497f9722a3daafe3b4186f6b6457e09190a35050565b8051600090600080516020620032618339815191521115806200023b575060208201516000805160206200326183398151915211155b8062000278575060408201516000805160206200326183398151915211158062000278575060608201516000805160206200326183398151915211155b156200028657506000919050565b620002918262000297565b92915050565b60008151602083015160008051602062003261833981519152828309600080516020620032618339815191528283098182830101600080516020620032618339815191528283840108600080516020620032618339815191528682600080516020620032618339815191520386010993505060008051602062003261833981519152848360008051602062003261833981519152038301099150600080516020620032618339815191527f2b149d40ceb8aaae81be18991be06ac3b5b4c5e559dbefa33267e6dc24a138e584089450600080516020620032618339815191527e9713b03af0fed4cd2cafadeed8fdf4a74fa084e52d1852e4a2bd0685c315d2830893506040870151925060608701519150600080516020620032618339815191528083600080516020620032618339815191520385086000805160206200326183398151915284860809905060008051602062003261833981519152828460011b0994149290931491909116949350505050565b634e487b7160e01b600052604160045260246000fd5b60008060008060008061012087890312156200043c57600080fd5b87601f8801126200044c57600080fd5b604051608081016001600160401b03811182821017156200047157620004716200040b565b60405280608089018a8111156200048757600080fd5b895b81811015620004a357805183526020928301920162000489565b505160a08a015160c08b015160e08c0151610100909c0151949d929c50909a9099509750919550909350505050565b60808101818360005b6004811015620004fc578151835260209283019290910190600101620004db565b50505092915050565b60805160a05160c05160e0516101005161012051612ccd62000594600039600081816103cd0152818161087f01526108fb01526000818161046b015281816108ab0152818161092901526109530152600081816103450152610aba0152600081816103990152610a940152600081816102170152610a6e0152600081816104170152610a4b0152612ccd6000f3fe6080604052600436106101805760003560e01c80638da5cb5b116100d6578063db1d04a71161007f578063ef78d4fd11610059578063ef78d4fd14610459578063f14210a61461048d578063f2fde38b146104ad57600080fd5b8063db1d04a7146103ef578063df41d5a614610405578063e3073fb71461043957600080fd5b806394aa6a4b116100b057806394aa6a4b14610367578063b981a91114610387578063cacf66ab146103bb57600080fd5b80638da5cb5b146102eb57806391b7f5ed146103135780639494a3ab1461033357600080fd5b80634ad02ef111610138578063715018a611610112578063715018a6146102935780637b49e281146102a857806381d12c58146102be57600080fd5b80634ad02ef1146102395780635f7c75221461025b5780636a84a9851461027d57600080fd5b80631f53cf04116101695780631f53cf04146101dc57806338e576c8146101ef57806340e50f281461020557600080fd5b80630bb0602c1461018557806310b0d1d2146101a7575b600080fd5b34801561019157600080fd5b506101a56101a0366004612862565b6104cd565b005b3480156101b357600080fd5b506101c96101c23660046128b7565b5060015490565b6040519081526020015b60405180910390f35b6101c96101ea3660046128d0565b61079d565b3480156101fb57600080fd5b506101c960035481565b34801561021157600080fd5b506101c97f000000000000000000000000000000000000000000000000000000000000000081565b34801561024557600080fd5b5061024e610a39565b6040516101d3919061291b565b34801561026757600080fd5b50610270610ae3565b6040516101d3919061294d565b34801561028957600080fd5b506101c960045481565b34801561029f57600080fd5b506101a5610aff565b3480156102b457600080fd5b506101c960025481565b3480156102ca57600080fd5b506101c96102d93660046128b7565b60056020526000908152604090205481565b3480156102f757600080fd5b506000546040516001600160a01b0390911681526020016101d3565b34801561031f57600080fd5b506101a561032e3660046128b7565b610b13565b34801561033f57600080fd5b506101c97f000000000000000000000000000000000000000000000000000000000000000081565b34801561037357600080fd5b506101a56103823660046128b7565b610b57565b34801561039357600080fd5b506101c97f000000000000000000000000000000000000000000000000000000000000000081565b3480156103c757600080fd5b506101c97f000000000000000000000000000000000000000000000000000000000000000081565b3480156103fb57600080fd5b506101c960015481565b34801561041157600080fd5b506101c97f000000000000000000000000000000000000000000000000000000000000000081565b34801561044557600080fd5b506101a56104543660046128b7565b610b94565b34801561046557600080fd5b506101c97f000000000000000000000000000000000000000000000000000000000000000081565b34801561049957600080fd5b506101a56104a83660046128b7565b610bd1565b3480156104b957600080fd5b506101a56104c8366004612980565b610ca6565b6104d5610cfd565b60408051466020808301919091523082840152606082018890526001600160a01b038716608083015260a0820186905260c08083018690528351808403909101815260e0909201835281519181019190912060008881526005909252919020548114610575576040517fa537f758000000000000000000000000000000000000000000000000000000008152600481018290526024015b60405180910390fd5b60008681526005602090815260408083208390558051828152808201909152906020820181803683375050506000868152600860182060208301529091506105bb610a39565b905060006105e16040518060600160405280602b8152602001612c6d602b913984610d3a565b6040805180820182529192506000916106129188906002908390839080828437600092019190915250610df3915050565b905060008061064c886002806020026040519081016040528092919082600260200280828437600092019190915250889150879050610e41565b9150915082158061065b575081155b80610664575080155b156106a1578484896040517fb8cf7d3000000000000000000000000000000000000000000000000000000000815260040161056c939291906129a2565b604080516001808252818301909252600091602080830190803683375050604080518c356020808301919091528d0135918101919091529192505060600160408051601f1981840301815282825280516020918201209083015281018e90526001600160a01b038d1660608201526080016040516020818303038152906040528051906020012060001c8160008151811061073e5761073e6129eb565b6020026020010181815250506107568a8d8f84610ff8565b8c7f67578974dcd1e9cdb0ebe63163f817c9866d397c48bc125393551f78f33b515f826040516107869190612a3d565b60405180910390a250505050505050505050505050565b60006107a7610cfd565b60006107b260015490565b9050803410156107f7576040517f0d35e9210000000000000000000000000000000000000000000000000000000081523460048201526024810182905260440161056c565b600254831115610836576040517f45453f370000000000000000000000000000000000000000000000000000000081526004810184905260240161056c565b6003546108439042612a66565b841115610866576040516309decb5d60e21b81526004810185905260240161056c565b60048054908190600061087883612a79565b91905055507f00000000000000000000000000000000000000000000000000000000000000008510806108d357506108d07f000000000000000000000000000000000000000000000000000000000000000042612a66565b85105b156108f4576040516309decb5d60e21b81526004810186905260240161056c565b60006109207f000000000000000000000000000000000000000000000000000000000000000087612a92565b9050600061094e7f000000000000000000000000000000000000000000000000000000000000000083612abb565b6109787f000000000000000000000000000000000000000000000000000000000000000084612acf565b6109829190612a66565b6040805146602080830191909152308284015260608201879052336080830181905267ffffffffffffffff851660a0840181905260c08085018d90528551808603909101815260e0850180875281519185019190912060008b81526005909552938690209390935591526101008201526101208101899052905191925084917f6775f2f8aa96193c5eddac656fc6dc3b43ab68287b6d7da3693579d1fe620d9d918190036101400190a25090925050505b92915050565b610a416127f1565b610a496127f1565b7f000000000000000000000000000000000000000000000000000000000000000081527f000000000000000000000000000000000000000000000000000000000000000060208201527f000000000000000000000000000000000000000000000000000000000000000060408201527f00000000000000000000000000000000000000000000000000000000000000006060820152919050565b6040518060600160405280602b8152602001612c6d602b913981565b610b07611085565b610b1160006110cb565b565b610b1b611085565b60018190556040518181527fc3d50f77154758c462c4c169109245a63ef238ce48eac8201fc45e514cdb77f2906020015b60405180910390a150565b610b5f611085565b60028190556040518181527f134a3c9ab0f6f4624f16cae2e8b5ed62e867f01bae73ab143b957c2a2e6c9ee590602001610b4c565b610b9c611085565b60038190556040518181527f4bdf088aaa547d0a8b8f4aa78a191f0faf72f3bc7fddd8d39be2492d8836847890602001610b4c565b610bd9611085565b80600003610be45750475b604051600090339083908381818185875af1925050503d8060008114610c26576040519150601f19603f3d011682016040523d82523d6000602084013e610c2b565b606091505b5050905080610c6f576040517f1c43b9760000000000000000000000000000000000000000000000000000000081523360048201526024810183905260440161056c565b6040518281527f043f607a14d3b4f0a11a0b2e192bbfcd894298ba5abf22553be6081406db28aa9060200160405180910390a15050565b610cae611085565b6001600160a01b038116610cf1576040517f1e4fbdf70000000000000000000000000000000000000000000000000000000081526000600482015260240161056c565b610cfa816110cb565b50565b60065460ff1615610b11576040517fed3ba6a600000000000000000000000000000000000000000000000000000000815260040160405180910390fd5b610d4261280f565b6000610d4e8484611133565b90506000610d6282825b6020020151611221565b90506000610d71836001610d58565b9050610d7b6127f1565b825181526020808401518282015282516040808401919091529083015160608301526000908460808460066107d05a03fa905080610de757816040517f128e3f0800000000000000000000000000000000000000000000000000000000815260040161056c919061291b565b50919695505050505050565b8051600090600080516020612c4d833981519152111580610e2657506020820151600080516020612c4d83398151915211155b15610e3357506000919050565b610a338261155f565b919050565b600080600060405180610180016040528087600060028110610e6557610e656129eb565b6020020151815260200187600160028110610e8257610e826129eb565b602002015181526020017f198e9393920d483a7260bfb731fb5d25f1aa493335a9e71297e485b7aef312c281526020017f1800deef121f1e76426a00665e5c4479674322d4f75edadd46debd5cd992f6ed81526020017f275dc4a288d1afb3cbb1ac09187524c7db36395df7be3b99e673b13a075a65ec81526020017f1d9befcd05a5323e6da4d435f3b617cdb3af83285c2df711ef39c01571827f9d815260200185600060028110610f3757610f376129eb565b6020020151815260200185600160028110610f5457610f546129eb565b6020020151815260200186600160048110610f7157610f716129eb565b6020020151815260200186600060048110610f8e57610f8e6129eb565b6020020151815260200186600360048110610fab57610fab6129eb565b6020020151815260200186600260048110610fc857610fc86129eb565b602002015190529050610fd961282d565b6020816101808460086107d05a03fa9051151597909650945050505050565b6006805460ff1916600117905560405161107490859085907fa0c4615c00000000000000000000000000000000000000000000000000000000906110429087908790602001612ae3565b60408051601f19818403018152908290526110609291602001612b04565b6040516020818303038152906040526115be565b50506006805460ff19169055505050565b6000546001600160a01b03163314610b11576040517f118cdaa700000000000000000000000000000000000000000000000000000000815233600482015260240161056c565b600080546001600160a01b038381167fffffffffffffffffffffffff0000000000000000000000000000000000000000831681178455604051919092169283917f8be0079c531659141344cd1fd0a4f28419497f9722a3daafe3b4186f6b6457e09190a35050565b61113b61280f565b6000611147848461160a565b90506000806000806018850177ffffffffffffffffffffffffffffffffffffffffffffffff815116935060308601905077ffffffffffffffffffffffffffffffffffffffffffffffff8151169450600080516020612c4d83398151915285600080516020612c4d833981519152600160c01b8709086048870151606088015177ffffffffffffffffffffffffffffffffffffffffffffffff90811697501694509250600080516020612c4d83398151915290508481600160c01b860908604080518082019091529283526020830152509695505050505050565b61122961280f565b600080516020612c4d8339815191528210611273576040517fd53e94150000000000000000000000000000000000000000000000000000000081526004810183905260240161056c565b6000600080516020612c4d8339815191526004600080516020612c4d8339815191528586090990506000600080516020612c4d833981519152826001089050600080516020612c4d8339815191526112d983600080516020612c4d833981519152612a92565b600108915060006112fa600080516020612c4d833981519152838509611783565b90506000600080516020612c4d83398151915278016789af3a83522eb353c98fc6b36d713d5d8d1cc5dffffffa600080516020612c4d83398151915284600080516020612c4d833981519152888b09090990506000600080516020612c4d83398151915261137683600080516020612c4d833981519152612a92565b7f183227397098d014dc2822db40c0ac2ecbc0b548b438e5469e10460b6c3e7ea30890506000600080516020612c4d833981519152837f183227397098d014dc2822db40c0ac2ecbc0b548b438e5469e10460b6c3e7ea30890506000600080516020612c4d83398151915286870990506000600080516020612c4d83398151915286830990506000600080516020612c4d83398151915280600080516020612c4d8339815191528485097f10216f7ba065e00de81ac1e7808072c9dd2b2385cd7b438469602eb24829a9bd09600108905060008061145b6114568861178e565b6117cb565b60000b6001036114ac57868c526114718761178e565b905061147c81611833565b60208e01919091529150816114a75760405163396ec77160e01b81526004810182905260240161056c565b611510565b6114b86114568761178e565b60000b6001036114ce57858c526114718661178e565b828c526114da8361178e565b90506114e581611833565b60208e01919091529150816115105760405163396ec77160e01b81526004810182905260240161056c565b60208c015161151e9061185c565b6115278e61185c565b1461154f5760208c015161154990600080516020612c4d833981519152612a92565b60208d01525b5050505050505050505050919050565b600081516020830151600080516020612c4d833981519152828309600080516020612c4d8339815191528382099050600080516020612c4d833981519152600382089050600080516020612c4d83398151915282830914949350505050565b60005a6113888110156115d057600080fd5b6113888103905084604082048203116115e857600080fd5b50823b6115f457600080fd5b60008083516020850160008789f1949350505050565b815160609060ff81111561164c57836040517f26e4f9ba00000000000000000000000000000000000000000000000000000000815260040161056c919061294d565b60408051608880825260c08201909252600091602082018180368337019050509050600081856000606060008a886040516020016116909796959493929190612b4c565b6040516020818303038152906040529050600081805190602001209050600081600189876040516020016116c79493929190612bea565b60408051808303601f190181528282528051602082012060608085526080850190935290935091600091602082018180368337019050509050600360015b818110156117655785841861171b826001612a66565b8d8b6040516020016117309493929190612bea565b60408051808303601f190181529190526020600019830181028501810195909552805194810194909420939450600101611705565b50600019016020908102820101919091529550505050505092915050565b6000610a3382611869565b6000600080516020612c4d8339815191526003600080516020612c4d83398151915284600080516020612c4d833981519152868709090892915050565b6000806117d783611fb0565b90506117f26001600080516020612c4d833981519152612a92565b8103611802575060001992915050565b8015801590611812575080600114155b15610a335760405163396ec77160e01b81526004810184905260240161056c565b60008061183f836120bc565b915082600080516020612c4d833981519152838409149050915091565b6000610a33600283612abb565b6000600080516020612c4d8339815191528083840991508083830981838209828283098385830984848309858484098684850997508684840987858409945087898a09985087898a09985087898a09985087898a09985087898a09985087878a09985087898a09985087898a09985087898a099850878a8a09985087898a09985087898a09985087898a09985087898a099850878a8a09985087898a09985087898a09985087898a09985087898a09985087898a09985087848a09985087898a09985087898a09985087898a09985087898a09985087898a09985087848a09985087898a09985087898a09985087898a099850878a8a09985087898a09985087898a09985087898a09985087898a09985087848a09985087898a09985087898a09985087898a09985087898a09985087898a099850878a8a09985087898a09985087898a09985087898a09985087898a09985087878a09985087898a09985087898a09985087898a09985087898a09985087898a09985087898a09985087898a09985087818a09985087898a09985087898a09985087898a09985087898a09985087898a09985087898a09985087898a09985087898a09985087898a09985087898a09985087868a09985087898a09985087898a09985087898a09985087898a09985087878a09985087898a09985087898a09985087898a09985087898a09985087848a09985087898a09985087898a09985087898a09985087898a09985087898a09985087898a09985087898a09985087868a09985087898a09985087898a09985087898a09985087898a09985087898a09985087898a099850878a8a09985087898a09985087898a09985087898a09985087898a09985087898a09985087898a09985087898a09985087828a09985087898a09985087898a09985087898a09985087898a09985087898a09985087818a09985087898a09985087898a09985087898a09985087868a09985087898a09985087898a09985087898a09985087898a09985087898a09985087898a09985087898a09985087898a09985087878a09985087898a09985087898a09985087898a09985087898a09985087898a09985087898a09985087898a09985087898a09985087898a09985087868a09985087898a09985087898a09985087898a09985087878a09985087898a09985087898a09985087898a09985087898a09985087898a09985087898a09985087898a09985087898a09985087828a09985087898a09985087898a09985087898a09985087898a09985087828a09985087898a09985087898a09985087898a09985087898a09985087898a09985087868a09985087898a09985087898a09985087898a09985087848a09985087898a09985087898a09985087898a09985087898a09985087898a09985087898a09985087898a09985087898a09985087898a09985087898a09985087828a09985087898a09985087898a09985087898a09985087898a09985087868a09985087898a09985087898a09985087898a09985087898a09985087898a09985087838a09985087898a09985087898a09985087898a09985087898a09985087898a09985087898a09985087898a09985087828a09985087898a09985087898a099850878a8a09985087898a09985087898a09985087898a09985087898a09985087898a09985087898a09985087898a09985087848a09985087898a09985087898a09985087898a09985087898a09985087898a09985087898a09985087848a09985087898a09985087898a09985087898a09985087898a09985087898a09985087868a09985087898a09985087898a099850878a8a09985087898a09985087898a09985087898a09985087898a09985087898a09985087898a09985087898a09985087818a09985050868889099750868889099750868889099750868889099750868889099750868889099750868489099750868889099750868889099750868889099750868889099750868889099750868989099750868889099750868889099750868889099750868889099750868889099750868889099750868989099750868889099750868889099750868889099750868889099750868889099750868689099750868889099750868889099750868889099750868889099750868889099750868889099750868889099750868889099750868889099750868189099750508587880996508587880996508587880996508585880996508587880996508587880996508587880996508585880996508587880996508587880996508587880996508587880996508587880996508587880996508587880996508587880996508583880996508587880996508587880996508587880996508587880996508581880996505050838586099450838586099450838586099450838586099450838186099450508284850993508284850993508284850993508281850993508284850993508284850993508285850993508284850993508284850993508284850993508284850993508284850993508284850993508281850995945050505050565b6040805160c080825260e082019092526000918291906020820181803683370190505060208082018181526040830182905260608301829052608083018690527f183227397098d014dc2822db40c0ac2ecbc0b548b438e5469e10460b6c3e7ea360a0840152600080516020612c4d83398151915260c080850191909152929350600092839160055afa90506000519250806120b5576040517fc6daf7ab000000000000000000000000000000000000000000000000000000008152600481018590527f183227397098d014dc2822db40c0ac2ecbc0b548b438e5469e10460b6c3e7ea36024820152600080516020612c4d833981519152604482015260640161056c565b5050919050565b6000600080516020612c4d8339815191528083840991508083830981838209828283098385830984848309858484098684850997508684840987858409945087898a09985087898a09985087898a09985087898a09985087898a09985087878a09985087898a09985087898a09985087898a099850878a8a09985087898a09985087898a09985087898a09985087898a099850878a8a09985087898a09985087898a09985087898a09985087898a09985087898a09985087848a09985087898a09985087898a09985087898a09985087898a09985087898a09985087848a09985087898a09985087898a09985087898a099850878a8a09985087898a09985087898a09985087898a09985087898a09985087848a09985087898a09985087898a09985087898a09985087898a09985087898a099850878a8a09985087898a09985087898a09985087898a09985087898a09985087878a09985087898a09985087898a09985087898a09985087898a09985087898a09985087898a09985087898a09985087818a09985087898a09985087898a09985087898a09985087898a09985087898a09985087898a09985087898a09985087898a09985087898a09985087898a09985087868a09985087898a09985087898a09985087898a09985087898a09985087878a09985087898a09985087898a09985087898a09985087898a09985087848a09985087898a09985087898a09985087898a09985087898a09985087898a09985087898a09985087898a09985087868a09985087898a09985087898a09985087898a09985087898a09985087898a09985087898a099850878a8a09985087898a09985087898a09985087898a09985087898a09985087898a09985087898a09985087898a09985087828a09985087898a09985087898a09985087898a09985087898a09985087898a09985087818a09985087898a09985087898a09985087898a09985087868a09985087898a09985087898a09985087898a09985087898a09985087898a09985087898a09985087898a09985087898a09985087878a09985087898a09985087898a09985087898a09985087898a09985087898a09985087898a09985087898a09985087898a09985087898a09985087868a09985087898a09985087898a09985087898a09985087878a09985087898a09985087898a09985087898a09985087898a09985087898a09985087898a09985087898a09985087898a09985087828a09985087898a09985087898a09985087898a09985087898a09985087828a09985087898a09985087898a09985087898a09985087898a09985087898a09985087868a09985087898a09985087898a09985087898a09985087848a09985087898a09985087898a09985087898a09985087898a09985087898a09985087898a09985087898a09985087898a09985087898a09985087898a09985087828a09985087898a09985087898a09985087898a09985087898a09985087868a09985087898a09985087898a09985087898a09985087898a09985087898a09985087838a09985087898a09985087898a09985087898a09985087898a09985087898a09985087898a09985087898a09985087828a09985087898a09985087898a099850878a8a09985087898a09985087898a09985087898a09985087898a09985087898a09985087898a09985087898a09985087848a09985087898a09985087898a09985087898a09985087898a09985087898a09985087898a09985087848a09985087898a09985087898a09985087898a09985087898a09985087898a09985087868a09985087898a09985087898a099850878a8a09985087898a09985087898a09985087898a09985087898a09985087898a09985087898a09985087898a09985087818a09985050868889099750868889099750868889099750868889099750868889099750868889099750868489099750868889099750868889099750868889099750868889099750868889099750868989099750868889099750868889099750868889099750868889099750868889099750868889099750868989099750868889099750868889099750868889099750868889099750868889099750868689099750868889099750868889099750868889099750868889099750868889099750868889099750868889099750868889099750868889099750868189099750508587880996508587880996508587880996508585880996508587880996508587880996508587880996508585880996508587880996508587880996508587880996508587880996508587880996508587880996508587880996508587880996508583880996508587880996508587880996508587880996508587880996508581880996508587880996508587880996508587880996508587880996508583880996508587880996508587880996508587880996508584880996508587880996508587880996508587880996508587880996508587880996508581880996505050505050808283099392505050565b60405180608001604052806004906020820280368337509192915050565b60405180604001604052806002906020820280368337509192915050565b60405180602001604052806001906020820280368337509192915050565b80356001600160a01b0381168114610e3c57600080fd5b600080600080600060c0868803121561287a57600080fd5b8535945061288a6020870161284b565b935060408601359250606086013591508660c0870111156128aa57600080fd5b5092959194509260800190565b6000602082840312156128c957600080fd5b5035919050565b600080604083850312156128e357600080fd5b50508035926020909101359150565b8060005b60048110156129155781518452602093840193909101906001016128f6565b50505050565b60808101610a3382846128f2565b60005b8381101561294457818101518382015260200161292c565b50506000910152565b602081526000825180602084015261296c816040850160208701612929565b601f01601f19169190910160400192915050565b60006020828403121561299257600080fd5b61299b8261284b565b9392505050565b61010081016129b182866128f2565b608082018460005b60028110156129d85781518352602092830192909101906001016129b9565b50505060408360c0840137949350505050565b634e487b7160e01b600052603260045260246000fd5b60008151808452602080850194506020840160005b83811015612a3257815187529582019590820190600101612a16565b509495945050505050565b60208152600061299b6020830184612a01565b634e487b7160e01b600052601160045260246000fd5b80820180821115610a3357610a33612a50565b600060018201612a8b57612a8b612a50565b5060010190565b81810381811115610a3357610a33612a50565b634e487b7160e01b600052601260045260246000fd5b600082612aca57612aca612aa5565b500690565b600082612ade57612ade612aa5565b500490565b828152604060208201526000612afc6040830184612a01565b949350505050565b7fffffffff000000000000000000000000000000000000000000000000000000008316815260008251612b3e816004850160208701612929565b919091016004019392505050565b60008851612b5e818460208d01612929565b885190830190612b72818360208d01612929565b8082019150507fff00000000000000000000000000000000000000000000000000000000000000808960f81b168252808860f81b166001830152808760f81b1660028301528551612bca816003850160208a01612929565b60f89590951b169301600381019390935250506004019695505050505050565b84815260007fff00000000000000000000000000000000000000000000000000000000000000808660f81b1660208401528451612c2e816021860160208901612929565b60f89490941b1691909201602181019190915260220194935050505056fe30644e72e131a029b85045b68181585d97816a916871ca8d3c208c16d87cfd47424c535f5349475f424e32353447315f584d443a4b454343414b2d3235365f535357555f524f5f4e554c5fa26469706673582212203d2816b4352124ac3714b7c4e20166f2731ce50d2d246b547a5f5e2bf77d139564736f6c6343000817003330644e72e131a029b85045b68181585d97816a916871ca8d3c208c16d87cfd47",
  "linkReferences": {},
  "deployedLinkReferences": {}
}