{
  "_format": "hh-sol-artifact-1",
  "contractName": "AnyrandConsumer",
  "sourceName": "contracts/example/AnyrandConsumer.sol",
  "abi": [
    {
      "inputs": [
        {
          "internalType": "address",
          "name": "anyrand_",
          "type": "address"
        }
      ],
      "stateMutability": "nonpayable",
      "type": "constructor"
    },
    {
      "inputs": [
        {
          "internalType": "address",
          "name": "owner",
          "type": "address"
        }
      ],
      "name": "OwnableInvalidOwner",
      "type": "error"
    },
    {
      "inputs": [
        {
          "internalType": "address",
          "name": "account",
          "type": "address"
        }
      ],
      "name": "OwnableUnauthorizedAccount",
      "type": "error"
    },
    {
      "anonymous": false,
      "inputs": [
        {
          "indexed": true,
          "internalType": "address",
          "name": "previousOwner",
          "type": "address"
        },
        {
          "indexed": true,
          "internalType": "address",
          "name": "newOwner",
          "type": "address"
        }
      ],
      "name": "OwnershipTransferred",
      "type": "event"
    },
    {
      "anonymous": false,
      "inputs": [
        {
          "indexed": false,
          "internalType": "uint256",
          "name": "randomness",
          "type": "uint256"
        }
      ],
      "name": "RandomnessReceived",
      "type": "event"
    },
    {
      "inputs": [],
      "name": "anyrand",
      "outputs": [
        {
          "internalType": "address",
          "name": "",
          "type": "address"
        }
      ],
      "stateMutability": "view",
      "type": "function"
    },
    {
      "inputs": [
        {
          "internalType": "uint256",
          "name": "deadline",
          "type": "uint256"
        },
        {
          "internalType": "uint256",
          "name": "callbackGasLimit",
          "type": "uint256"
        }
      ],
      "name": "getRandom",
      "outputs": [],
      "stateMutability": "payable",
      "type": "function"
    },
    {
      "inputs": [],
      "name": "owner",
      "outputs": [
        {
          "internalType": "address",
          "name": "",
          "type": "address"
        }
      ],
      "stateMutability": "view",
      "type": "function"
    },
    {
      "inputs": [
        {
          "internalType": "uint256",
          "name": "requestId",
          "type": "uint256"
        }
      ],
      "name": "randomness",
      "outputs": [
        {
          "internalType": "uint256",
          "name": "",
          "type": "uint256"
        }
      ],
      "stateMutability": "view",
      "type": "function"
    },
    {
      "inputs": [
        {
          "internalType": "uint256",
          "name": "requestId",
          "type": "uint256"
        },
        {
          "internalType": "uint256",
          "name": "randomWord",
          "type": "uint256"
        }
      ],
      "name": "receiveRandomness",
      "outputs": [],
      "stateMutability": "nonpayable",
      "type": "function"
    },
    {
      "inputs": [],
      "name": "renounceOwnership",
      "outputs": [],
      "stateMutability": "nonpayable",
      "type": "function"
    },
    {
      "inputs": [
        {
          "internalType": "address",
          "name": "newOwner",
          "type": "address"
        }
      ],
      "name": "transferOwnership",
      "outputs": [],
      "stateMutability": "nonpayable",
      "type": "function"
    }
  ],
  "bytecode": "0x60a060405234801561001057600080fd5b506040516108c13803806108c183398101604081905261002f916100c0565b338061005557604051631e4fbdf760e01b81526000600482015260240160405180910390fd5b61005e81610070565b506001600160a01b03166080526100f0565b600080546001600160a01b038381166001600160a01b0319831681178455604051919092169283917f8be0079c531659141344cd1fd0a4f28419497f9722a3daafe3b4186f6b6457e09190a35050565b6000602082840312156100d257600080fd5b81516001600160a01b03811681146100e957600080fd5b9392505050565b6080516107a261011f6000396000818160e9015281816101940152818161033501526104e401526107a26000f3fe6080604052600436106100705760003560e01c8063655b08eb1161004e578063655b08eb14610123578063715018a6146101365780638da5cb5b1461014b578063f2fde38b1461016957600080fd5b80631b1d5b2714610075578063210b9f03146100b557806350ad03ae146100d7575b600080fd5b34801561008157600080fd5b506100a2610090366004610684565b60016020526000908152604090205481565b6040519081526020015b60405180910390f35b3480156100c157600080fd5b506100d56100d036600461069d565b610189565b005b3480156100e357600080fd5b5061010b7f000000000000000000000000000000000000000000000000000000000000000081565b6040516001600160a01b0390911681526020016100ac565b6100d561013136600461069d565b6102b4565b34801561014257600080fd5b506100d561056b565b34801561015757600080fd5b506000546001600160a01b031661010b565b34801561017557600080fd5b506100d56101843660046106bf565b61057f565b336001600160a01b037f000000000000000000000000000000000000000000000000000000000000000016146102065760405162461bcd60e51b815260206004820152601860248201527f4f6e6c792063616c6c61626c6520627920416e7972616e64000000000000000060448201526064015b60405180910390fd5b600082815260016020819052604090912054146102655760405162461bcd60e51b815260206004820152601160248201527f556e6b6e6f776e2072657175657374496400000000000000000000000000000060448201526064016101fd565b60008281526001602052604090819020829055517fa3f81bbd3aa95507a476e060c61d620846dd098c485c00e7af8876d328c2a792906102a89083815260200190565b60405180910390a15050565b4282116103035760405162461bcd60e51b815260206004820152601760248201527f446561646c696e6520697320696e20746865207061737400000000000000000060448201526064016101fd565b6040517f10b0d1d2000000000000000000000000000000000000000000000000000000008152600481018290526000907f00000000000000000000000000000000000000000000000000000000000000006001600160a01b0316906310b0d1d2906024016040805180830381865afa158015610383573d6000803e3d6000fd5b505050506040513d601f19601f820116820180604052508101906103a791906106ef565b509050803410156103fa5760405162461bcd60e51b815260206004820152601460248201527f496e73756666696369656e74207061796d656e7400000000000000000000000060448201526064016101fd565b803411156104a35760003361040f8334610713565b604051600081818185875af1925050503d806000811461044b576040519150601f19603f3d011682016040523d82523d6000602084013e610450565b606091505b50509050806104a15760405162461bcd60e51b815260206004820152600d60248201527f526566756e64206661696c65640000000000000000000000000000000000000060448201526064016101fd565b505b6040517f1f53cf0400000000000000000000000000000000000000000000000000000000815260048101849052602481018390526000906001600160a01b037f00000000000000000000000000000000000000000000000000000000000000001690631f53cf0490849060440160206040518083038185885af115801561052e573d6000803e3d6000fd5b50505050506040513d601f19601f820116820180604052508101906105539190610753565b60009081526001602081905260409091205550505050565b6105736105d6565b61057d600061061c565b565b6105876105d6565b6001600160a01b0381166105ca576040517f1e4fbdf7000000000000000000000000000000000000000000000000000000008152600060048201526024016101fd565b6105d38161061c565b50565b6000546001600160a01b0316331461057d576040517f118cdaa70000000000000000000000000000000000000000000000000000000081523360048201526024016101fd565b600080546001600160a01b038381167fffffffffffffffffffffffff0000000000000000000000000000000000000000831681178455604051919092169283917f8be0079c531659141344cd1fd0a4f28419497f9722a3daafe3b4186f6b6457e09190a35050565b60006020828403121561069657600080fd5b5035919050565b600080604083850312156106b057600080fd5b50508035926020909101359150565b6000602082840312156106d157600080fd5b81356001600160a01b03811681146106e857600080fd5b9392505050565b6000806040838503121561070257600080fd5b505080516020909101519092909150565b8181038181111561074d577f4e487b7100000000000000000000000000000000000000000000000000000000600052601160045260246000fd5b92915050565b60006020828403121561076557600080fd5b505191905056fea26469706673582212206f1f1653cb720993839d502afa9ce14718b02647c2c1dcc883b0440bb3972d1364736f6c63430008170033",
  "linkReferences": {},
  "deployedLinkReferences": {}
}